:020000040800F2
:1000000000500020D13A0008193B0008193B0008B5
:10001000193B0008193B0008193B000800000000CC
:10002000000000000000000000000000193B000874
:10003000193B000800000000193B0008193B0008AC
:10004000193B0008193B0008193B0008193B000840
:10005000193B0008193B0008193B0008193B000830
:10006000193B0008193B0008193B0008193B000820
:10007000193B0008193B0008193B0008193B000810
:10008000193B0008193B0008193B0008193B000800
:10009000193B0008193B0008193B0008193B0008F0
:1000A000912A00082D150008193B0008193B00088B
:1000B000F91D0008193B0008193B0008193B00080E
:1000C000193B0008193B0008193B0008193B0008C0
:1000D000193B0008193B0008193B000829200008BB
:1000E000193B0008193B0008193B000800000000FC
:1000F0000000000000000000000000000000000000
:0C01000000000000000000005FF808F1A3
:10011000034613F8012B002AFBD1181A0138704747
:1001200081F0004102E000BF83F0004330B54FEAA8
:1001300041044FEA430594EA050F08BF90EA020F15
:100140001FBF54EA000C55EA020C7FEA645C7FEAA8
:10015000655C00F0E2804FEA5454D4EB5555B8BFCB
:100160006D420CDD2C4480EA020281EA030382EA3C
:10017000000083EA010180EA020281EA0303362DCE
:1001800088BF30BD11F0004F4FEA01314FF4801CA1
:100190004CEA113102D0404261EB410113F0004FB3
:1001A0004FEA03334CEA133302D0524263EB43036A
:1001B00094EA050F00F0A780A4F10104D5F1200E08
:1001C0000DDB02FA0EFC22FA05F2801841F1000163
:1001D00003FA0EF2801843FA05F359410EE0A5F137
:1001E00020050EF1200E012A03FA0EFC28BF4CF068
:1001F000020C43FA05F3C01851EBE37101F000451E
:1002000007D54FF0000EDCF1000C7EEB00006EEB2A
:100210000101B1F5801F1BD3B1F5001F0CD34908B4
:100220005FEA30004FEA3C0C04F101044FEA44520B
:1002300012F5800F80F09A80BCF1004F08BF5FEA92
:10024000500C50F1000041EB045141EA050130BD72
:100250005FEA4C0C404141EB0101013C28BFB1F584
:10026000801FE9D291F0000F04BF01460020B1FACF
:1002700081F308BF2033A3F10B03B3F120020CDAA2
:100280000C3208DD02F1140CC2F10C0201FA0CF080
:1002900021FA02F10CE002F11402D8BFC2F1200CE5
:1002A00001FA02F120FA0CFCDCBF41EA0C0190409B
:1002B000E41AA2BF01EB0451294330BD6FEA0404E4
:1002C0001F3C1CDA0C340EDC04F11404C4F12002CF
:1002D00020FA04F001FA02F340EA030021FA04F3E1
:1002E00045EA030130BDC4F10C04C4F1200220FA38
:1002F00002F001FA04F340EA0300294630BD21FA76
:1003000004F0294630BD94F0000F83F4801306BF3B
:1003100081F480110134013D4EE77FEA645C18BF2F
:100320007FEA655C29D094EA050F08BF90EA020FC6
:1003300005D054EA000C04BF1946104630BD91EABE
:10034000030F1EBF0021002030BD5FEA545C05D1C1
:100350004000494128BF41F0004130BD14F5800400
:100360003CBF01F5801130BD01F0004545F0FE4174
:1003700041F470014FF0000030BD7FEA645C1ABFA9
:10038000194610467FEA655C1CBF0B46024650EAE0
:10039000013406BF52EA033591EA030F41F400210C
:1003A00030BD00BF90F0000F04BF0021704730B592
:1003B0004FF4806404F132044FF000054FF0000167
:1003C00050E700BF90F0000F04BF0021704730B528
:1003D0004FF4806404F1320410F0004548BF4042FD
:1003E0004FF000013EE700BF42004FEAE2014FEA52
:1003F00031014FEA02701FBF12F07F4393F07F4F2D
:1004000081F06051704732F07F4208BF704793F02F
:100410007F4F04BF41F40021704730B54FF4607442
:1004200001F0004521F000411CE700BF50EA010245
:1004300008BF704730B54FF000050AE050EA0102EE
:1004400008BF704730B511F0004502D5404261EB5E
:1004500041014FF4806404F132045FEA915C3FF49F
:10046000D8AE4FF003025FEADC0C18BF03325FEA3C
:10047000DC0C18BF033202EBDC02C2F1200300FAED
:1004800003FC20FA02F001FA03FE40EA0E0021FA12
:1004900002F11444BDE600BF70B54FF0FF0C4CF400
:1004A000E06C1CEA11541DBF1CEA135594EA0C0FB2
:1004B00095EA0C0F00F0DEF82C4481EA030621EAED
:1004C0004C5123EA4C5350EA013518BF52EA033528
:1004D00041F4801143F4801338D0A0FB02CE4FF0DA
:1004E0000005E1FB02E506F00042E0FB03E54FF00A
:1004F0000006E1FB03569CF0000F18BF4EF0010E02
:10050000A4F1FF04B6F5007F64F5407404D25FEAFD
:100510004E0E6D4146EB060642EAC62141EA5551B0
:100520004FEAC52040EA5E504FEACE2EB4F1FD0CF2
:1005300088BFBCF5E06F1ED8BEF1004F08BF5FEA70
:10054000500E50F1000041EB045170BD06F0004622
:1005500046EA010140EA020081EA0301B4EB5C04CF
:10056000C2BFD4EB0C0541EA045170BD41F48011C7
:100570004FF0000E013C00F3AB8014F1360FDEBFEC
:10058000002001F0004170BDC4F10004203C35DAC8
:100590000C341BDC04F11404C4F1200500FA05F34B
:1005A00020FA04F001FA05F240EA020001F00042EC
:1005B00021F0004110EBD37021FA04F642EB060162
:1005C0005EEA430E08BF20EAD37070BDC4F10C048C
:1005D000C4F1200500FA04F320FA05F001FA04F250
:1005E00040EA020001F0004110EBD37041F100013C
:1005F0005EEA430E08BF20EAD37070BDC4F1200547
:1006000000FA05F24EEA020E20FA04F301FA05F2AE
:1006100043EA020321FA04F001F0004121FA04F256
:1006200020EA020000EBD3705EEA430E08BF20EA26
:10063000D37070BD94F0000F0FD101F00046400060
:1006400041EB010111F4801F08BF013CF7D041EAE2
:10065000060195F0000F18BF704703F000465200E6
:1006600043EB030313F4801F08BF013DF7D043EAB7
:100670000603704794EA0C0F0CEA135518BF95EA6D
:100680000C0F0CD050EA410618BF52EA4306D1D1F4
:1006900081EA030101F000414FF0000070BD50EA13
:1006A000410606BF1046194652EA430619D094EA9D
:1006B0000C0F02D150EA013613D195EA0C0F05D187
:1006C00052EA03361CBF104619460AD181EA0301DB
:1006D00001F0004141F0FE4141F470014FF0000093
:1006E00070BD41F0FE4141F4780170BD70B54FF02E
:1006F000FF0C4CF4E06C1CEA11541DBF1CEA1355AE
:1007000094EA0C0F95EA0C0F00F0A7F8A4EB05048F
:1007100081EA030E52EA03354FEA013100F0888086
:100720004FEA03334FF0805545EA131343EA12634F
:100730004FEA022245EA111545EA10654FEA002604
:100740000EF000419D4208BF964244F1FD0404F5BD
:10075000407402D25B084FEA3202B61A65EB030519
:100760005B084FEA32024FF480104FF4002CB6EBD6
:10077000020E75EB030E22BFB61A754640EA0C0056
:100780005B084FEA3202B6EB020E75EB030E22BF96
:10079000B61A754640EA5C005B084FEA3202B6EBD7
:1007A000020E75EB030E22BFB61A754640EA9C0096
:1007B0005B084FEA3202B6EB020E75EB030E22BF66
:1007C000B61A754640EADC0055EA060E18D04FEA24
:1007D000051545EA16754FEA06164FEAC30343EAC4
:1007E00052734FEAC2025FEA1C1CC0D111F4801F91
:1007F0000BD141EA00014FF000004FF0004CB6E78A
:1008000011F4801F04BF01430020B4F1FD0C88BF28
:10081000BCF5E06F3FF6AFAEB5EB030C04BFB6EB33
:10082000020C5FEA500C50F1000041EB045170BD26
:100830000EF0004E4EEA113114EB5C04C2BFD4EB53
:100840000C0541EA045170BD41F480114FF0000ED7
:10085000013C90E645EA060E8DE60CEA135594EA53
:100860000C0F08BF95EA0C0F3FF43BAF94EA0C0F56
:100870000AD150EA01347FF434AF95EA0C0F7FF4CB
:1008800025AF104619462CE795EA0C0F06D152EA1F
:1008900003353FF4FDAE1046194622E750EA410603
:1008A00018BF52EA43067FF4C5AE50EA41047FF414
:1008B0000DAF52EA43057FF4EBAE12E74FF0FF3C79
:1008C00006E000BF4FF0010C02E000BF4FF0010C4A
:1008D0004DF804CD4FEA410C7FEA6C5C4FEA430CC3
:1008E00018BF7FEA6C5C1BD001B050EA410C0CBF12
:1008F00052EA430C91EA030F02BF90EA020F002074
:10090000704710F1000F91EA030F58BF994208BFDA
:1009100090422CBFD8176FEAE37040F00100704797
:100920004FEA410C7FEA6C5C02D150EA013C07D1EE
:100930004FEA430C7FEA6C5CD6D152EA033CD3D039
:100940005DF8040B704700BF8446104662468C4633
:100950001946634600E000BF01B5FFF7B7FF002866
:1009600048BF10F1000F01BD4DF808EDFFF7F4FF8F
:100970000CBF012000205DF808FB00BF4DF808ED1A
:10098000FFF7EAFF34BF012000205DF808FB00BF3D
:100990004DF808EDFFF7E0FF94BF012000205DF85F
:1009A00008FB00BF4DF808EDFFF7CEFF94BF012014
:1009B00000205DF808FB00BF4DF808EDFFF7C4FF0D
:1009C00034BF012000205DF808FB00BF4FEA410C56
:1009D0007FEA6C5C02D150EA013C0AD14FEA430C39
:1009E0007FEA6C5C02D152EA033C02D14FF0000076
:1009F00070474FF0010070474FEA410212F50012B4
:100A000015D211D56FF47873B3EB625212D94FEA55
:100A1000C12343F0004343EA505311F0004F23FA3F
:100A200002F018BF404270474FF00000704750EA94
:100A3000013005D111F0004008BF6FF00040704751
:100A40004FF00000704700BF0348044B834202D0C0
:100A5000034B03B1184770478C0200208C02002022
:100A6000000000000548064B1B1AD90F01EBA3013B
:100A7000491002D0034B03B1184770478C02002085
:100A80008C0200200000000010B5064C237843B90A
:100A9000FFF7DAFF044B13B10448AFF300800123E2
:100AA000237010BD8C020020000000003067000899
:100AB00008B5054B1BB105490548AFF30080BDE8FB
:100AC0000840FFF7CFBF00BF0000000090020020E9
:100AD0003067000880B586B000AF01214FF4007088
:100AE00002F0D2F82E4801F057FB3B1D184601F0EA
:100AF000DFFB00237B6001233B7201237B724FF4F9
:100B00006023FB6000233B6105233B753B1D1946B9
:100B1000234801F07BFB002001F0C6FF01230122E6
:100B200000211F4801F07CFC0123022201211C4806
:100B300001F076FC012303220221194801F070FC28
:100B4000012304220321164801F06AFC0123052237
:100B50000821134801F064FC0121114801F0C3FB96
:100B600001210F4801F0DAFB0D4801F0F2FB00BF54
:100B70000B4801F0FDFB0346002BF9D1084801F0BA
:100B80000EFC00BF064801F019FC0346002BF9D10A
:100B90000121034801F029FC00BF1837BD4680BD84
:100BA0000024014080B58CB000AF0121012002F08B
:100BB0004DF8144801F0FEFC134B7B60134BBB60F7
:100BC0000023FB6005233B6100237B618023BB6125
:100BD0004FF48073FB614FF480633B6220237B62A0
:100BE0004FF40053BB620023FB623B1D19460548CE
:100BF00001F09CFD0121034801F0D6FD00BF303714
:100C0000BD4680BD080002404C240140A8020020DF
:100C100080B485B000AF324B1B781A46314B9988AF
:100C2000314B23F812102E4B1B781A462D4B598846
:100C30002E4B23F812102A4B1B781A46294B198881
:100C40002B4B23F81210264B1B780133DAB2244BBE
:100C50001A70234B1B783F2B02D9214B00221A70AC
:100C6000244B9B78002B35D10023FB600023BB6015
:100C700000237B600023FB701AE0FB781A4A32F8ED
:100C800013301A46FB681344FB60FB78174A32F8AE
:100C900013301A46BB681344BB60FB78144A32F821
:100CA00013301A467B6813447B60FB780133FB707A
:100CB000FB783F2BE1D9FB689B091A460E4BDA61A2
:100CC000BB689B091A460C4B1A627B689B091A4643
:100CD000094B9A6100BF1437BD4680BC704700BF06
:100CE000B2020020A8020020B40200203403002039
:100CF000B40300207C0400206C00002080B400AF0E
:100D00001A4B1B881A461A4B9B69D31A1933184A77
:100D10005360174B1B6A154A52889B1A144AD360BA
:100D2000134BDB69114A92889B1A114A93600F4B4F
:100D3000DB881A460E4B5A610C4B1B891A460C4B2A
:100D40001A610B4B5B6A0A4A126802FB03F39A12A0
:100D5000074B9B6A0649496801FB03F39B12134446
:100D6000034A136000BFBD4680BC7047A802002044
:100D70006C00002080B500AF074B1B68002BB8BF8C
:100D80005B42064A1288934204DD00F031FD044BB9
:100D900000221A7200BF80BD6C00002000000020FD
:100DA0007C04002080B485B000AF786042F21073FC
:100DB000FB8108E0FB89013BFB81FB89002BF9D11A
:100DC0007B68013B7B607B68002BF6D100BF00BFD6
:100DD0001437BD4680BC704780B582B000AF01219A
:100DE0001C2001F051FF0423BB801023FB7103235F
:100DF000BB713B1D1946034801F0F2FC00BF0837E8
:100E0000BD4680BD000C014080B582B000AF4FF4FC
:100E10006043BB800423FB710323BB713B1D194658
:100E2000034801F0DDFC00BF0837BD4680BD00BFB0
:100E30000010014080B582B000AF0F23BB800023BB
:100E4000FB713B1D1946084801F0CAFC0123BB8019
:100E50000023FB713B1D1946044801F0C1FC00BF93
:100E60000837BD4680BD00BF00080140000C0140AE
:100E700080B582B000AF3B1D184601F06DFD012129
:100E80004FF4805001F094FD4FF44073BB80182361
:100E9000FB710323BB713B1D1946034801F0A0FC05
:100EA00000BF0837BD4680BD000C014080B582B050
:100EB00000AF0121144801F07BFD4FF4E063BB80DB
:100EC0001823FB710323BB713B1D19460F4801F02A
:100ED00087FC4FF46043BB801823FB710323BB7175
:100EE0003B1D19460A4801F07BFC4FF48053BB8040
:100EF0004823FB713B1D1946054801F071FC00BFFA
:100F00000837BD4680BD00BFC00016000008014084
:100F1000000C014080B400AF074BDB6803F0040312
:100F2000002B01D1042301E04FF48023024A136116
:100F300000BFBD4680BC7047000C014080B487B044
:100F400000AFF860B9607A60FA687B689A4202DCA8
:100F50007B687B6108E0FA68BB689A4202DBBB6889
:100F60007B6101E0FB687B617B6918461C37BD46ED
:100F700080BC704780B582B000AF78607B681A682B
:100F80007B685B68D21A7B681A627B689A687B68A8
:100F90009B6A9A420AD17B685B697A68126A02FB93
:100FA00003F3DA137B68DB6A134401E07B68DB6AD6
:100FB0007A6853627B685A6A7B68DA627B681B696D
:100FC0007A68126A02FB03F3DA137B68DB6A1A445D
:100FD0007B689A627B68986A7B6899697B68DB6941
:100FE0001A46FFF7ABFF02467B689A6000BF0837DE
:100FF000BD4680BD80B400AF104B42F6E0621A617E
:101000000E4B40F224425A610C4B41F23E729A61FF
:101010000A4B0022DA610A4B42F228321A61084B6D
:101020004FF45C725A61064B41F23E729A61044B76
:101030000022DA6100BFBD4680BC70470C00002072
:101040003C00002080B500AF584B1B78022B53D1D9
:10105000574B5B69B3F5AF7F21DC544B00229A708C
:10106000524B00221A72514B0022DA80514B00225F
:101070005A60504B00221A604E4B00221A624D4BB0
:1010800000225A624B4B00229A624A4B0022DA62DB
:10109000484B00229A60474B0022DA6012E0434B33
:1010A00001229A70424B5B69A3F59673414A136023
:1010B000404B1B6840F6C312934203DD3D4B40F6A4
:1010C000C4121A60394BDB78002B07D1374B9B7861
:1010D000012B03D1354B01221A7260E0334BDB78D0
:1010E000012B03D1314B9B78012B58D000F080FBB2
:1010F0002E4B00221A7252E02D4B5B69B3F5AF7F85
:1011000021DC2A4B00229A70284B00221A72274BAE
:101110000022DA80274B00225A60264B00221A60F8
:10112000244B00221A62234B00225A62214B0022D8
:101130009A62204B0022DA621E4B00229A601D4BFD
:101140000022DA6012E0194B01229A70184B5B6999
:10115000A3F59673174A1360164B1B6840F6C3122B
:10116000934203DD134B40F6C4121A600F4BDB7839
:10117000002B07D10D4B9B78012B03D10B4B012288
:101180001A720CE0094BDB78012B03D1074B9B78DB
:10119000012B04D000F02CFB044B00221A72034BED
:1011A0009A78024BDA7000BF80BD00BF7C0400203B
:1011B0006C0000200C00002080B400AF084B04221B
:1011C00083F82020064B93F820301A46054B93FBFA
:1011D000F2F31A46024BDA6100BFBD4680BC70478D
:1011E00098000020C0D4010080B500AF4FF400513A
:1011F000A14801F0C4FB0346012B03D19F4B012200
:101200001A7002E09D4B00221A704FF480419A48F8
:1012100001F0B5FB0346012B03D1984B01225A7014
:1012200002E0964B00225A704FF40041924801F0C0
:10123000A6FB0346012B03D1904B01229A7002E0DA
:101240008E4B00229A708D4B1A788C4B5B785B002A
:10125000DBB21344DAB2894B9B789B00DBB21344B8
:10126000DAB2864BDA70864B1B7A012B40F0538141
:10127000824BDA78814B1B799A4200F0AD807F4B2C
:10128000DB78013B052B5DD801A252F823F000BFAB
:10129000F71200082B13000811130008C3120008EE
:1012A000DD120008A9120008754B5B79012B01D1F2
:1012B00000F0C2FA724B5B79022B49D100F070FB4F
:1012C00046E06F4B5B79012B01D100F0F1FA6C4BDA
:1012D0005B79022B3ED100F09FFB3BE0684B5B79D2
:1012E000012B01D100F020FB654B5B79022B33D140
:1012F00000F0CEFB30E0624B5B79012B01D100F0B6
:101300004FFB5F4B5B79022B28D100F095FA25E06B
:101310005B4B5B79012B01D100F07EFB584B5B7975
:10132000022B1DD100F0C4FA1AE0554B5B79012B5A
:1013300001D100F0ADFB524B5B79022B12D100F0D2
:10134000F3FA0FE000F054FA4C4B00225A840AE002
:1013500000BF08E000BF06E000BF04E000BF02E0FD
:1013600000BF00E000BF474B1B881A46434BDB8A97
:1013700002FB03F39B129AB2434B1B8819463F4B67
:101380009B8A01FB03F39B129BB213449AB23B4B23
:10139000DA823A4BDB69394AD28AB3FBF2F39AB26A
:1013A000364B5A84374B1B881A46344B9B8C02FBB6
:1013B00003F39B129AB2344B1B8819462F4B5B8C5C
:1013C00001FB03F39B129BB213449AB22B4B9A84FA
:1013D0002A4B00229A829EE0284BDA78274B1B7911
:1013E0009A4240F09880254B9B8A01339AB2234B56
:1013F0009A82224B9B8AB3F5FA5FC0F08C801F4B18
:1014000000229A821D4B00229A8400F0F1F91B4BB6
:1014100000221A61194B002283F82120174BDB7838
:10142000013B052B66D801A252F823F0A71400084F
:10143000DB140008C11400085F1400088D140008B4
:10144000451400080E4B5B79012B01D100F0F4F933
:101450000B4B5B79022B53D100F0A2FA50E0084B02
:101460005B79012B01D100F023FA054B5B79022B4C
:1014700048D100F0D1FA45E000100140980000206A
:101480007C0400200400002002000020254B5B7932
:10149000012B01D100F048FA224B5B79022B33D1AA
:1014A00000F0F6FA30E01F4B5B79012B01D100F020
:1014B00077FA1C4B5B79022B28D100F0BDF925E0AF
:1014C000184B5B79012B01D100F0A6FA154B5B7923
:1014D000022B1DD100F0ECF91AE0124B5B79012BC5
:1014E00001D100F0D5FA0F4B5B79022B12D100F03D
:1014F0001BFA0FE000F07CF90B4B00225A840AE043
:1015000000BF08E000BF06E000BF04E000BF02E04B
:1015100000BF00E000BF044BDA78034B1A7100BF34
:1015200080BD00BF7C0400209800002080B500AF83
:10153000FFF7E4FBFFF758FE4F4B9B78002B01D1E0
:10154000FFF766FB4D4B1B780133DAB24B4B1A7039
:101550004A4B1B78182B7AD9484B00221A70FFF798
:1015600071FD474B1B699AB2464B5A82444B1B682C
:101570009AB2444B1A82444B5B689AB2414B1A842C
:10158000414B1B689AB23F4BDA83404B9B8C1A4607
:101590003D4B5A603C48FFF7EDFC3D4B1B881A461B
:1015A000394BDB6802FB03F39A123A4B1B8819464E
:1015B000354B9B6801FB03F39B121344324AD36003
:1015C0002F4B5B69344A82FB0312D210DB17D31A0C
:1015D00003F59673314A1360294B1B682F4A5360F9
:1015E0002E48FFF7C7FC2A4B1B881A462B4BDB689B
:1015F00002FB03F39A12274B1B881946274B9B6863
:1016000001FB03F39B121344244AD3601A4B1B784B
:10161000012B07D11C4B1B689BB25B009AB2204B7D
:101620001A8014E0144B1B78022B10D11B4BDA6884
:10163000154BDB689A4205DD134BDB689AB2184BF9
:101640001A8004E0154BDB689AB2154B1A80FFF73D
:1016500091FB0E4B9B8C1946124801F0D2FF104BA8
:101660001B8819460F4801F0DAFF01210E4801F0EE
:10167000E5FF00BF80BD00BF7C04002064040020A3
:101680006C0000203C0400200C000020980000208A
:101690000600002008000020676666663C00002007
:1016A0003404002000080040002C014080B58CB0BC
:1016B00000AF01214FF4006001F0E6FA0023BB8483
:1016C0000023FB8441F26F733B8500237B8500235D
:1016D00087F82C3007F124031946444801F02EFB0B
:1016E0000023BB820123FB8204233B8300237B83F3
:1016F0000023BB830023FB834FF480733B844FF4B0
:1017000000737B8407F114031946384801F092FBFB
:1017100007F114031946354801F018FC07F11403CA
:101720001946324801F09AFC0821304801F031FE98
:1017300008212E4801F048FE08212C4801F061FEE6
:101740004FF40063BB804FF48063FB8000233B8138
:101750006A237B814FF48053BB810023FB814FF4CC
:1017600080433B823B1D1946204801F065FD8021E6
:101770001E4801F09CFF012280211C4801F0C7FD9A
:1017800001211A4801F05AFF0121184801F08FFF8A
:1017900001220121154801F0BAFD0121134801F091
:1017A00072FD0121114801F08DFD4FF4A06000F0A1
:1017B0007FFC18233B7000237B700023BB70012348
:1017C000FB703B46184600F085FC19233B70012353
:1017D0007B700023BB700123FB703B46184600F072
:1017E00079FC00BF3037BD4680BD00BF002C0140F2
:1017F00080B500AF002200210E4801F03AFE002221
:1018000000210C4801F05FFE00220421094801F08C
:1018100030FE00220421074801F055FE0022082175
:10182000044801F026FE00220821024801F04BFE88
:1018300000BF80BD002C014080B500AF60220021B8
:10184000194801F06AFE01220021174801F011FE3B
:1018500004220021144801F036FE602204211248BF
:1018600001F05BFE012204210F4801F002FE042278
:1018700004210D4801F027FE002208210A4801F04A
:10188000F8FD00220821084801F01DFE074BB3F9BE
:1018900000309BB21946044801F097FE002102482F
:1018A00001F0A1FE00BF80BD002C014034040020E7
:1018B00080B500AF60220021194801F02EFE012200
:1018C0000021174801F0D5FD04220021144801F041
:1018D000FAFD00220421124801F0CBFD0022042170
:1018E0000F4801F0F0FD602208210D4801F015FEBF
:1018F000012208210A4801F0BCFD04220821084801
:1019000001F0E1FD074BB3F900309BB219460448E2
:1019100001F05BFE0021024801F073FE00BF80BDB4
:10192000002C01403404002080B500AF00220021CB
:10193000194801F09EFD00220021174801F0C3FD67
:1019400060220421144801F0E8FD0122042112481C
:1019500001F08FFD042204210F4801F0B4FD602244
:1019600008210D4801F0D9FD012208210A4801F0A3
:1019700080FD04220821084801F0A5FD074BB3F9BA
:1019800000309BB21946044801F02DFE00210248A8
:1019900001F037FE00BF80BD002C01403404002060
:1019A00080B500AF60220021194801F0B6FD012288
:1019B0000021174801F05DFD04220021144801F0C8
:1019C00082FD60220421124801F0A7FD01220421BA
:1019D0000F4801F04EFD042204210D4801F073FD73
:1019E000002208210A4801F044FD0022082108488D
:1019F00001F069FD0021064801F0E7FD054BB3F950
:101A000000309BB21946024801F0EDFD00BF80BDD9
:101A1000002C01403404002080B500AF602200217A
:101A2000194801F07AFD01220021174801F021FD3B
:101A300004220021144801F046FD0022042112482E
:101A400001F017FD002204210F4801F03CFD602247
:101A500008210D4801F061FD012208210A4801F02A
:101A600008FD04220821084801F02DFD0021064848
:101A700001F0ABFD054BB3F900309BB219460248AB
:101A800001F0BFFD00BF80BD002C014034040020E8
:101A900080B500AF00220021194801F0EAFC0022C5
:101AA0000021174801F00FFD60220421144801F0C5
:101AB00034FD01220421124801F0DBFC0422042140
:101AC0000F4801F000FD602208210D4801F025FDBE
:101AD000012208210A4801F0CCFC04220821084810
:101AE00001F0F1FC0021064801F07DFD054BB3F942
:101AF00000309BB21946024801F083FD00BF80BD53
:101B0000002C01403404002080B588B000AF0121D2
:101B1000042001F0D7F82D4B1B682D4AA2FB0323AC
:101B20009B0B9BB2013B9BB23B830023BB820023F8
:101B30007B830023FB8207F114031946254801F03B
:101B4000FDF86023BB800123FB8064237B8100239D
:101B5000BB813B1D19461F4801F06CF908211D4847
:101B600001F017FC0123FB8064237B813B1D194698
:101B7000184801F0EBF90821164801F025FC012373
:101B8000FB8064237B813B1D1946124801F066FAF5
:101B90000821104801F035FC0123FB8064237B8180
:101BA0003B1D19460B4801F0DFFA0821094801F0F6
:101BB00043FC0121074801F0CDFB0121054801F05C
:101BC00062FB00BF2037BD4680BD00BFC0000020C3
:101BD000D55204E90008004080B500AF484B5B785F
:101BE000012B40F08B80464B00225A70444B01225F
:101BF0009A70434BDB780133DAB2414BDA70404BD9
:101C0000DB78092B05D93E4B0022DA703C4B0122D0
:101C10001A713B4B5B790133DAB2394B5A71384B4D
:101C20005B79132B05D9364B00225A71344B0122B4
:101C30009A71334BDB790133DAB2314BDA71304BC5
:101C4000DB791D2B05D92E4B0022DA712C4B01229A
:101C50001A722B4B5B7A0133DAB2294B5A72284B3A
:101C60005B7A272B05D9264B00225A72244B01227E
:101C70009A72234BDB7A0133DAB2214BDA72204BB2
:101C8000DB7A312B05D91E4B0022DA721C4B012264
:101C90001A731B4B5B7B0133DAB2194B5A73184B27
:101CA0005B7B632B07D9FFF735F9154B00225A737D
:101CB000134B01229A73124B1B8A01339AB2104BB9
:101CC0001A820F4B1B8AB3F57A7F05D30C4B002287
:101CD0001A820B4B01229A74094B9B8A01339AB2E8
:101CE000074B9A82064B9B8A41F26F72934205D949
:101CF000034B00229A82024B01229A7500BF80BDDD
:101D00006404002080B400AF214B9B78012B02D1EA
:101D10001F4B00229A701E4B1B79012B02D11C4BCA
:101D200000221A711A4B9B79012B02D1184B002209
:101D30009A71174B1B7A012B02D1154B00221A7294
:101D4000134B9B7A012B02D1114B00229A72104B3C
:101D50001B7B012B02D10E4B00221A730C4B9B7B79
:101D6000012B02D10A4B00229A73094B9B7C012B59
:101D700002D1074B00229A74054B9B7D012B02D1A7
:101D8000034B00229A7500BFBD4680BC704700BF60
:101D90006404002080B584B000AF0121012000F070
:101DA00091FF63233B8141F61F43BB8000237B816E
:101DB0000023FB803B1D19464FF0804000F0BEFF22
:101DC0001C233B7000237B700023BB700123FB703E
:101DD0003B46184600F07EF9012201214FF0804079
:101DE00001F095FA01214FF0804001F04CFA00BF5C
:101DF0001037BD4680BD000080B500AF01214FF017
:101E0000804001F02BFC0346002B07D001214FF04E
:101E1000804001F04CFC024B01225A7000BF80BD93
:101E20006404002080B582B000AF7860074A7B6808
:101E30001360074B1B68986800230222002102F000
:101E400043FC00BF0837BD4680BD00BF38040020FA
:101E5000D000002080B588B000AF786001214FF439
:101E6000802000F02FFF0121082000F00DFF4FF42B
:101E70008063BB831823FB770323BB7707F11C0325
:101E800019461E4800F0ACFC4FF40063BB830423EA
:101E9000FB770323BB7707F11C031946174800F0B3
:101EA0009FFC27233B7203237B720323BB72012316
:101EB000FB7207F10803184600F00CF97B68FB6021
:101EC00000233B8200237B820023BB8200233B83D1
:101ED0000C23FB8207F10C031946094801F0F8FBBB
:101EE000012240F22551064801F0CBFC01210448B3
:101EF00001F0A8FC00BF2037BD4680BD000C0140AA
:101F00000048004080B483B000AF78607B68002B4D
:101F100004DB7B68022B01DC012300E00023184670
:101F20000C37BD4680BC704780B586B000AFF86006
:101F3000B9607A60FB68012B02D0FB68022B28D1C4
:101F400000237B6115E0164B1868BA687B6913445F
:101F50001B78194601F0DCFC00BF114B1B68802187
:101F6000184601F0F5FC0346002BF6D07B690133DF
:101F70007B617B687A699A42E5D300BF084B1B6896
:101F80004021184601F0E4FC0346002BF6D07B68A4
:101F900001E04FF0FF3318461837BD4680BD00BF43
:101FA0003804002080B483B000AF78607B68002BD9
:101FB00004DB7B68022B01DC002301E04FF0FF33E0
:101FC00018460C37BD4680BC704780B485B000AF62
:101FD000F860B9607A604FF0FF3318461437BD4699
:101FE00080BC704780B584B000AFF860B9607A609B
:101FF000FB68002B10D100BF20210A4801F0A8FC8B
:102000000346002BF8D0074801F093FC0346DAB2F0
:10201000BB681A70012301E04FF0FF3318461037F8
:10202000BD4680BD0044004080B582B000AF40F2A4
:1020300025511B4801F0A7FC0346002B2BD0184864
:1020400001F077FC0346FB71164B1B889BB27E2B7D
:102050001ED8144B1B889BB25A1C91B2114A118096
:102060001946114AFB795354FB790A2B13D10D4BB6
:102070001B889BB2012B0ED90A4B1B889BB2023BDB
:10208000094AD35C0D2B06D1084B01221A7002E0DD
:10209000044B00221A8000BF0837BD4680BD00BF38
:1020A0000048004008050020880400200A050020A0
:1020B00080B483B000AF7860054A7B6843F0BF63AB
:1020C00043F40033D36000BF0C37BD4680BC70477B
:1020D00000ED00E080B487B000AF786000237B6142
:1020E00000233B610F23FB607B68DB78002B3AD039
:1020F000274BDB68DB431B0A03F007037B617B692B
:10210000C3F104033B61FA687B6922FA03F3FB60C5
:102110007B685B781A463B6902FA03F37B617B6854
:102120009B781A46FB6813407A6913437B617B698D
:102130001B017B61174A7B681B787969C9B213441C
:102140000A4683F800237B681B7803F01F031149BC
:102150007A6812785209D2B21046012202FA03F3C9
:1021600041F820300FE07B681B7803F01F0309491A
:102170007A6812785209D2B2104601229A4000F1D0
:10218000200341F8232000BF1C37BD4680BC7047A8
:1021900000ED00E000E100E080B582B000AF7860C3
:1021A0007B68174A93420AD101214FF4007000F076
:1021B000A7FD00214FF4007000F0A2FD1CE07B6839
:1021C000104A93420AD101214FF4806000F098FD3B
:1021D00000214FF4806000F093FD0DE07B680A4A17
:1021E000934209D101214FF4004000F089FD002104
:1021F0004FF4004000F084FD00BF0837BD4680BDAD
:102200000024014000280140003C014080B485B01A
:1022100000AF786039600023FB600023FB727B68AD
:102220005B68FB60FB6823F4702323F48073FB601E
:102230003B681A683B681B791B021343FA68134317
:10224000FB607B68FA685A607B689B68FB60FA6891
:10225000164B1340FB603B68DA683B689B681A4387
:102260003B685B795B001343FA681343FB607B6850
:10227000FA689A607B68DB6AFB60FB6823F4700392
:10228000FB603B681B7C013BDAB2FB7A1343FB72B9
:10229000FB7A1B05FA681343FB607B68FA68DA6215
:1022A00000BF1437BD4680BC704700BFFDF7F1FF8B
:1022B00080B483B000AF78607B6800221A607B68CE
:1022C00000221A717B6800225A717B6800229A6092
:1022D0007B680022DA607B6801221A7400BF0C3729
:1022E000BD4680BC704780B483B000AF78600B46B9
:1022F000FB70FB78002B06D07B689B6843F00102E3
:102300007B689A6005E07B689B6823F001027B682C
:102310009A6000BF0C37BD4680BC704780B483B064
:1023200000AF78600B46FB70FB78002B06D07B6813
:102330009B6843F480727B689A6005E07B689B68C9
:1023400023F480727B689A6000BF0C37BD4680BC66
:10235000704780B483B000AF78607B689B6843F0BF
:1023600008027B689A6000BF0C37BD4680BC70478E
:1023700080B485B000AF78600023FB737B689B68F6
:1023800003F00803002B02D00123FB7301E00023BC
:10239000FB73FB7B18461437BD4680BC704780B486
:1023A00083B000AF78607B689B6843F004027B6871
:1023B0009A6000BF0C37BD4680BC704780B485B0C2
:1023C00000AF78600023FB737B689B6803F0040315
:1023D000002B02D00123FB7301E00023FB73FB7B86
:1023E00018461437BD4680BC704780B483B000AF38
:1023F00078600B46FB70FB78002B06D07B689B68EF
:1024000043F4A0027B689A6005E07B689B6823F434
:10241000A0027B689A6000BF0C37BD4680BC704745
:1024200080B485B000AF7860084611461A4603466E
:10243000FB700B46BB7013467B700023FB600023D0
:10244000BB60FB78092B23D97B68DB68FB60FB78DA
:10245000A3F10A0213465B001344072202FA03F3B6
:10246000BB60BB68DB43FA681340FB607978FB789C
:10247000A3F10A0213465B00134401FA03F3BB60A5
:10248000FA68BB681343FB607B68FA68DA601EE099
:102490007B681B69FB60FA7813465B0013440722D4
:1024A00002FA03F3BB60BB68DB43FA681340FB60CE
:1024B0007978FA7813465B00134401FA03F3BB60A2
:1024C000FA68BB681343FB607B68FA681A61BB78E3
:1024D000062B21D87B685B6BFB60BB785A1E1346CA
:1024E0009B0013441F2202FA03F3BB60BB68DB436B
:1024F000FA681340FB60F978BB785A1E13469B00BC
:10250000134401FA03F3BB60FA68BB681343FB6032
:102510007B68FA685A6347E0BB780C2B21D87B684C
:102520001B6BFB60BB78DA1F13469B0013441F2212
:1025300002FA03F3BB60BB68DB43FA681340FB603D
:10254000F978BB78DA1F13469B00134401FA03F3B2
:10255000BB60FA68BB681343FB607B68FA681A6368
:1025600022E07B68DB6AFB60BB78A3F10D021346B7
:102570009B0013441F2202FA03F3BB60BB68DB43DA
:10258000FA681340FB60F978BB78A3F10D0213469B
:102590009B00134401FA03F3BB60FA68BB68134362
:1025A000FB607B68FA68DA6200BF1437BD4680BC06
:1025B0007047000080B483B000AF78607B681A6811
:1025C0004FF6FE7313407A6813607B6800221A602E
:1025D0007B6800225A607B6800229A607B68002238
:1025E000DA607B68434A934206D1434B5B68424AB8
:1025F00043F00F03536077E07B68404A934206D173
:102600003D4B5B683C4A43F0F00353606CE07B68F1
:102610003B4A934206D1384B5B68374A43F47063B8
:10262000536061E07B68374A934206D1324B5B6866
:10263000314A43F47043536056E07B68324A934218
:1026400006D12D4B5B682C4A43F4702353604BE05A
:102650007B682E4A934206D1274B5B68264A43F497
:102660007003536040E07B68294A934206D1224BB5
:102670005B68214A43F07063536035E07B68254A0C
:10268000934206D1244B5B68234A43F00F03536007
:102690002AE07B68214A934206D11F4B5B681E4AA1
:1026A00043F0F00353601FE07B681D4A934206D15C
:1026B000194B5B68184A43F47063536014E07B68FD
:1026C000184A934206D1144B5B68134A43F4704393
:1026D000536009E07B68144A934205D10E4B5B6856
:1026E0000D4A43F47023536000BF0C37BD4680BCD5
:1026F000704700BF08000240000002401C0002407A
:102700003000024044000240580002406C00024089
:102710008000024008040240000402401C04024001
:1027200030040240440402405804024080B485B0A2
:1027300000AF786039600023FB607B681B68FB603A
:10274000FB6823F4FF4323F07003FB603B689A6847
:102750003B681B6A1A433B681B691A433B685B6909
:102760001A433B689B691A433B68DB691A433B6821
:102770005B6A1A433B689B6A1343FA681343FB6026
:102780007B68FA681A603B68DA687B685A603B6865
:102790001A687B689A603B685A687B68DA6000BF99
:1027A0001437BD4680BC704780B483B000AF7860FA
:1027B0000B46FB70FB78002B06D07B681B6843F050
:1027C00001027B681A6006E07B681A684FF6FE73A8
:1027D00013407A68136000BF0C37BD4680BC704759
:1027E00080B489B000AF786039600023FB610023BA
:1027F0003B610023BB610023FB6000237B6100235E
:10280000BB603B68DB7803F00F03FB613B68DB7860
:1028100003F01003002B05D03B689B781A46FB6938
:102820001343FB613B681B88DBB2002B44D07B6801
:102830001B687B610023BB6138E00122BB6902FA9F
:1028400003F3FB603B681B881A46FB6813403B613F
:102850003A69FB689A4226D1BB699B00FB600F2254
:10286000FB6802FA03F3BB60BB68DB437A69134081
:102870007B61FA69FB6802FA03F37A6913437B61AF
:102880003B68DB78282B05D10122BB699A407B6825
:102890005A6108E03B68DB78482B04D10122BB6910
:1028A0009A407B681A61BB690133BB61BB69072B26
:1028B000C3D97B687A691A603B681B88FF2B46D9AD
:1028C0007B685B687B610023BB613AE0BB690833CE
:1028D000012202FA03F3FB603B681B881A46FB687F
:1028E00013403B613A69FB689A4227D1BB699B0060
:1028F000FB600F22FB6802FA03F3BB60BB68DB439B
:102900007A6913407B61FA69FB6802FA03F37A691A
:1029100013437B613B68DB78282B05D1BB69083307
:1029200001229A407B685A613B68DB78482B05D1CD
:10293000BB69083301229A407B681A61BB69013385
:10294000BB61BB69072BC1D97B687A695A6000BF3C
:102950002437BD4680BC704780B483B000AF786038
:102960007B684FF6FF721A807B6802229A707B6840
:102970000422DA7000BF0C37BD4680BC704780B4BB
:1029800085B000AF78600B467B800023FB737B68CB
:102990009A687B881340002B02D00123FB7301E06F
:1029A0000023FB73FB7B18461437BD4680BC704781
:1029B00080B487B000AF78600B46FB7000233B61AA
:1029C0000023FB6000237B610023BB607B68002B3E
:1029D00003DA2E4BDB697B6102E02C4B5B687B6189
:1029E0007B681B0C03F00F03BB607B689BB23B61F1
:1029F0007B6803F44013B3F5401F0AD17B6923F0D1
:102A000070637B61214B5B68204A23F070635360E5
:102A100021E07B6803F48013002B0ED00322BB68F7
:102A200002FA03F3FB60FB68DB437A6913407B61C6
:102A30007B6943F070637B610DE07B685B0D1B017C
:102A40003A6902FA03F3DB437A6913407B617B69DD
:102A500043F070637B61FB78002B08D07B685B0DD3
:102A60001B013A6902FA03F37A6913437B617B68BD
:102A7000002B03DA054A7B69D36102E0034A7B69D4
:102A8000536000BF1C37BD4680BC7047000001404A
:102A900080B500AFFEF7ACFE8021024800F007FED3
:102AA00000BF80BD002C014080B485B000AF7860CD
:102AB0000023FB60094B5B68FB60FB6823F4404329
:102AC000FB60FA687B681343FB60044AFB68536051
:102AD00000BF1437BD4680BC704700BF00100240E5
:102AE00080B487B000AF786000237B6100233B6136
:102AF0000023FB600023BB604F4B5B6803F00C03BB
:102B00007B617B69082B11D07B69082B3AD87B69E4
:102B1000002B03D07B69042B04D033E07B68474A49
:102B20001A6033E07B68454A1A602FE0424B5B68CD
:102B300003F470133B61404B5B6803F48033FB602C
:102B40003B699B0C02333B61FB68002B06D13B6960
:102B50003B4A03FB02F27B681A6017E0364B5B6866
:102B600003F40033002B06D03B69354A03FB02F225
:102B70007B681A600AE03B69304A03FB02F27B681B
:102B80001A6003E07B682D4A1A6000BF2A4B5B681D
:102B900003F0F0037B617B691B097B61294A7B6938
:102BA00013441B78DBB2BB607B681A68BB68DA40F1
:102BB0007B685A60204B5B6803F4E0637B617B6950
:102BC0001B0A7B611F4A7B6913441B78DBB2BB6025
:102BD0007B685A68BB68DA407B689A60164B5B6812
:102BE00003F460537B617B69DB0A7B61154A7B6977
:102BF00013441B78DBB2BB607B685A68BB68DA4061
:102C00007B68DA600C4B5B6803F440437B617B6953
:102C10009B0B7B610C4A7B6913441B78DBB2BB6066
:102C20007B68DA68BB68B2FBF3F27B681A6100BFAD
:102C30001C37BD4680BC70470010024000127A006D
:102C400000093D00486700085867000880B483B059
:102C500000AF78600B46FB70FB78002B06D0094B69
:102C60005A6908497B6813434B6106E0054B5A6972
:102C70007B68DB43034913404B6100BF0C37BD4603
:102C800080BC70470010024080B483B000AF786011
:102C90000B46FB70FB78002B06D0094B9A6908495C
:102CA0007B6813438B6106E0054B9A697B68DB43C5
:102CB000034913408B6100BF0C37BD4680BC704791
:102CC0000010024080B483B000AF78600B46FB7008
:102CD000FB78002B06D0094BDA6908497B6813435F
:102CE000CB6106E0054BDA697B68DB43034913409F
:102CF000CB6100BF0C37BD4680BC7047001002405E
:102D000080B483B000AF78600B46FB70FB78002B7B
:102D100006D0094BDA6808497B681343CB6006E0AC
:102D2000054BDA687B68DB4303491340CB6000BF87
:102D30000C37BD4680BC70470010024080B485B09F
:102D400000AF786039600023FB817B681B88FB81C2
:102D50007B682E4A934213D07B682D4A93420FD052
:102D60007B68B3F1804F0BD07B682A4A934207D02F
:102D70007B68294A934203D07B68284A934208D152
:102D8000FB8923F07003FB813B685A88FB8913435E
:102D9000FB817B68224A93420CD07B68214A934294
:102DA00008D0FB8923F44073FB813B68DA88FB89F8
:102DB0001343FB817B68FA891A803B689A887B6899
:102DC0009A853B681A887B681A857B680F4A93420C
:102DD0000FD07B680E4A93420BD07B68124A934215
:102DE00007D07B68114A934203D07B68104A934214
:102DF00004D13B681B7A1A467B681A867B680122DD
:102E00009A8200BF1437BD4680BC7047002C014039
:102E1000003401400004004000080040000C004065
:102E200000100040001400400040014000440140F8
:102E30000048014080B485B000AF7860396000235D
:102E40007B810023FB810023BB817B681B8C9BB2B1
:102E500023F001039AB27B681A847B681B8CFB8188
:102E60007B689B88BB817B681B8B7B817B8923F084
:102E700070037B817B8923F003037B813B681A8885
:102E80007B8913437B81FB8923F00203FB813B6831
:102E90001A89FB891343FB813B685A88FB891343DA
:102EA000FB817B68244A93420FD07B68234A93427C
:102EB0000BD07B68224A934207D07B68214A934219
:102EC00003D07B68204A934223D1FB8923F0080377
:102ED000FB813B685A89FB891343FB81FB8923F003
:102EE0000403FB813B689A88FB891343FB81BB8900
:102EF00023F48073BB81BB8923F40073BB813B68DF
:102F00009A89BB891343BB813B68DA89BB89134328
:102F1000BB817B68BA899A807B687A891A833B680F
:102F2000DA887B689A867B68FA891A8400BF14372E
:102F3000BD4680BC704700BF002C014000340140FA
:102F400000400140004401400048014080B485B089
:102F500000AF7860396000237B810023FB81002370
:102F6000BB817B681B8C9BB223F010039AB27B68F9
:102F70001A847B681B8CFB817B689B88BB817B6888
:102F80001B8B7B817B8923F4E0437B817B8923F44A
:102F900040737B813B681B881B029AB27B89134379
:102FA0007B81FB8923F02003FB813B681B891B018C
:102FB0009AB2FB891343FB813B685B881B019AB281
:102FC000FB891343FB817B68224A934203D07B68D1
:102FD000214A93422BD1FB8923F08003FB813B687C
:102FE0005B891B019AB2FB891343FB81FB8923F0A8
:102FF0004003FB813B689B881B019AB2FB8913430A
:10300000FB81BB8923F48063BB81BB8923F400630C
:10301000BB813B689B899B009AB2BB891343BB81F0
:103020003B68DB899B009AB2BB891343BB817B68F9
:10303000BA899A807B687A891A833B68DA887B68C8
:103040001A877B68FA891A8400BF1437BD4680BC92
:10305000704700BF002C01400034014080B485B0AF
:1030600000AF7860396000237B810023FB8100235F
:10307000BB817B681B8C9BB223F480739AB27B6804
:103080001A847B681B8CFB817B689B88BB817B6877
:103090009B8B7B817B8923F070037B817B8923F071
:1030A00003037B813B681A887B8913437B81FB89FF
:1030B00023F40073FB813B681B891B029AB2FB89D6
:1030C0001343FB813B685B881B029AB2FB89134365
:1030D000FB817B68224A934203D07B68214A93425A
:1030E0002BD1FB8923F40063FB813B685B891B02C6
:1030F0009AB2FB891343FB81FB8923F48063FB8134
:103100003B689B881B029AB2FB891343FB81BB89F6
:1031100023F48053BB81BB8923F40053BB813B68FC
:103120009B891B019AB2BB891343BB813B68DB8936
:103130001B019AB2BB891343BB817B68BA899A8011
:103140007B687A899A833B68DA887B689A877B6890
:10315000FA891A8400BF1437BD4680BC704700BF8F
:10316000002C01400034014080B485B000AF78608D
:1031700039600023BB8100237B810023FB817B68B6
:103180001B8C9BB223F480539AB27B681A847B68B1
:103190001B8C7B817B689B88FB817B689B8BBB81C5
:1031A000BB8923F4E043BB81BB8923F44073BB811B
:1031B0003B681B881B029AB2BB891343BB817B8986
:1031C00023F400537B813B681B891B039AB27B89E4
:1031D00013437B813B685B881B039AB27B89134353
:1031E0007B817B68124A934203D07B68114A9342E9
:1031F0000AD1FB8923F48043FB813B689B899B01B7
:103200009AB2FB891343FB817B68FA899A807B68B9
:10321000BA899A833B68DA887B68A3F840207B6888
:103220007A891A8400BF1437BD4680BC704700BF3E
:10323000002C01400034014080B483B000AF7860BE
:1032400039603B681A883B685B8813439AB23B68D5
:103250009B8813439AB23B68DB8813439AB23B685E
:103260001B8913439AB23B685B8913439AB23B684C
:103270009B8913439AB27B68A3F8442000BF0C37A4
:10328000BD4680BC704780B483B000AF78600B4609
:10329000FB70FB78002B08D07B681B889BB243F047
:1032A00001039AB27B681A8007E07B681B889BB297
:1032B00023F001039AB27B681A8000BF0C37BD4629
:1032C00080BC704780B483B000AF78600B46FB7061
:1032D000FB78002B0CD07B68B3F844309BB26FEACC
:1032E00043436FEA53439AB27B68A3F8442009E052
:1032F0007B68B3F844309BB2C3F30E039AB27B6889
:10330000A3F8442000BF0C37BD4680BC704780B492
:1033100083B000AF78600B467B8013467B707B7870
:10332000002B08D07B689B899AB27B8813439AB2A2
:103330007B689A8109E07B689B899AB27B88DB4332
:103340009BB213409AB27B689A8100BF0C37BD468E
:1033500080BC704780B483B000AF78600B46FB70D0
:10336000FB78002B08D07B681B889BB243F080035E
:103370009AB27B681A8007E07B681B889BB223F0B7
:1033800080039AB27B681A8000BF0C37BD4680BCB0
:10339000704780B485B000AF78600B467B80002317
:1033A000FB817B681B8BFB81FB8923F00803FB817E
:1033B000FA897B881343FB817B68FA891A8300BFF3
:1033C0001437BD4680BC704780B485B000AF7860CC
:1033D0000B467B800023FB817B681B8BFB81FB8979
:1033E00023F40063FB817B881B029AB2FB891343A1
:1033F000FB817B68FA891A8300BF1437BD4680BC05
:10340000704780B485B000AF78600B467B800023A6
:10341000FB817B689B8BFB81FB8923F00803FB818D
:10342000FA897B881343FB817B68FA899A8300BF02
:103430001437BD4680BC704780B485B000AF78605B
:103440000B467B800023FB817B689B8BFB81FB8988
:1034500023F40063FB817B881B029AB2FB89134330
:10346000FB817B68FA899A8300BF1437BD4680BC14
:10347000704780B485B000AF78600B467B80134600
:103480003B800023FB817B88012202FA03F3FB814E
:103490007B681B8C9AB2FB89DB439BB213409AB2C8
:1034A0007B681A847B681B8C9AB239887B8801FA06
:1034B00003F39BB213439AB27B681A8400BF14379C
:1034C000BD4680BC704780B485B000AF78600B46C5
:1034D0007B8013463B800023FB817B88042202FA19
:1034E00003F3FB817B681B8C9AB2FB89DB439BB2A5
:1034F00013409AB27B681A847B681B8C9AB2398815
:103500007B8801FA03F39BB213439AB27B681A8457
:1035100000BF1437BD4680BC704780B485B000AF93
:1035200078600B467B8013463B800023FB600023C2
:103530007B817B68FB60FB681833FB607B88012222
:1035400002FA03F37B817B681B8C9AB27B89DB4395
:103550009BB213409AB27B681A847B88002B02D0FE
:103560007B88082B13D17B885B089BB21A46FB68CB
:103570001344FB60FB681A68FB6822F070021A6053
:10358000FB6819683A88FB680A431A6018E07B8870
:10359000043B9BB25B089BB21A46FB681344FB607A
:1035A000FB681A68FB6822F4E0421A60FB681A683C
:1035B0003B881B029BB21946FB680A431A6000BF96
:1035C00000BF1437BD4680BC704780B483B000AFE5
:1035D00078600B467B807B687A889A8600BF0C37C0
:1035E000BD4680BC704780B483B000AF78600B46A6
:1035F0007B807B687A881A8700BF0C37BD4680BC09
:10360000704780B483B000AF78600B467B807B68E6
:103610007A889A8700BF0C37BD4680BC704780B45B
:1036200083B000AF78600B467B807B687A88A3F814
:10363000402000BF0C37BD4680BC704780B483B0CB
:1036400000AF78600B467B807B88DB439AB27B6857
:103650001A8200BF0C37BD4680BC704780B485B06D
:1036600000AF78600B467B800023FB730023BB8197
:1036700000237B817B681B8A9AB27B881340BB81C5
:103680007B689B899AB27B8813407B81BB89002B26
:1036900005D07B89002B02D00123FB7301E00023BE
:1036A000FB73FB7B18461437BD4680BC704780B463
:1036B00083B000AF78600B467B807B88DB439AB297
:1036C0007B681A8200BF0C37BD4680BC7047000083
:1036D00080B58CB000AF786039600023FB620023B6
:1036E000BB6200237B6200233B620023FB617B689B
:1036F000FB617B681B8A9BB2FB62FA6A4CF6FF7324
:103700001340FB623B68DB881A46FB6A1343FB628B
:10371000FB6A9AB27B681A827B689B899BB2FB62C8
:10372000FA6A4EF6F3131340FB623B689A883B68D3
:103730001B8913439AB23B685B8913439BB21A46B9
:10374000FB6A1343FB62FB6A9AB27B689A817B68CF
:103750009B8A9BB2FB62FA6A4FF6FF431340FB62FF
:103760003B689B891A46FB6A1343FB62FB6A9AB269
:103770007B689A8207F108031846FFF7B1F9FB69E5
:103780002E4A934202D17B69BB6201E03B69BB6276
:103790007B689B899BB21BB2002B0CDABA6A13467A
:1037A0009B0013449A001A443B681B685B00B2FB01
:1037B000F3F37B620BE0BA6A13469B0013449A0052
:1037C0001A443B681B689B00B2FBF3F37B627B6A85
:1037D0001B4AA2FB03235B091B01FB62FB6A1B095B
:1037E000642202FB03F37A6AD31A3B627B689B89EB
:1037F0009BB21BB2002B0CDA3B6ADB003233104A5F
:10380000A2FB03235B0903F00703FA6A1343FB627D
:103810000BE03B6A1B013233094AA2FB03235B091D
:1038200003F00F03FA6A1343FB62FB6A9AB27B68E8
:103830001A8100BF3037BD4680BD00BF003801404F
:103840001F85EB5180B483B000AF78600B46FB70EE
:10385000FB78002B08D07B689B899BB243F4005314
:103860009AB27B689A8107E07B689B899BB223F4BC
:1038700000539AB27B689A8100BF0C37BD4680BC6A
:10388000704780B487B000AF78600B467B801346EA
:103890007B7000233B610023FB600023BB6000239F
:1038A0007B617B687B617B88DBB25B09DBB23B6160
:1038B0007B8803F01F03FB600122FB6802FA03F31D
:1038C000BB603B69012B03D17B690C337B6109E051
:1038D0003B69022B03D17B6910337B6102E07B697A
:1038E00014337B617B78002B06D07B6919687B6978
:1038F000BA680A431A6006E07B691968BB68DA4354
:103900007B690A401A6000BF1C37BD4680BC704707
:1039100080B483B000AF78600B467B807B88C3F3B4
:1039200008039AB27B689A8000BF0C37BD4680BC02
:10393000704780B483B000AF78607B689B889BB28F
:10394000C3F308039BB218460C37BD4680BC7047D2
:1039500080B485B000AF78600B467B800023FB739A
:103960007B681B889AB27B8813409BB2002B02D0E5
:103970000123FB7301E00023FB73FB7B1846143724
:10398000BD4680BC704780B487B000AF78600B46FE
:103990007B800023FB6000237B610023BB6000234E
:1039A000FB747B88DBB25B09DBB2BB607B8803F016
:1039B0001F037B6101227B6902FA03F37B61BB6811
:1039C000012B07D17B689B899BB21A467B69134008
:1039D0007B6111E0BB68022B07D17B681B8A9BB21D
:1039E0001A467B6913407B6106E07B689B8A9BB229
:1039F0001A467B6913407B617B881B0A9BB2FB6084
:103A00000122FB6802FA03F3FB607B681B889BB210
:103A10001A46FB681340FB607B69002B05D0FB68EE
:103A2000002B02D00123FB7401E00023FB74FB7C1C
:103A300018461C37BD4680BC7047000080B500AFFB
:103A400042F21070FDF7AEF9FEF7A4F91E4B012209
:103A50001A701D4B01225A71FDF7BEF9FDF7EAF904
:103A6000FDF724FAFDF7D0F9FDF702FAFDF7A4FB04
:103A7000FDF798F842F21070FDF794F9FDF72AF877
:103A800042F21070FDF78EF9FDF710FE42F2107051
:103A9000FDF788F9FEF738F842F21070FDF782F969
:103AA000FDF7B6F842F21070FDF77CF9FDF7A2FAC7
:103AB0004FF4E130FEF7CEF90448FEF7B3F9FEF714
:103AC0008BF8FEF71FF9FAE77C040020004800405D
:103AD0000C480D490D4A002302E0D458C450043369
:103AE000C4188C42F9D30A4A0A4C002301E013603F
:103AF0000432A242FBD300F011F800F0C3FFFFF73D
:103B00009DFF7047000000208C020020E46A00083E
:103B10008C0200205C060020FEE7000080B500AFAC
:103B2000154B1B68144A43F001031360124B5A688B
:103B30001149124B13404B600F4B1B680E4A23F088
:103B4000847323F4803313600B4B1B680A4A23F4FD
:103B500080231360084B5B68074A23F4FE0353601D
:103B6000054B4FF41F029A6000F00CF8044B4FF025
:103B700000629A6000BF80BD001002400000FFF8A4
:103B800000ED00E080B500AF00F002F800BF80BD9E
:103B900080B483B000AF00237B6000233B603A4BCE
:103BA0001B68394A43F480331360374B1B6803F4B6
:103BB00000333B607B6801337B603B68002B03D1A3
:103BC0007B68B3F5A06FF0D12F4B1B6803F4003373
:103BD000002B02D001233B6001E000233B603B68E7
:103BE000012B4BD1294B1B68284A43F0100313606B
:103BF000264B1B68254A23F003031360234B1B68E5
:103C0000224A43F0020313601F4B1F4A5B68536054
:103C10001D4B1D4A5B6853601B4B5B681A4A43F49B
:103C200080635360184B5B68174A23F47C1353601E
:103C3000154B5B68144A43F4E8135360124B1B683E
:103C4000114A43F08073136000BF0F4B1B6803F0F1
:103C50000073002BF9D00C4B5B680B4A23F0030375
:103C60005360094B5B68084A43F00203536000BF8E
:103C7000054B5B6803F00C03082BF9D100BF0C3730
:103C8000BD4680BC704700BF0010024000200240CB
:103C9000002B2DE9F0471D46BBBF03F100431D4635
:103CA00000232D2388B01446B8BF1446129A109EE4
:103CB0001370149BDDF84CA023F02008B8F1460FD8
:103CC00005D0B8F1450F00D10136022300E00323EF
:103CD00007AA049206AACDE902A2CDE9003622463F
:103CE0002B4600F08DFFB8F1470F074619D1119B05
:103CF000DB070ED500EB06090022002320462946EB
:103D0000FCF732FE08B1CDF81C903022079B4B45E2
:103D10001ED33846079B159ADB1B136008B0BDE81D
:103D2000F087B8F1460F00EB0609E5D10378302B98
:103D30000AD10022002320462946FCF715FE18B9B7
:103D4000C6F10106CAF80060DAF800309944D3E7FA
:103D5000591C07911A70D9E7F7B50029B6BF2D2372
:103D60002B23494209290270437029DD0DF1070315
:103D70001D460A27B1FBF7F61A4607FB1614303426
:103D800002F8014C0C46632C314603F1FF33F1DCA1
:103D90003031941E03F8011C2346411CAB420AD368
:103DA0000DF109039B1AAC4288BF00230233034480
:103DB000181A03B0F0BD13F8016B01F8016FEDE7BD
:103DC000302330318370C170031DF1E72DE9F04FCE
:103DD00091B00C46DDF8688016461F46054600F097
:103DE00007FE036818460893FCF792F900230E9328
:103DF000D8F800300990073323F0070303F10802D5
:103E000094F818A0D4F800B0C8F80020D3E90089CD
:103E100029F000430B93CDF828804FF0FF32DDE905
:103E20000A01C4E912899C4BFCF7D0FD70BBDDE9A7
:103E30000A014FF0FF32984BFCF7AAFD30BB00227D
:103E4000002340464946FCF799FD10B12D2384F824
:103E50004330924A924BBAF1470F8CBF9046984636
:103E600003234FF0000923612BF004032360334642
:103E70002146284600970FAA00F0D4F9013040F0FF
:103E800090804FF0FF3011B0BDE8F08F42464B46B6
:103E900040464946FCF79AFD48B14B46002BB8BF57
:103EA0002D23804AB8BF84F843307F4BD3E7636843
:103EB0000AF0DF015A1C3FD10623636000224BF455
:103EC0008063236006920EAACDE904A20DAA039294
:103ED0000DF13302CDE90132636842460093284672
:103EE0004B460A91FFF7D4FE0A99804647290D995F
:103EF00028D1C81C02DB6368994240DDAAF1020A9E
:103F00005FFA8AFA5246013904F150000D91FFF729
:103F100023FF0E9A81461318012A236102DC2268CE
:103F2000D20701D5013323619DF83330002B9ED099
:103F30002D2384F843309AE74729BFD1002BBDD108
:103F40000123BAE7BAF1650FDCD9BAF1660F18D1CF
:103F5000002963680BDD216113B92268D00702D5FF
:103F600001330B4423614FF00009A165DCE713B96D
:103F70002268D20701D50233F4E70123F2E74FF0BC
:103F8000670A0E9B994205DB23682161D807EAD5B1
:103F90004B1CE7E70029CCBF0122C1F10202134408
:103FA000E0E723685A0507D423694246314628468C
:103FB000B84701302BD164E7BAF1650F40F2DC80DD
:103FC000D4E9120100220023FCF7CEFC002833D0F4
:103FD000012331462846354AB84701303FF451AFF6
:103FE000DDE90D38434502DB2368D8070FD5DDE94D
:103FF000082331462846B84701303FF442AF4FF01E
:10400000000908F1FF3804F11A0AC84509DC2368E1
:104010009B0700F10281E0680F9B9842B8BF1846E9
:1040200031E70123524631462846B84701303FF474
:1040300028AF09F10109E8E70D9B002B38DC0123CB
:1040400031462846194AB84701303FF41AAFDDE936
:104050000D3959EA030302D12368D907D7D5DDE921
:10406000082331462846B84701303FF40AAF4FF0E5
:10407000000A04F11A0B0D9B5B42534501DC4B46D1
:1040800093E701235A4631462846B84701303FF4AA
:10409000F8AE0AF1010AEEE7FFFFEF7F6067000864
:1040A0005C67000868670008646700086C670008C0
:1040B000A36DDDF838A05345A8BF5346002B9946A1
:1040C00036DC4FF0000B29EAE97904F11A02A36DFE
:1040D0000A93A3EB09035B4531DC0D9B9A453ADC5F
:1040E0002368DA0737D40D9BAAEB03090A9BAAEBD6
:1040F00003039945A8BF9946B9F1000F33DC4FF08F
:10410000000829EAE97904F11A0B0D9BAAEB0303D5
:10411000A3EB090343457FF77AAF01235A463146A3
:104120002846B84701303FF4ACAE08F10108ECE78F
:10413000424631462846B8470130C2D1A1E60123A4
:10414000314628460A92B84701303FF49AAE0A9A9F
:104150000BF1010BBBE73146DDE908232846B847E0
:104160000130C0D18DE60A9A4B463146284642447A
:10417000B8470130C3D184E6DDF838A0BAF1010FA9
:1041800001DCDB0736D50123424631462846B847D5
:1041900001303FF476AEDDE9082331462846B847C2
:1041A00001303FF46EAED4E91201002200230AF17F
:1041B000FF3AFCF7D9FBC0B9534608F1010231467A
:1041C0002846B84701300CD15BE601235A463146F8
:1041D0002846B84701303FF454AE08F10108D045F5
:1041E000F3DB4B4604F15002E0E64FF0000804F127
:1041F0001A0BF4E701234246E1E701234A46314620
:104200002846B84701303FF43CAE08F10108E368A6
:104210000F995B1A4345F0DCFDE64FF0000804F10E
:104220001909F4E72DE9F047164698468A680B69A4
:1042300007469342B8BF1346336091F843200C46BB
:10424000DDF820900AB1013333602368990642BF3C
:10425000336802333360256815F0060506D104F192
:10426000190AE36832689B1AAB422BDC94F843309E
:104270002268003B18BF0123920630D441463846DD
:1042800004F14302C847013023D02368226903F0B8
:104290000603042B14BF002533684FF0000608BF47
:1042A000E56804F11A0408BFED1A54F8123C08BF7F
:1042B00025EAE5759342C4BF9B1AED18B5421AD1A1
:1042C000002008E00123524641463846C8470130E5
:1042D00003D14FF0FF30BDE8F0870135C1E7302052
:1042E000E11881F843005A1C94F845102244023327
:1042F00082F84310C2E70123224641463846C847A8
:104300000130E6D00136D9E72DE9FF470F7E91460F
:10431000782F80460C469A460C9E01F1430207D83E
:10432000622F0AD8002F00F0D180582F00F0B880FB
:1043300004F1420684F842703AE0A7F16303152BBA
:10434000F6D801A151F823F0A1430008B5430008B5
:10435000314300083143000831430008314300086D
:10436000B5430008314300083143000831430008D9
:1043700031430008B3440008DF4300086D440008DF
:104380003143000831430008D54400083143000898
:10439000DF4300083143000831430008754400083A
:1043A00033681A1D1B68326004F1420684F84230FB
:1043B00001239CE033682068191D3160060601D591
:1043C0001D6803E04506FBD5B3F90050002D03DA64
:1043D0002D236D4284F843300A23584811E02168A8
:1043E0003368080653F8045B02D4490648BFADB2EF
:1043F0006F2F336014BF0A2308235048002184F82C
:1044000043106668002EA66005DB21682E4321F06C
:10441000040121604BD01646B5FBF3F103FB1157A5
:10442000C75D06F8017D2F46BB420D46F4D9082B27
:104430000BD12368DF0708D5236961689942DEBF85
:10444000302306F8013C06F1FF36921B22614B46F1
:1044500021464046CDF800A003AAFFF7E3FE013055
:104460004AD14FF0FF3004B0BDE8F087236843F035
:10447000200323607827324884F845702368316828
:104480001F0651F8045B02D45F0648BFADB231602D
:10449000D90744BF43F0200323601DB11023ADE7CB
:1044A0002648E9E7236823F020032360F6E7164651
:1044B000BDE733682568181D616930602E061B68EA
:1044C00001D5196002E06806FBD519800023164665
:1044D0002361BCE7336800211A1D32601E686268E0
:1044E000304600F0F6FA08B1801B60606368236113
:1044F000002384F84330AAE7324649464046236900
:10450000D0470130ADD023689B0713D4E068039BEC
:104510009842B8BF1846A6E70123324649464046AE
:10452000D04701309DD00135E36803995B1AAB4257
:10453000F2DCEBE7002504F11906F5E76E670008E9
:104540007F670008002310B50446C0E90033C0E9C6
:104550000433836081814366C281836119460822E6
:104560005C3000F03DFA0D4B246263620C4BA36299
:104570000C4BE3620C4B23630C4B9C4206D003F1C3
:104580006802944202D0D0339C4205D104F1580015
:10459000BDE8104000F09ABA10BD00BF31480008D5
:1045A000534800088B480008AF4800080C0500205D
:1045B000024A0349034800F069B800BFC400002064
:1045C000ED630008D400002041680C4B10B59942FF
:1045D000044601D001F00AFFA168094B994202D0BC
:1045E000204601F003FFE168064B994204D02046C3
:1045F000BDE8104001F0FABE10BD00BF0C05002060
:1046000074050020DC05002010B50B4B0B4C0C4A48
:1046100020461A6004210022FFF794FF04F168008D
:1046200001220921FFF78EFF04F1D0000222BDE82C
:1046300010401221FFF786BF440600200C05002021
:10464000B1450008014800F042BA00BF4D06002005
:10465000014800F03DBA00BF4D06002010B50446E9
:10466000FFF7F0FF236A1BB1BDE81040FFF7F0BF72
:10467000044B2362044B1B68002BF5D1FFF7C4FFEA
:10468000F2E700BFC9450008440600202DE9F843C1
:104690000746884614460026D4E90195B9F1010978
:1046A00005D52468002CF7D13046BDE8F883AB89E6
:1046B000012B07D9B5F90E30013303D0294638460E
:1046C000C04706436835E9E72DE9F7431D46574BD8
:1046D00004461F680E46904627B13B6A13B9384618
:1046E000FFF7BCFFB8F1020F06D0B8F1010F00F2DE
:1046F0009A80002DC0F29780636ED90705D4A389F4
:104700009A0502D4A06D00F0E2F92146384601F086
:104710006DFE616B41B104F14403994202D0384609
:1047200001F02CF8002363630023A3616360A38975
:104730001B0603D53846216901F020F8A389B8F19A
:10474000020F23F44A6323F00303A38161D001AB7A
:104750006A462146384601F071FEA3891843A081BC
:104760002DBB009D284601F051F80646002852D185
:10477000DDF80090A94540D14FF0FF35B4F90C3079
:1047800043F00202A2810022A26004F147022260EB
:10479000226101226261626ED60704D4980502D4B8
:1047A000A06D00F095F9284603B0BDE8F083002E17
:1047B000D8D03B6A13B93846FFF750FFB8F1010F64
:1047C00008BFA389C4E9046504BF43F00103A381C2
:1047D000B4F90C30266013F008021ED0D90741BF8F
:1047E00000226D42A260A56158BFA560626ED2072B
:1047F00001D49B0513D50025D5E7484601F006F8FE
:1048000006460028B8D0A3894D4643F08003A38113
:10481000CFE70025B2E7A946F5E7A260E6E7A06D7D
:1048200000F056F9E7E74FF0FF35BCE7D000002075
:1048300010B50C46B1F90E1000F000F90028ABBF1E
:10484000636DA3891B1823F48053ACBF6365A381F8
:1048500010BD2DE9F0411F468B890546DB050C464E
:10486000164605D502230022B1F90E1000F0D4F847
:10487000A389324623F48053A38128463B46B4F9EA
:104880000E10BDE8F04100F0EBB810B50C46B1F9E0
:104890000E1000F0C1F8431CA38915BF606523F416
:1048A000805343F48053A38118BFA38110BDB1F995
:1048B0000E1000F0A1B8F8B50E461446054618B122
:1048C000036A0BB9FFF7CAFEA369A360A3891A079D
:1048D00001D5236943B92146284600F02BF818B1C9
:1048E0004FF0FF373846F8BD23682269F6B2981AB0
:1048F00063693746834205DC2146284601F076FD90
:104900000028EDD1A368013BA36023685A1C2260F4
:104910001E706269431C9A4204D0A389DB07E1D56B
:104920000A2EDFD12146284601F060FD0028D9D0AB
:10493000D6E7000038B5294B054618680C4618B173
:10494000036A0BB9FFF78AFEB4F90C30190722D4B9
:10495000DA0607D409222A6043F040034FF0FF3003
:10496000A38133E0580712D5616B41B104F14403D0
:10497000994202D0284600F001FF00236363A38917
:1049800023F02403A3810023636023692360A389A8
:1049900043F00803A38123694BB9A38903F420736F
:1049A000B3F5007F03D02146284601F06CFDB4F931
:1049B0000C3013F001020AD00022A2606269524258
:1049C000A261226942B913F08000C5D138BD9907B0
:1049D00058BF6269A260F4E70020F7E7D00000202A
:1049E00003460244934200D1704703F8011BF9E7E4
:1049F000004870471002002038B50023054D0446DA
:104A000008462B60FDF7CEFA431C02D12B6803B198
:104A1000236038BD4806002038B5044608461146D4
:104A20000022054D2A601A46FDF7CFFA431C02D139
:104A30002B6803B1236038BD4806002038B5044612
:104A4000084611460022054D2A601A46FDF7CAFAAB
:104A5000431C02D12B6803B1236038BD48060020F7
:104A600038B50446084611460022054D2A601A460C
:104A7000FDF75AFA431C02D12B6803B1236038BDFD
:104A80004806002070B500260C4D0D4C641BA41088
:104A9000A64209D101F04CFE00260A4D0A4C641BC7
:104AA000A410A64205D170BD55F8043B98470136C5
:104AB000EEE755F8043B98470136F2E7DC6A000858
:104AC000DC6A0008DC6A0008E06A0008704770478A
:104AD0007047034610B5C9B202449342184601D14B
:104AE000002003E0047801338C42F6D110BD2DE99B
:104AF000F74F03690C690746A3427EDB013CA30024
:104B000000F1140501F11408009305EB84030193EF
:104B100058F8243055F8242001339A42B2FBF3F6BA
:104B200008EB84092ED34FF0000AC446AE46D346A4
:104B30005CF8043B98B206FB00A01B0C020C06FBC1
:104B40000323DEF8002080B292B2121A5A44DEF833
:104B500000004FEA134A9BB2C3EB224303EB10431E
:104B600092B242EA0342E1454FEA234B4EF8042B4E
:104B7000DED2009BEB582BB9019B043B9D421A46A9
:104B80002FD33C61384601F069F9002825DB29461E
:104B9000002058F8042BD1F800C01FFA82FE1FFA3B
:104BA0008CF3A3EB0E030344120CC2EB234202EB83
:104BB0001C429BB243EA0243C1454FEA224041F8FE
:104BC000043BE6D255F8242005EB840322B9043BCC
:104BD0009D421A460BD33C610136304603B0BDE816
:104BE000F08F1268043B002ACBD1013CC6E7126863
:104BF000043B002AEFD1013CEAE70020EEE7000089
:104C00002DE9F04F14461D46C76997B08346CDE99C
:104C10000445239E7FB9102000F0F8FD0246CBF832
:104C20001C0020B9EF21A84BA84801F0A9FCC0E95D
:104C300001770760C760DBF81C30196859B15A6802
:104C4000012393404A608B60584600F0D5FE002255
:104C5000DBF81C301A602B1EAFBF0023012223F0AB
:104C600000430593A8BF3360DDF81480984BB8BFAC
:104C7000326033EA080312D142F20F73229A1360B2
:104C8000C8F31303234300F04685249BDFF844A2B6
:104C9000002B00F048850AF1030300F042BDDDE976
:104CA0000423CDE90C23DDE90C0100220023FBF7EE
:104CB0005BFE074658B10123229A1360249B13B16F
:104CC000854B249A1360DFF814A200F02CBD14ABBE
:104CD000019315AB00935846DDE90C2301F06EF902
:104CE000C8F30A568146002E77D0DDE90C010D9BF2
:104CF000A6F2FF36C3F3130343F07F5343F440138C
:104D0000129719460022764BFBF70EFA68A3D3E9F7
:104D10000023FBF7C1FB68A3D3E90023FBF706FAE6
:104D2000044630460D46FBF74DFB65A3D3E900234F
:104D3000FBF7B2FB02460B4620462946FBF7F6F985
:104D400004460D46FBF758FE002207460023204686
:104D50002946FBF713FE40B13846FBF733FB2246EA
:104D60002B46FBF701FE00B9013F162F53D8DDE9B2
:104D70000C015C4B03EBC703D3E90023FBF7FEFDFB
:104D800000284AD00023013F0F93149B9B1B5A1EFF
:104D900046BFC3F1010800234FF00008099248BF45
:104DA0000993002F3BDB099B0E973B44099300239B
:104DB0000A93209B092B63D8052BC4BF043B209387
:104DC000209BC8BF0024A3F10203D8BF0124032BFA
:104DD00062D8DFE803F05153362BDDE914631E443B
:104DE00006F23243202BC1BFC3F1400308FA03F897
:104DF00006F2124324FA03F3D6BFC3F1200348EAB4
:104E0000030004FA03F0FBF7CDFA0122A1F1F873D5
:104E1000013E129275E70123B6E70F90B5E77B429A
:104E20000A930023A8EB07080E93C2E701230B9314
:104E3000219BFB1808930133012B0393B8BF012377
:104E400006E001230B93219B002B28DD089303939D
:104E500000210422DBF81C0002F114059D4223D935
:104E60004160584600F088FD824600283ED1024647
:104E700040F2AF111C4BD7E60023E3E70023D6E74F
:104E8000012400230B9420934FF0FF33002208935A
:104E9000039312232192DBE701230B93F4E7012311
:104EA0001A4608930393F5E701315200D4E700BF97
:104EB00061436F63A787D23FB3C8608B288AC63F20
:104EC000FB799F501344D33F9D670008B4670008E7
:104ED0000000F07F996700086D6700086C670008A4
:104EE0000000F83F086900080D680008DBF81C3076
:104EF0001860039B0E2B00F2A180002C00F09E8016
:104F0000002F33DD9C4B07F00F0203EBC203F805C3
:104F1000D3E90034CDE906344FEA271416D5DDE98C
:104F20000C01964B0326D3E90823FBF7DFFBCDE901
:104F3000040104F00F04914D54B9DDE90623DDE9C5
:104F40000401FBF7D3FBCDE9040128E00226F2E7D8
:104F5000E10708D5DDE90601D5E90023FBF79CFA56
:104F6000CDE90601013664100835E5E700F0AF80B1
:104F7000DDE90C017C42804B04F00F0203EBC2031D
:104F8000D3E90023FBF788FA02260023CDE90401C8
:104F90007A4D2411002C40F08F80002BD3D1DDE915
:104FA00004450F9B002B00F09480002220462946E8
:104FB000734BFBF7E3FC002800F08B80039B002B76
:104FC00000F08780089B002B34DD7B1E2046069373
:104FD000002229466B4BFBF75FFACDE90401089CE0
:104FE00001363046FBF7EEF9DDE90423FBF754FA0E
:104FF0000022654BFBF79AF80546A1F15076002C8C
:105000006AD1DDE904010022604BFBF78DF802460E
:105010000B46CDE904232A463346FBF7CDFC002896
:1050200040F08682DDE904012A4606F10043FBF7E1
:10503000A5FC38BBDDE90C34CDE90434159B002B0D
:10504000C0F258810E2F00F355814B4B03EBC70381
:10505000D3E90034CDE90634219B002B80F2E580B2
:10506000039B002B00F3E1800CD1DDE90601002257
:10507000464BFBF711FADDE90423FBF793FC00280C
:1050800000F0548200242546219B5646DB430693BC
:1050900000272146584600F0AFFC002D00F0BD80EF
:1050A0002FB1AF4203D03946584600F0A5FC29463F
:1050B000584600F0A1FCB0E0E20705D5D5E9002391
:1050C000FBF7EAF9012301366410083562E702268E
:1050D00065E7039C069784E7274B0B9903EBC40312
:1050E00053E902235444002954D000202849FBF7F7
:1050F000FDFA33462A46FBF717F85646CDE910016C
:10510000DDE90401FBF778FC0546FBF75BF9024695
:105110000B46DDE90401FBF707F802460B46303584
:10512000CDE90423DDE9102306F8015BFBF726FC3B
:10513000002872D1DDE9042300201149FAF7F4FFB9
:10514000DDE91023FBF71AFC002840F0B480A642EA
:105150003FF470AFDDE9100100220A4BFBF79CF928
:105160000022CDE91001DDE90401064BFBF794F9BB
:10517000CDE90401C4E700BF08690008E068000841
:105180000000F03F0000244000001C4000001440DC
:105190000000E03F31462846FBF77EF95646CDE950
:1051A00010011394DDE90401FBF726FC0546FBF72B
:1051B00009F902460B46DDE90401FAF7B5FF02469C
:1051C0000B46303506F8015BA642CDE904234FF0CB
:1051D000000224D1DDE91001B14BFAF7A7FF024626
:1051E0000B46DDE90401FBF7E7FB002863D1DDE9AD
:1051F00010230020AA49FAF797FF02460B46DDE983
:105200000401FBF7BBFB00283FF414AF139E731E91
:10521000139316F8013C302BF8D0069F3BE0A14BCE
:10522000FBF73AF9CDE90401BCE75646DDE9044550
:10523000DDE9062320462946FBF758FAFBF7DCFB9D
:105240008046FBF7BFF8DDE90623FBF725F90246A8
:105250000B4620462946FAF767FF08F13004039D04
:1052600006F8014BA6EB0A04A54202460B4634D1D0
:10527000FAF75CFFDDE9062304460D46FBF79CFBCD
:10528000C0B9DDE9062320462946FBF76DFB10B1C6
:1052900018F0010F0ED14946584600F0ADFB00232F
:1052A0003370229B01371F60249B002B00F03B8250
:1052B0001E6038E2069733461E4613F8012D392A40
:1052C00007D19A45F8D1069A0132069230228AF81F
:1052D00000201A7801321A709FE70022714BFBF709
:1052E000DBF80022002304460D46FBF73DFB0028B7
:1052F0009ED0D0E70B9A002A00F0E080209A012A85
:1053000000F3BF80129A002A00F0B78003F2334303
:105310000A9C4646099A01211A4458469844099223
:1053200000F01EFC05465EB1099B002B08DDB34270
:10533000A8BF3346099AA8EB0308F61AD31A0993B3
:105340000A9BF3B10B9B002B00F0BC808CB129466B
:105350002246584600F0BCFC4A46014605465846DF
:1053600000F014FC49460690584600F045FB069BA9
:1053700099460A9B1A1B04D04946584600F0A8FCDF
:1053800081460121584600F0EBFB0E9B0446002BA2
:1053900000F0CD811A460146584600F099FC209B4A
:1053A0000446012B00F39480049B002B40F08C807A
:1053B000059BC3F31303002B40F08880059B23F06B
:1053C00000431B0D1B052BB1099B08F1010801339C
:1053D000099301230A930E9B002B00F0AE812369F1
:1053E00004EB8303186900F06FFBC0F12000099BF8
:1053F000184410F01F0076D0C0F12003042B6ADDA2
:10540000099BC0F11C000344804406440993B8F191
:10541000000F05DD49464246584600F0B3FC814680
:10542000099B002B05DD21461A46584600F0AAFCD0
:1054300004460F9B002B58D02146484600F00EFD35
:10544000002852DA7B1E494606930A22002358465A
:1054500000F0F4FA0B9B8146002B00F070810023D2
:1054600029460A22584600F0E9FA089B0546002B17
:1054700066DC209B022B40DC62E0149BC3F1360308
:1054800046E7039B5C1E0A9BA3420DDB1C1B039B90
:10549000002BBFF63EAF039BA8EB0306002339E7C2
:1054A0000000E03F000024400A9B0E9AE31A1A44D1
:1054B0000A9446460024039B0E922BE746460A9C1C
:1054C0000B9D30E70A9A57E7002383E7049B81E7A7
:1054D00000230A9383E79AD0099A1C331A4498440C
:1054E0001E44099293E70346F6E7039B0697002BB9
:1054F00020DC0893209B022B1EDD089B002B7FF4F1
:10550000C3AD21460522584600F098FA01460446EC
:10551000484600F0A3FC00287FF7B6AD312356467D
:1055200006F8013B069B01330693B1E5039C069701
:105530002546F3E7039B08930B9B002B00F00381A8
:10554000002E05DD29463246584600F01BFC054674
:105550000A9B002B5AD05846696800F00DFA06469F
:1055600028B9024640F2EF21824BFFF75DBB2A6962
:1055700005F10C01023292000C3000F0F3FF012221
:105580003146584600F0FEFB2F4605460AF101035E
:105590000393089B53440B93049B03F001030A936A
:1055A000039B2146013B48460493FFF7A0FA394686
:1055B000089000F13008484600F050FC2A46099057
:1055C0002146584600F066FCC268064602BB01460A
:1055D000484600F043FC0246314658460C9200F023
:1055E0000BFA209B0C9A039E42EA03010A9B194383
:1055F00010D1B8F1390F29D0099B002B02DD089B8F
:1056000003F13108049B83F8008042E52846BBE79C
:105610000122E1E7099B002B04DB20990B430A9947
:105620000B4320D1002AEDDD49460122584600F007
:10563000A9FB2146814600F011FC002803DCE1D1E2
:1056400018F0010FDED0B8F1390FD8D13923049A00
:10565000137033461E4616F8012C013B392A51D0EF
:1056600001321A7015E5002A07DDB8F1390FEDD0C7
:10567000049A08F1010313700BE5039B0B9A03F8DE
:10568000018C934228D0494600230A22584600F054
:10569000D5F9AF4281464FF000034FF00A02394678
:1056A000584607D100F0CAF907460546039B013367
:1056B000039375E700F0C2F92946074600230A2242
:1056C000584600F0BBF90546F0E7089B0027002B81
:1056D000CCBF1E460126564449460122584600F0DA
:1056E00051FB2146814600F0B9FB0028B1DC02D114
:1056F00018F0010FADD133461E4613F8012D302AA4
:10570000FAD0C6E49A45A5D1069B0133069331230E
:105710008AF80030BDE4249BDFF85CA01BB10AF1DD
:105720000803249A1360504617B0BDE8F08F209B01
:10573000012B7FF739AE0E9B0A93012057E6089B99
:10574000002B7FF7D7AE564621464846FFF7CFF9E4
:1057500000F13008089B06F8018BA6EB0A02934281
:10576000B3DD494600230A22584600F067F9814616
:10577000EAE700BF0D6800089067000838B50546E5
:10578000002940D051F8043C0C1F002BB8BFE4188E
:1057900000F0E6F81C4A136833B9636014602846C9
:1057A000BDE8384000F0E2B8A34208D920682118CB
:1057B0008B4201BF19685B6809182160EDE71A4642
:1057C0005B680BB1A342FAD911685018A0420BD103
:1057D00020680144501883421160E0D118685B686A
:1057E000084410605360DAE702D90C232B60D6E737
:1057F000206821188B4201BF19685B680918216075
:1058000063605460CBE738BD54060020024B01466C
:10581000186800F025B800BFD000002070B50F4E0A
:105820000C463168054611B900F08CFE3060214607
:10583000284600F087FE431C03D14FF0FF3420467A
:1058400070BDC41C24F00304A042F8D0211A2846DD
:1058500000F078FE0130F2D1EFE700BF50060020E3
:105860002DE9F843CD1C25F0030508350C2D38BF74
:105870000C25002D064601DBA94204D90C23336018
:105880000020BDE8F883DFF8D48000F069F8D8F88C
:1058900000301C4644BB29463046FFF7BFFF431C7F
:1058A000044658D1D8F800402746002F43D1002C99
:1058B0004BD023683946304604EB030900F042FE22
:1058C000814542D1216830466D1A2946FFF7A6FF6F
:1058D00001303AD023682B442360D8F800305A684E
:1058E00062BBC8F800700FE02268521B20D40B2A5C
:1058F00017D96119A342256018BF5960636808BFB2
:10590000C8F8001062514B60304600F02FF804F1E7
:105910000B00231D20F00700C21A1CBF1B1AA35046
:10592000AFE76268A3420CBFC8F800205A60EBE7FB
:1059300023466468AEE73C467F68B6E71A465B6874
:10594000A342FBD100235360DEE70C2330463360D3
:1059500000F00CF894E70560D6E700BF540600207D
:105960000148FFF7B4B800BF4C0600200148FFF71C
:10597000AFB800BF4C06002070B5C66904460D469E
:1059800076B91020FFF742FF0246E06120B96B2193
:10599000174B184800F0F4FDC0E901660660C660C8
:1059A000E669F36883B1E369DB6853F82500B8B9A9
:1059B000012101FA05F6721D2046920000F0FEFD5D
:1059C00060B1C0E901560EE021220421204600F01A
:1059D000F5FDE369F060DB68002BE4D1002070BDC9
:1059E000026843F825200023C0E90333F7E700BF2E
:1059F0009D6700081E68000870B5C66905460C461C
:105A000076B91020FFF702FF0246E86120B98F2126
:105A1000084B094800F0B4FDC0E901660660C660A5
:105A20003CB1EB696268DB6853F82210216043F8EF
:105A3000224070BD9D6700081E6800082DE9F041F6
:105A400007460C461E4600200D6901F1140CDCF8D7
:105A50000030013099B202FB01611E0C0B0C02FBFD
:105A6000063389B201EB034185424FEA13464CF8F5
:105A7000041BECDC0EB3A368AB4219DC616838464A
:105A80000131FFF779FF804628B90246BA210C4B55
:105A90000C4800F075FD226904F10C0102329200FD
:105AA0000C3000F05FFD21463846FFF7A5FF444665
:105AB00004EB850301355E6125612046BDE8F08178
:105AC0000D6800081E6800080346B0F5803F3ABF25
:105AD000030410200020B3F1807F3CBF1B0208307C
