:020000040800F2
:1000000000500020392A0008812A0008812A0008AF
:10001000812A0008812A0008812A000800000000C7
:10002000000000000000000000000000812A00081D
:10003000812A000800000000812A0008812A0008A7
:10004000812A0008812A0008812A0008812A0008E4
:10005000812A0008812A0008812A0008812A0008D4
:10006000812A0008812A0008812A0008812A0008C4
:10007000812A0008812A0008812A0008812A0008B4
:10008000812A0008812A0008812A0008812A0008A4
:10009000812A0008812A0008812A0008812A000894
:1000A000812A0008F5120008812A0008812A000828
:1000B000812A0008812A0008812A0008812A000874
:1000C000812A0008812A0008812A0008812A000864
:1000D000812A0008812A0008812A0008812A000854
:1000E000812A0008812A0008812A000800000000F7
:1000F0000000000000000000000000000000000000
:0C01000000000000000000005FF808F1A3
:10011000034613F8012B002AFBD1181A0138704747
:1001200081F0004102E000BF83F0004330B54FEAA8
:1001300041044FEA430594EA050F08BF90EA020F15
:100140001FBF54EA000C55EA020C7FEA645C7FEAA8
:10015000655C00F0E2804FEA5454D4EB5555B8BFCB
:100160006D420CDD2C4480EA020281EA030382EA3C
:10017000000083EA010180EA020281EA0303362DCE
:1001800088BF30BD11F0004F4FEA01314FF4801CA1
:100190004CEA113102D0404261EB410113F0004FB3
:1001A0004FEA03334CEA133302D0524263EB43036A
:1001B00094EA050F00F0A780A4F10104D5F1200E08
:1001C0000DDB02FA0EFC22FA05F2801841F1000163
:1001D00003FA0EF2801843FA05F359410EE0A5F137
:1001E00020050EF1200E012A03FA0EFC28BF4CF068
:1001F000020C43FA05F3C01851EBE37101F000451E
:1002000007D54FF0000EDCF1000C7EEB00006EEB2A
:100210000101B1F5801F1BD3B1F5001F0CD34908B4
:100220005FEA30004FEA3C0C04F101044FEA44520B
:1002300012F5800F80F09A80BCF1004F08BF5FEA92
:10024000500C50F1000041EB045141EA050130BD72
:100250005FEA4C0C404141EB0101013C28BFB1F584
:10026000801FE9D291F0000F04BF01460020B1FACF
:1002700081F308BF2033A3F10B03B3F120020CDAA2
:100280000C3208DD02F1140CC2F10C0201FA0CF080
:1002900021FA02F10CE002F11402D8BFC2F1200CE5
:1002A00001FA02F120FA0CFCDCBF41EA0C0190409B
:1002B000E41AA2BF01EB0451294330BD6FEA0404E4
:1002C0001F3C1CDA0C340EDC04F11404C4F12002CF
:1002D00020FA04F001FA02F340EA030021FA04F3E1
:1002E00045EA030130BDC4F10C04C4F1200220FA38
:1002F00002F001FA04F340EA0300294630BD21FA76
:1003000004F0294630BD94F0000F83F4801306BF3B
:1003100081F480110134013D4EE77FEA645C18BF2F
:100320007FEA655C29D094EA050F08BF90EA020FC6
:1003300005D054EA000C04BF1946104630BD91EABE
:10034000030F1EBF0021002030BD5FEA545C05D1C1
:100350004000494128BF41F0004130BD14F5800400
:100360003CBF01F5801130BD01F0004545F0FE4174
:1003700041F470014FF0000030BD7FEA645C1ABFA9
:10038000194610467FEA655C1CBF0B46024650EAE0
:10039000013406BF52EA033591EA030F41F400210C
:1003A00030BD00BF90F0000F04BF0021704730B592
:1003B0004FF4806404F132044FF000054FF0000167
:1003C00050E700BF90F0000F04BF0021704730B528
:1003D0004FF4806404F1320410F0004548BF4042FD
:1003E0004FF000013EE700BF42004FEAE2014FEA52
:1003F00031014FEA02701FBF12F07F4393F07F4F2D
:1004000081F06051704732F07F4208BF704793F02F
:100410007F4F04BF41F40021704730B54FF4607442
:1004200001F0004521F000411CE700BF50EA010245
:1004300008BF704730B54FF000050AE050EA0102EE
:1004400008BF704730B511F0004502D5404261EB5E
:1004500041014FF4806404F132045FEA915C3FF49F
:10046000D8AE4FF003025FEADC0C18BF03325FEA3C
:10047000DC0C18BF033202EBDC02C2F1200300FAED
:1004800003FC20FA02F001FA03FE40EA0E0021FA12
:1004900002F11444BDE600BF70B54FF0FF0C4CF400
:1004A000E06C1CEA11541DBF1CEA135594EA0C0FB2
:1004B00095EA0C0F00F0DEF82C4481EA030621EAED
:1004C0004C5123EA4C5350EA013518BF52EA033528
:1004D00041F4801143F4801338D0A0FB02CE4FF0DA
:1004E0000005E1FB02E506F00042E0FB03E54FF00A
:1004F0000006E1FB03569CF0000F18BF4EF0010E02
:10050000A4F1FF04B6F5007F64F5407404D25FEAFD
:100510004E0E6D4146EB060642EAC62141EA5551B0
:100520004FEAC52040EA5E504FEACE2EB4F1FD0CF2
:1005300088BFBCF5E06F1ED8BEF1004F08BF5FEA70
:10054000500E50F1000041EB045170BD06F0004622
:1005500046EA010140EA020081EA0301B4EB5C04CF
:10056000C2BFD4EB0C0541EA045170BD41F48011C7
:100570004FF0000E013C00F3AB8014F1360FDEBFEC
:10058000002001F0004170BDC4F10004203C35DAC8
:100590000C341BDC04F11404C4F1200500FA05F34B
:1005A00020FA04F001FA05F240EA020001F00042EC
:1005B00021F0004110EBD37021FA04F642EB060162
:1005C0005EEA430E08BF20EAD37070BDC4F10C048C
:1005D000C4F1200500FA04F320FA05F001FA04F250
:1005E00040EA020001F0004110EBD37041F100013C
:1005F0005EEA430E08BF20EAD37070BDC4F1200547
:1006000000FA05F24EEA020E20FA04F301FA05F2AE
:1006100043EA020321FA04F001F0004121FA04F256
:1006200020EA020000EBD3705EEA430E08BF20EA26
:10063000D37070BD94F0000F0FD101F00046400060
:1006400041EB010111F4801F08BF013CF7D041EAE2
:10065000060195F0000F18BF704703F000465200E6
:1006600043EB030313F4801F08BF013DF7D043EAB7
:100670000603704794EA0C0F0CEA135518BF95EA6D
:100680000C0F0CD050EA410618BF52EA4306D1D1F4
:1006900081EA030101F000414FF0000070BD50EA13
:1006A000410606BF1046194652EA430619D094EA9D
:1006B0000C0F02D150EA013613D195EA0C0F05D187
:1006C00052EA03361CBF104619460AD181EA0301DB
:1006D00001F0004141F0FE4141F470014FF0000093
:1006E00070BD41F0FE4141F4780170BD70B54FF02E
:1006F000FF0C4CF4E06C1CEA11541DBF1CEA1355AE
:1007000094EA0C0F95EA0C0F00F0A7F8A4EB05048F
:1007100081EA030E52EA03354FEA013100F0888086
:100720004FEA03334FF0805545EA131343EA12634F
:100730004FEA022245EA111545EA10654FEA002604
:100740000EF000419D4208BF964244F1FD0404F5BD
:10075000407402D25B084FEA3202B61A65EB030519
:100760005B084FEA32024FF480104FF4002CB6EBD6
:10077000020E75EB030E22BFB61A754640EA0C0056
:100780005B084FEA3202B6EB020E75EB030E22BF96
:10079000B61A754640EA5C005B084FEA3202B6EBD7
:1007A000020E75EB030E22BFB61A754640EA9C0096
:1007B0005B084FEA3202B6EB020E75EB030E22BF66
:1007C000B61A754640EADC0055EA060E18D04FEA24
:1007D000051545EA16754FEA06164FEAC30343EAC4
:1007E00052734FEAC2025FEA1C1CC0D111F4801F91
:1007F0000BD141EA00014FF000004FF0004CB6E78A
:1008000011F4801F04BF01430020B4F1FD0C88BF28
:10081000BCF5E06F3FF6AFAEB5EB030C04BFB6EB33
:10082000020C5FEA500C50F1000041EB045170BD26
:100830000EF0004E4EEA113114EB5C04C2BFD4EB53
:100840000C0541EA045170BD41F480114FF0000ED7
:10085000013C90E645EA060E8DE60CEA135594EA53
:100860000C0F08BF95EA0C0F3FF43BAF94EA0C0F56
:100870000AD150EA01347FF434AF95EA0C0F7FF4CB
:1008800025AF104619462CE795EA0C0F06D152EA1F
:1008900003353FF4FDAE1046194622E750EA410603
:1008A00018BF52EA43067FF4C5AE50EA41047FF414
:1008B0000DAF52EA43057FF4EBAE12E74FF0FF3C79
:1008C00006E000BF4FF0010C02E000BF4FF0010C4A
:1008D0004DF804CD4FEA410C7FEA6C5C4FEA430CC3
:1008E00018BF7FEA6C5C1BD001B050EA410C0CBF12
:1008F00052EA430C91EA030F02BF90EA020F002074
:10090000704710F1000F91EA030F58BF994208BFDA
:1009100090422CBFD8176FEAE37040F00100704797
:100920004FEA410C7FEA6C5C02D150EA013C07D1EE
:100930004FEA430C7FEA6C5CD6D152EA033CD3D039
:100940005DF8040B704700BF8446104662468C4633
:100950001946634600E000BF01B5FFF7B7FF002866
:1009600048BF10F1000F01BD4DF808EDFFF7F4FF8F
:100970000CBF012000205DF808FB00BF4DF808ED1A
:10098000FFF7EAFF34BF012000205DF808FB00BF3D
:100990004DF808EDFFF7E0FF94BF012000205DF85F
:1009A00008FB00BF4DF808EDFFF7CEFF94BF012014
:1009B00000205DF808FB00BF4DF808EDFFF7C4FF0D
:1009C00034BF012000205DF808FB00BF4FEA410C56
:1009D0007FEA6C5C02D150EA013C0AD14FEA430C39
:1009E0007FEA6C5C02D152EA033C02D14FF0000076
:1009F00070474FF0010070474FEA410212F50012B4
:100A000015D211D56FF47873B3EB625212D94FEA55
:100A1000C12343F0004343EA505311F0004F23FA3F
:100A200002F018BF404270474FF00000704750EA94
:100A3000013005D111F0004008BF6FF00040704751
:100A40004FF00000704700BF0348044B834202D0C0
:100A5000034B03B1184770478C0200208C02002022
:100A6000000000000548064B1B1AD90F01EBA3013B
:100A7000491002D0034B03B1184770478C02002085
:100A80008C0200200000000010B5064C237843B90A
:100A9000FFF7DAFF044B13B10448AFF300800123E2
:100AA000237010BD8C020020000000007453000869
:100AB00008B5054B1BB105490548AFF30080BDE8FB
:100AC0000840FFF7CFBF00BF0000000090020020E9
:100AD00074530008F0B587B001214FF4007001F0A5
:100AE0008BFB2C4D284601F0C5F801A801F01AF93E
:100AF0000026019601248DF808408DF809404FF436
:100B000060230393049605278DF8147001A92846E5
:100B100001F0E2F8304601F0F9FA23462246314668
:100B2000284601F043F9234602222146284601F0D7
:100B30003DF9234603220221284601F037F92346D6
:100B400004220321284601F031F923463A460821C0
:100B5000284601F02BF92146284601F0ECF8214601
:100B6000284601F0F3F8284601F0FBF8094801F0A7
:100B7000FDF80028FAD1074801F000F9054801F016
:100B800002F90028FAD10121024801F004F907B066
:100B9000F0BD00BF0024014010B58CB00121084613
:100BA00001F01CFB124C204601F04CF9114B019353
:100BB000114B029300230393052204920593802294
:100BC00006924FF4807207924FF4806208922022BE
:100BD00009924FF400520A920B9301A9204601F0AA
:100BE000C5F90121204601F0DEF90CB010BD00BFAF
:100BF000080002404C2401402C04002010B41B4982
:100C00000B781B4A94881B4820F8134054881A48D4
:100C100020F813401088194A22F813000133DBB280
:100C20000B703F2B01D900220A70154B9B78CBB17A
:100C300010BC70470F4C34F8134020440E4C34F86D
:100C4000134021440D4C34F813C062440133DBB22D
:100C50003F2BEFD980090B4BD861890919629209A2
:100C60009A61E5E7002211461046F1E728040020CA
:100C70002C040020A803002028030020A802002044
:100C80003C0400203800002011490A88114B986963
:100C9000121A19325A60186AB1F802C0A0EB0C009F
:100CA000D860D869B1F804C0A0EB0C009860C8887F
:100CB000586109891961596A186800FB01F1986A3D
:100CC00000FB02F2921202EBA1221A60704700BFF1
:100CD0002C0400203800002008B5084B1B68002BAE
:100CE000B8BF5B42064A1288934200DC08BD00F0A0
:100CF0003BFC044B00221A72F8E700BF38000020CA
:100D0000000000203C04002042F2107304E0013B8C
:100D10009BB2002BFBD101380028FAD170470000AC
:100D200000B583B001211C2001F066FA0423ADF860
:100D3000043010238DF8073003238DF8063001A905
:100D4000024801F03DF903B05DF804FB000C0140DE
:100D500000B583B04FF46043ADF8043004238DF840
:100D6000073003238DF8063001A9034801F028F964
:100D700003B05DF804FB00BF0010014030B583B044
:100D80004FF48063ADF8043018238DF80730032545
:100D90008DF806500A4C01A9204601F011F94FF4D4
:100DA0000063ADF8043004238DF807308DF8065049
:100DB0000DEB0301204601F003F903B030BD00BF85
:100DC000000C014010B582B00F23ADF804300024B0
:100DD0008DF8074001A9074801F0F2F80123ADF8AA
:100DE00004308DF8074001A9034801F0E9F802B08A
:100DF00010BD00BF00080140000C014000B583B0E9
:100E000001A801F035F901214FF4805001F040F9BB
:100E10004FF44073ADF8043018238DF807300323E6
:100E20008DF8063001A9034801F0CAF803B05DF857
:100E300004FB00BF000C014030B583B00121154810
:100E400001F026F94FF4E063ADF8043018258DF871
:100E5000075003248DF8064001A90F4801F0B0F8AF
:100E60004FF46043ADF804308DF807508DF806401C
:100E70000A4C01A9204601F0A3F84FF48053ADF8C5
:100E8000043048238DF8073001A9204601F098F876
:100E900003B030BDC000160000080140000C014046
:100EA000054BDB6813F0040F03D10422024B1A61D7
:100EB00070474FF48022F9E7000C014003461046CA
:100EC000934204DD8B4201DB0846704718467047A9
:100ED00010B50446036842689B1A03628168826AFF
:100EE00091420ED0C06A6062E062226902FB03F3A5
:100EF00000EBE330A062E269A169FFF7DFFFA060C9
:100F000010BD426903FB02F2C06A00EBE230EAE77F
:100F10000A4B42F6E0621A6140F224425A6141F201
:100F20003E7199610022DA61054B42F22830186166
:100F30004FF45C7058619961DA6170479400002049
:100F40006400002008B53A4B1B78022B20D0394BA7
:100F50005B69B3F5AF7F53DC354A0023937013729E
:100F6000D380354A53601360136253629362D36235
:100F70009360D3602E4B5B88012B51D040F201125D
:100F8000934250D000F0F0FA294B00221A724AE046
:100F9000284B5B69B3F5AF7F1BDC254A00239370B8
:100FA0001372D380244A53601360136253629362B6
:100FB000D3629360D3601E4B5B88012B19D040F243
:100FC0000112934218D000F0CFFA194B00221A7286
:100FD00012E0174A01219170A3F59673164A136027
:100FE00040F6C3129342E6DD134B40F6C4121A607A
:100FF000E1E70F4B01221A720D4B9A78DA7015E077
:101000000B4A01219170A3F596730B4A136040F6C9
:10101000C3129342AEDD084B40F6C4121A60A9E732
:10102000034B01221A72024B9A78DA7008BD00BF96
:101030003C0400203800002094000020034B0422D0
:1010400083F8202047F23052DA6170471000002008
:1010500038B54FF40051954801F012F801282BD013
:10106000934B00221A704FF48041904801F008F829
:10107000012825D08E4B00225A704FF400418B4836
:1010800000F0FEFF01281FD0894B00229A7088498A
:101090000B784A785200D2B21344DBB28A789200BD
:1010A000D2B21344DBB2CB70824A127A012A0FD03B
:1010B0007F4BDA781A7138BD7D4B01221A70D2E766
:1010C0007B4B01225A70D8E7794B01229A70DEE7F8
:1010D0000A79934200F08480013B052B7AD8DFE83F
:1010E00003F04F6B5D334103724B5B79012B25D0CD
:1010F000704B5B79022B24D06F4BB3F800C06C4A65
:10110000D08A00FB0CF06D4B1988938A01FB03F326
:101110009B1203EBA0239BB2D382D069B0FBF3F305
:101120005384908C00FB0CFC9BB203FB01F18912F1
:1011300001EBAC21918400239382B9E700F038FAE7
:10114000D6E700F0DDFAD7E75A4B5B79012B06D0E2
:10115000584B5B79022BCFD100F00AFBCCE700F0B3
:101160005FFAF5E7534B5B79012B06D0514B5B7966
:10117000022BC1D100F034FBBEE700F089FAF5E79D
:101180004C4B5B79012B06D04A4B5B79022BB3D1D8
:1011900000F00EFAB0E700F0B3FAF5E7454B5B79E3
:1011A000012B06D0434B5B79022BA5D100F038FA16
:1011B000A2E700F0DDFAF5E73E4B5B79012B06D0A4
:1011C0003C4B5B79022B97D100F062FA94E700F078
:1011D00007FBF5E700F0C8F9354B00225A848BE78E
:1011E000334A938A01339BB29382B3F5FA5FFFF4DB
:1011F0005FAF144600259582958400F0B5F925610E
:1012000084F82150E378013B052B68D8DFE803F030
:1012100030583F122103274B5B79012B07D0254B18
:101220005B79022B7FF444AF00F06AFA40E700F0EC
:10123000BFF9F4E71F4B5B79012B07D01D4B5B799E
:10124000022B7FF435AF00F093FA31E700F0E8F9B4
:10125000F4E7184B5B79012B07D0164B5B79022B17
:101260007FF426AF00F0BCFA22E700F011FAF4E7B1
:10127000104B5B79012B07D00E4B5B79022B7FF46F
:1012800017AF00F095F913E700F03AFAF4E7094BCD
:101290005B79012B07D0074B5B79022B7FF408AFFA
:1012A00000F0BEF904E700F063FAF4E70010014033
:1012B000100000203C040020020000200400002058
:1012C0000A4B5B79012B07D0084B5B79022B7FF42B
:1012D000EFAE00F0DDF9EBE600F082FAF4E700F0A3
:1012E00043F9034B00225A84E2E600BF3C0400208D
:1012F00010000020F8B5FFF7C7FCFFF7A9FE3D4B33
:101300009B78C3B13C4A13780133DBB21370182BBE
:1013100014D8FFF7E1FC394C394B998C204601F089
:10132000D0F9384B1988204601F0CDF90121364813
:1013300001F0CCF9F8BDFFF761FCE3E713460022AA
:101340001A70FFF7FFFD314D2A69314B5A822A6826
:101350001A82304C62681A842268DA83284B9B8C8C
:1013600063602046FFF7B4FDE3682B4F3A8803FB28
:1013700002F2A168294E338801FB03F39B1203EBB1
:10138000A223E3606B69264A82FB0312DB17C3EBDF
:10139000E20303F59673234C23602B6863602046B9
:1013A000FFF796FDE3683A8803FB02F2A1683388F1
:1013B00001FB03F39B1203EBA223E3600D4A1278B7
:1013C000012A0BD0022AA4D1124AD26893420BDD23
:1013D0000C4B1A80134B5A62DA629AE70D4B1B686A
:1013E0005B00084A138094E7064A1380094A536257
:1013F000D3628EE73C04002048040020000800402F
:101400001000002036040020002C0140380000208D
:101410006004002094000020080000200600002046
:10142000676666666400002070B58CB001214FF4D9
:10143000006000F0E1FE0025ADF82450ADF8265024
:1014400041F26F73ADF82830ADF82A508DF82C506A
:10145000444C09A9204600F007FFADF814500126BE
:10146000ADF816600423ADF81830ADF81A50ADF899
:101470001C50ADF81E504FF48073ADF820304FF47F
:101480000073ADF8223005A9204600F037FF05A90A
:10149000204600F07DFF05A9204600F0C5FF082189
:1014A000204601F099F80821204601F09CF8082117
:1014B000204601F0A1F84FF40063ADF804304FF47A
:1014C0008063ADF80630ADF808506A23ADF80A30F5
:1014D0004FF48053ADF80C30ADF80E504FF480430C
:1014E000ADF8103001A9204601F026F880212046F1
:1014F00001F0F0F832468021204601F053F83146E1
:10150000204601F0E3F83146204601F0E3F8324688
:101510003146204601F046F83146204601F022F8D7
:101520003146204601F02CF84FF4A06000F068FB33
:1015300018238DF800308DF801508DF802508DF889
:101540000360684600F066FB19238DF800308DF8C3
:1015500001608DF802508DF80360684600F05AFB78
:101560000CB070BD002C014010B5104C002211468B
:10157000204601F051F800221146204601F05DF8A6
:1015800000220421204601F047F8002204212046D1
:1015900001F053F800220821204601F03DF8002216
:1015A0000821204601F049F810BD00BF002C014081
:1015B00010B5194C60220021204601F04FF801229D
:1015C0000021204601F028F804220021204601F0E5
:1015D00034F860220421204601F040F80122042161
:1015E000204601F019F804221146204601F025F8A2
:1015F00000220821204601F00FF800220821204691
:1016000001F01BF8054B1988204601F056F800211F
:10161000204601F054F810BD002C01403604002093
:1016200010B5194C60220021204601F017F8012264
:101630000021204600F0F0FF04220021204600F0A7
:10164000FCFF00220421204600F0E6FF00220421D6
:10165000204600F0F2FF60220821204600F0FEFF45
:1016600001220821204600F0D7FF0422082120464D
:1016700000F0E3FF054B1988204601F01EF8002119
:10168000204601F01EF810BD002C01403604002059
:1016900010B5194C00221146204600F0BDFF002273
:1016A0001146204600F0C9FF60220421204600F0C8
:1016B000D5FF01220421204600F0AEFF042211468E
:1016C000204600F0BAFF60220821204600F0C6FF45
:1016D00001220821204600F09FFF04220821204615
:1016E00000F0ABFF054B1988204600F0E8FF002111
:1016F000204600F0E6FF10BD002C0140360400201B
:1017000010B5194C60220021204600F0A7FF0122ED
:101710000021204600F080FF04220021204600F036
:101720008CFF60220421204600F098FF0122042152
:10173000204600F071FF04221146204600F07DFF94
:1017400000220821204600F067FF002208212046E1
:1017500000F073FF0021204600F0AFFF034B198813
:10176000204600F0ACFF10BD002C014036040020E4
:1017700010B5194C60220021204600F06FFF0122B5
:101780000021204600F048FF04220021204600F0FE
:1017900054FF00220421204600F03EFF00220421D5
:1017A000204600F04AFF60220821204600F056FF44
:1017B00001220821204600F02FFF042208212046A4
:1017C00000F03BFF0021204600F077FF034B198813
:1017D000204600F076FF10BD002C014036040020AA
:1017E00010B5194C00221146204600F015FF0022CA
:1017F0001146204600F021FF60220421204600F01F
:101800002DFF01220421204600F006FF042211468C
:10181000204600F012FF60220821204600F01EFF43
:1018200001220821204600F0F7FE0422082120466C
:1018300000F003FF0021204600F041FF034B198810
:10184000204600F03EFF10BD002C01403604002071
:10185000F0B589B00121042000F0DCFC2B4B1B68A3
:101860002B4AA2FB0323C3F38F33013BADF818309F
:101870000027ADF81470ADF81A70ADF81670254C4D
:1018800005A9204600F0F0FC6023ADF804300125E6
:10189000ADF806506426ADF80A60ADF80C7001A9E9
:1018A000204600F02BFD0821204600F095FEADF803
:1018B0000650ADF80A6001A9204600F069FD082134
:1018C000204600F090FEADF80650ADF80A6001A980
:1018D000204600F0A9FD0821204600F08DFEADF85D
:1018E0000650ADF80A6001A9204600F0E7FD082186
:1018F000204600F088FE2946204600F05FFE29467B
:10190000204600F02FFE09B0F0BD00BF0C00002003
:10191000D55204E9000800400D4B1A680D4BA3FB9B
:1019200002135B09B2F1C84F10D223F07F43013B91
:101930004FF0E0225361084BF02183F8231000217F
:1019400091610720106183F823107047FEE700BF04
:101950000C0000201F85EB5100ED00E008B5384B6E
:101960005B78012B00D008BD354A0023537001235A
:101970009370D3780133DBB2D370092B04D91346AB
:101980000022DA7001221A712D4A53790133DBB239
:101990005371132B04D9134600225A7101229A71F4
:1019A000274AD3790133DBB2D3711D2B04D91346F7
:1019B0000022DA7101221A72214A537A0133DBB212
:1019C0005372272B04D9134600225A7201229A72AD
:1019D0001B4AD37A0133DBB2D372312B04D91346BD
:1019E0000022DA7201221A73154A537B0133DBB2EB
:1019F0005373632B1BD8124A138A01339BB2138291
:101A0000B3F57A7F04D3134600221A8201229A7416
:101A10000B4A938A01339BB2938241F26F729342D5
:101A2000A1D9074B00229A8201229A759BE7FFF702
:101A300037FA034B00225A7301229A73DBE700BF87
:101A400048040020244B9B78012B20D0224B1B798B
:101A5000012B20D0204B9B79012B20D01E4B1B7AD1
:101A6000012B20D01C4B9B7A012B20D01A4B1B7BC7
:101A7000012B20D0184B9B7B012B20D0164B9B7C3D
:101A8000012B20D0144B9B7D012B20D07047124B93
:101A900000229A70DAE7104B00221A71DAE70E4B37
:101AA00000229A71DAE70C4B00221A72DAE70A4B2D
:101AB00000229A72DAE7084B00221A73DAE7064B23
:101AC00000229A73DAE7044B00229A74DAE7024B99
:101AD00000229A75DAE700BF4804002030B587B0CD
:101AE00001214FF4802000F095FB27238DF804306E
:101AF00003238DF805308DF8063001258DF8075049
:101B000001A800F087F8114C204600F0E7FD4FF4E3
:101B1000E13302930023ADF80C30ADF80E30ADF890
:101B20001030ADF814300C23ADF8123002A9204665
:101B300000F026FE2A4640F22551204600F090FE95
:101B40002946204600F07EFE07B030BD0048004028
:101B50000120704708B501F0DBFD162303604FF04C
:101B6000FF3008BD08B54FF0FF31FFF7F3FFFEE788
:101B700070B50C461646002506E0AFF300802146FE
:101B800001F8010B01350C46B542F6DB304670BD5D
:101B900070B50C461646002504E014F8010BAFF3AF
:101BA00000800135B542F8DB304670BD08B503460C
:101BB0000B4A126842B10A4A106803446A469342CB
:101BC00006D8074A136008BD054A06491160F2E7C6
:101BD00001F09EFD0C2303604FF0FF30F3E700BFE0
:101BE00038040020D80500204FF0FF3070474FF434
:101BF00000534B6000207047012070470020704761
:101C000040F0BF6040F40030014BD860704700BF27
:101C100000ED00E0C378F3B1144BDB68DB43C3F3A2
:101C20000223C3F1040C0F21D940427802FA0CF2CE
:101C300083780B40134302781B01DBB20C490A4442
:101C400082F80033037803F01F005B090122824011
:101C500041F823207047037803F01F015B0901223C
:101C60008A402033024941F82320704700ED00E00C
:101C700000E100E008B5154B984206D0144B98429D
:101C80000ED0144B984216D008BD01214FF40070BD
:101C900000F0CEFA00214FF4007000F0C9FAF3E72B
:101CA00001214FF4806000F0C3FA00214FF48060FE
:101CB00000F0BEFAE8E701214FF4004000F0B8FA66
:101CC00000214FF4004000F0B3FADDE700240140AA
:101CD00000280140003C014010B4426822F4702208
:101CE00022F480720B6891F804C043EA0C2313437A
:101CF000436083680A4A1A40CB688C68234391F892
:101D000005C043EA4C0313438360C36A23F47003A2
:101D10000A7C013AD2B243EA0253C36210BC704754
:101D2000FDF7F1FF00230360037143718360C3601B
:101D300001230374704721B1836843F0010383607A
:101D40007047836823F001038360704721B1836883
:101D500043F4807383607047836823F480738360E7
:101D60007047836843F0080383607047836813F00B
:101D7000080F01D00120704700207047836843F0AE
:101D8000040383607047836813F0040F01D00120BF
:101D900070470020704721B1836843F4A00383603B
:101DA0007047836823F4A0038360704710B5092946
:101DB0001ED9C468A1F10A0C0CEB4C0C4FF0070EB5
:101DC0000EFA0CFE24EA0E0403FA0CFC44EA0C049E
:101DD000C460062A1BD8436B013A02EB82021F241F
:101DE000944023EA040301FA02F21343436310BD53
:101DF000046901EB410E4FF0070C0CFA0EFC24EACB
:101E00000C0C03FA0EF34CEA03030361E1E70C2A1E
:101E10000CD8036B073A02EB82021F24944023EA9A
:101E2000040301FA02F213430363E0E7C36A0D3AC5
:101E300002EB82021F24944023EA040391400B43E7
:101E4000C362D4E7036823F001031B041B0C036087
:101E50000023036043608360C360364B984221D007
:101E6000354B984224D0354B984227D0344B98427A
:101E70002AD0344B98422DD0334B984230D0334B3C
:101E8000984233D0324B984236D0324B984239D0B8
:101E9000314B98423CD0314B98423FD0304B984226
:101EA00042D070472F4A536843F00F035360704786
:101EB0002C4A536843F0F00353607047294A536833
:101EC00043F4706353607047264A536843F4704389
:101ED00053607047234A536843F47023536070473C
:101EE000204A536843F47003536070471D4A536897
:101EF00043F07063536070471B4A536843F00F030D
:101F000053607047184A536843F0F00353607047BA
:101F1000154A536843F4706353607047124A53681C
:101F200043F47043536070470F4A536843F470237F
:101F30005360B6E7080002401C0002403000024037
:101F400044000240580002406C0002408000024001
:101F5000080402401C0402403004024044040240D1
:101F600058040240000002400004024010B402681D
:101F70006FF30E128B680C6A23430C6923434C6980
:101F800023438C692343CC6923434C6A23438C6AE3
:101F9000234313430360CB6843600B6883604B6843
:101FA000C36010BC704721B1036843F001030360B4
:101FB0007047036823F001031B041B0C0360704788
:101FC00030B5CB7803F00F02964613F0100F03D014
:101FD00091F802E04EEA020E0B78FBB1056800238F
:101FE00001E042610133072B17D801229A40B1F872
:101FF00000C032EA0C0CF5D19C004FF00F0C0CFA2B
:1020000004FC25EA0C050EFA04F42543CC78282CB0
:10201000E7D0482CE6D10261E4E705600B88FF2B8E
:1020200025D94568002303E0CC78482C1CD0013327
:10203000072B1BD803F1080C012202FA0CF2B1F8AD
:1020400000C032EA0C0CF2D19C004FF00F0C0CFADD
:1020500004FC25EA0C0C0EFA04F444EA0C05CC78D6
:10206000282CE1D14261DFE70261E0E7456030BD45
:102070004FF6FF730380022383700423C3707047FD
:102080008368194201D0012070470020704700008A
:1020900030B4002815DB1C4B5B68C0F3034482B2EC
:1020A00000F4401CBCF5401F0ED010F4801F1DD062
:1020B0004FF0030C0CFA04F423EA040343F07063BA
:1020C00009E0114BDB69E8E723F070630E4D6C68A3
:1020D00024F070646C6019B1410D09018A4013430A
:1020E00000280EDB084A536030BC70474FEA505C52
:1020F0004FEA0C1C02FA0CFC23EA0C0343F0706359
:10210000E9E7014AD361EFE700000140034A536861
:1021100023F4404303435360704700BF0010024064
:1021200010B4294B5B6803F00C03042B29D0082B57
:102130002AD0002B45D1254B036023494B68C3F3BC
:102140000313234CE25CD2B20368D34043604A6875
:10215000C2F30222A25CD2B223FA02F282604A687F
:10216000C2F3C222A25CD2B2D340C3604A68C2F3B7
:10217000813218498A5CD2B2B3FBF2F3036110BC1E
:102180007047124B0360D8E70F4A53685268C3F395
:102190008343023312F4803F04D10F4A02FB03F35E
:1021A0000360CAE7084A526812F4003F04D00A4AA2
:1021B00002FB03F30360C0E7044A02FB03F303607E
:1021C000BBE7024B0360B8E70010024000127A0040
:1021D000945300089053000800093D0021B1054ABE
:1021E0005369034353617047024A536923EA00036A
:1021F000536170470010024021B1054A93690343BF
:1022000093617047024A936923EA00039361704720
:102210000010024021B1054AD3690343D3617047DE
:10222000024AD36923EA0003D361704700100240D9
:1022300021B1054AD3680343D3607047024AD3688B
:1022400023EA0003D36070470010024021B1054A21
:102250001369034313617047024A136923EA0003B9
:10226000136170470010024003889BB2214A9042DC
:1022700012D002F5006290420ED0B0F1804F0BD028
:10228000A2F59832904207D002F58062904203D0C6
:1022900002F58062904203D123F070034A88134311
:1022A000154A904208D002F58062904204D023F48F
:1022B00040739BB2CA88134303808B8883850B8845
:1022C00003850C4B98420FD003F5006398420BD066
:1022D00003F54063984207D003F58063984203D02A
:1022E00003F58063984201D10B7A03860123838230
:1022F000704700BF002C01400010004000B5038C67
:102300009BB223F001039BB20384028C92B2B0F81B
:1023100004C01FFA8CFC038B9BB223F07303B1F84B
:1023200000E043EA0E0E22F002020B891A434B88AA
:102330001343164A90420FD002F5006290420BD030
:1023400002F54062904207D002F58062904203D0CD
:1023500002F5806290420FD123F008024B891A43A4
:1023600022F004028B8813432CF4407C8A894CEAC7
:10237000020CCA8942EA0C0CA0F804C0A0F818E0CC
:10238000CA88828603845DF804FB00BF002C0140EC
:1023900000B5038C9BB223F010039BB20384028C24
:1023A00092B2B0F804E01FFA8EFEB0F818C01FFA1F
:1023B0008CFC2CF4E64C0B881B029BB24CEA030C01
:1023C00022F020020B891B019BB21A434B881B0190
:1023D0009BB21343134A904203D002F5006290422D
:1023E00017D123F080034A89120192B2134323F0DC
:1023F00040038A88120192B213432EF4406E8A89F8
:10240000920092B24EEA020ECA89920092B242EA59
:102410000E0EA0F804E0A0F818C0CA880287038452
:102420005DF804FB002C014000B5038C9BB223F443
:1024300080739BB20384028C92B2B0F804E01FFA5E
:102440008EFEB0F81CC01FFA8CFC2CF0730C0B88AD
:102450004CEA030C22F400720B891B029BB21A4354
:102460004B881B029BB21343134A904203D002F5E0
:102470000062904217D123F400634A89120292B29B
:10248000134323F480638A88120292B213432EF41A
:10249000405E8A89120192B24EEA020ECA89120186
:1024A00092B242EA0E0EA0F804E0A0F81CC0CA885E
:1024B000828703845DF804FB002C014010B5038C77
:1024C0009BB223F480539BB20384B0F820C01FFA60
:1024D0008CFCB0F804E01FFA8EFE828B92B222F4DC
:1024E000E6420B881B029BB21A432CF4005C0B895A
:1024F0001B039BB24CEA030C4B881B039BB243EAC1
:102500000C030C4CA04203D004F50064A04209D196
:102510002EF4804EB1F80CC04FEA8C1C1FFA8CFCD4
:102520004EEA0C0EA0F804E08283CA88A0F840208E
:10253000038410BD002C014070B50D884E888C8836
:10254000B1F806E0B1F808C04A898B8945EA06016E
:1025500021434EEA01014CEA01010A431343A0F86A
:10256000443070BD29B103889BB243F0010303805E
:10257000704703889BB223F001039BB2038070472E
:1025800049B1B0F844306FEA43436FEA53439BB21A
:10259000A0F844307047B0F84430C3F30E03A0F8FD
:1025A0004430704722B183899BB20B4383817047CB
:1025B0008389C94389B219408181704729B1038851
:1025C0009BB243F080030380704703889BB223F0E3
:1025D00080039BB203807047038B9BB223F00803F8
:1025E0000B4303837047038B9BB223F40063090200
:1025F00089B20B4303837047838B9BB223F008039C
:102600000B4383837047838B9BB223F400630902DF
:1026100089B20B438383704701238B409BB2B0F890
:1026200020C0DB439BB203EA0C030384038C9BB200
:102630008A4092B213430384704704238B409BB2B9
:10264000B0F820C0DB439BB203EA0C030384038C85
:102650009BB28A4092B213430384704700B500F1E5
:10266000180C01238B409BB2B0F820E0DB439BB2F7
:1026700003EA0E03038491B1082910D00439C1F391
:102680004E0151F80C3023F4E04341F80C3051F87E
:102690000C30120292B2134341F80C300BE049089F
:1026A00051F80C3023F0700341F80C3051F80C3025
:1026B000134341F80C305DF804FB818670470187B5
:1026C000704781877047A0F840107047C94389B2AE
:1026D00001827047C94389B20182704708B5234B14
:1026E00098420CD0224B984214D0224B98421CD0D6
:1026F000214B984224D0214B98422CD008BD012177
:102700004FF48040FFF794FD00214FF48040FFF725
:102710008FFDF3E701214FF40030FFF797FD002113
:102720004FF40030FFF792FDE8E701214FF48020DD
:10273000FFF78CFD00214FF48020FFF787FDDDE7D8
:1027400001214FF40020FFF781FD00214FF400200C
:10275000FFF77CFDD2E701214FF48010FFF776FDF3
:1027600000214FF48010FFF771FDC7E700380140EA
:102770000044004000480040004C00400050004031
:1027800030B587B004460D46038A9BB2CA8823F44D
:1027900040531343038283899BB2898828896A89BD
:1027A00001430A4323F4B05323F00C031343A381E2
:1027B000A38A9BB2AA8923F440731343A38201A87E
:1027C000FFF7AEFC1D4B9C4224D0039BA28912F460
:1027D000004F21D103EB830303EB83032A689200AC
:1027E000B3FBF2F3164AA2FB031252091101642053
:1027F00002FB1033A28912F4004F16D11B013233B1
:102800000F4AA2FB0323C3F343130B439BB2238161
:1028100007B030BD049BD9E703EB830303EB8303CD
:102820002A685200B3FBF2F3DCE7DB003233044AE0
:10283000A2FB0323C3F342130B43E7E70038014035
:102840001F85EB5129B183899BB243F400538381E7
:10285000704783899BB223F400539BB283817047F6
:10286000C1F3421C01F01F0101238B40BCF1010F99
:1028700008D0BCF1020F07D014303AB102681343FC
:10288000036070470C30F8E71030F6E7026822EA80
:10289000030303607047000082B00023019300939C
:1028A0002C4A136843F4803313602A4B1B6803F4EB
:1028B00000330093019B01330193009B1BB9019BE3
:1028C000B3F5A06FF1D1234B1B6813F4003F06D082
:1028D00001230093009B012B04D002B0704700231A
:1028E0000093F7E71C4B1A6842F010021A601A684E
:1028F00022F003021A601A6842F002021A60A3F57D
:1029000080535A685A605A685A605A6842F4806222
:102910005A605A6822F47C125A605A6842F4E812EB
:102920005A601A6842F080721A600A4B1B6813F0F2
:10293000007FFAD0074B5A6822F003025A605A68A7
:1029400042F002025A60034B5B6803F00C03082B51
:10295000F9D1C2E7001002400020024008B5FFF79D
:102960009BFF08BD08B5104B1A6842F001021A60BF
:1029700059680E4A0A405A601A6822F0847222F49A
:1029800080321A601A6822F480221A605A6822F48F
:10299000FE025A604FF41F029A60FFF7DFFF044BFC
:1029A0004FF000629A6008BD001002400000FFF87E
:1029B00000ED00E008B542F21070FEF7A5F9FEF751
:1029C000ABFF1C4B01221A705A71FEF7A9F9FEF7F2
:1029D000F9F9FEF7D3F9FEF72FFAFEF7B9F9FEF78A
:1029E0000DFAFEF72BFBFFF779F8FEF7D5F842F268
:1029F0001070FEF789F9FEF76DF842F21070FEF7DD
:102A000083F9FEF711FD42F21070FEF77DF9FEF733
:102A10001FFF42F21070FEF777F9FEF7EFF842F26F
:102A20001070FEF771F9FEF773FAFEF797FFFFF7E4
:102A300009F8FAE73C0400200C480D490D4A002330
:102A400002E0D458C4500433C4188C42F9D30A4A63
:102A50000A4C002301E013600432A242FBD3FFF7CB
:102A600081FF00F05BFEFFF7A5FF7047000000202C
:102A70008C0200202C5700088C020020D405002076
:102A8000FEE7002B2DE9F0471D46BBBF03F10043D5
:102A90001D4600232D2388B01446B8BF1446129A51
:102AA000109E1370149BDDF84CA023F02008B8F1A1
:102AB000460F05D0B8F1450F00D10136022300E0E2
:102AC000032307AA049206AACDE902A2CDE90036A3
:102AD00022462B4600F0E0FEB8F1470F074619D119
:102AE000119BDB070ED500EB0609002200232046D0
:102AF0002946FDF739FF08B1CDF81C903022079B1D
:102B00004B451ED33846079B159ADB1B136008B054
:102B1000BDE8F087B8F1460F00EB0609E5D1037870
:102B2000302B0AD10022002320462946FDF71CFF46
:102B300018B9C6F10106CAF80060DAF80030994405
:102B4000D3E7591C07911A70D9E7F7B50029B6BF2A
:102B50002D232B23494209290270437029DD0DF1F1
:102B600007031D460A27B1FBF7F61A4607FB1614A2
:102B7000303402F8014C0C46632C314603F1FF332C
:102B8000F1DC3031941E03F8011C2346411CAB429A
:102B90000AD30DF109039B1AAC4288BF002302330C
:102BA0000344181A03B0F0BD13F8016B01F8016F6C
:102BB000EDE7302330318370C170031DF1E7000071
:102BC0002DE9F04F91B00C46DDF8688016461F469F
:102BD000054600F053FD036818460893FDF798FA80
:102BE00000230E93D8F800300990073323F0070331
:102BF00003F1080294F818A0D4F800B0C8F8002037
:102C0000D3E9008929F000430B93CDF828804FF0D9
:102C1000FF32DDE90A01C4E912899C4BFDF7D6FEBB
:102C200070BBDDE90A014FF0FF32984BFDF7B0FEB3
:102C300030BB0022002340464946FDF79FFE10B1FD
:102C40002D2384F84330924A924BBAF1470F8CBF40
:102C50009046984603234FF0000923612BF00403AC
:102C6000236033462146284600970FAA00F0D4F986
:102C7000013040F090804FF0FF3011B0BDE8F08F90
:102C800042464B4640464946FDF7A0FE48B14B46FA
:102C9000002BB8BF2D23804AB8BF84F843307F4B48
:102CA000D3E763680AF0DF015A1C3FD10623636053
:102CB00000224BF48063236006920EAACDE904A2A1
:102CC0000DAA03920DF13302CDE901326368424649
:102CD000009328464B460A91FFF7D3FE0A99804697
:102CE00047290D9928D1C81C02DB6368994240DD51
:102CF000AAF1020A5FFA8AFA5246013904F1500039
:102D00000D91FFF722FF0E9A81461318012A2361C5
:102D100002DC2268D20701D5013323619DF83330EC
:102D2000002B9ED02D2384F843309AE74729BFD14A
:102D3000002BBDD10123BAE7BAF1650FDCD9BAF196
:102D4000660F18D1002963680BDD216113B9226871
:102D5000D00702D501330B4423614FF00009A16570
:102D6000DCE713B92268D20701D50233F4E7012367
:102D7000F2E74FF0670A0E9B994205DB2368216159
:102D8000D807EAD54B1CE7E70029CCBF0122C1F1E7
:102D900002021344E0E723685A0507D42369424638
:102DA00031462846B84701302BD164E7BAF1650FA8
:102DB00040F2DC80D4E9120100220023FDF7D4FDAB
:102DC000002833D0012331462846354AB847013020
:102DD0003FF451AFDDE90D38434502DB2368D807E6
:102DE0000FD5DDE9082331462846B84701303FF4C6
:102DF00042AF4FF0000908F1FF3804F11A0AC84544
:102E000009DC23689B0700F10281E0680F9B984270
:102E1000B8BF184631E70123524631462846B84725
:102E200001303FF428AF09F10109E8E70D9B002BC1
:102E300038DC012331462846194AB84701303FF4AF
:102E40001AAFDDE90D3959EA030302D12368D90726
:102E5000D7D5DDE9082331462846B84701303FF48D
:102E60000AAF4FF0000A04F11A0B0D9B5B42534569
:102E700001DC4B4693E701235A4631462846B847C2
:102E800001303FF4F8AE0AF1010AEEE7FFFFEF7FF1
:102E9000A8530008A4530008B0530008AC5300081E
:102EA000B4530008A36DDDF838A05345A8BF5346BE
:102EB000002B994636DC4FF0000B29EAE97904F142
:102EC0001A02A36D0A93A3EB09035B4531DC0D9B4A
:102ED0009A453ADC2368DA0737D40D9BAAEB03093D
:102EE0000A9BAAEB03039945A8BF9946B9F1000FC5
:102EF00033DC4FF0000829EAE97904F11A0B0D9B45
:102F0000AAEB0303A3EB090343457FF77AAF012341
:102F10005A4631462846B84701303FF4ACAE08F176
:102F20000108ECE7424631462846B8470130C2D195
:102F3000A1E60123314628460A92B84701303FF402
:102F40009AAE0A9A0BF1010BBBE73146DDE9082383
:102F50002846B8470130C0D18DE60A9A4B46314623
:102F600028464244B8470130C3D184E6DDF838A092
:102F7000BAF1010F01DCDB0736D5012342463146A9
:102F80002846B84701303FF476AEDDE908233146E4
:102F90002846B84701303FF46EAED4E91201002252
:102FA00000230AF1FF3AFDF7DFFCC0B9534608F1F0
:102FB000010231462846B84701300CD15BE60123B7
:102FC0005A4631462846B84701303FF454AE08F11E
:102FD0000108D045F3DB4B4604F15002E0E64FF028
:102FE000000804F11A0BF4E701234246E1E701234C
:102FF0004A4631462846B84701303FF43CAE08F116
:103000000108E3680F995B1A4345F0DCFDE64FF0D9
:10301000000804F11909F4E72DE9F047164698462F
:103020008A680B6907469342B8BF1346336091F82C
:1030300043200C46DDF820900AB101333360236849
:10304000990642BF336802333360256815F00605E0
:1030500006D104F1190AE36832689B1AAB422BDCF3
:1030600094F843302268003B18BF0123920630D405
:103070004146384604F14302C847013023D0236853
:10308000226903F00603042B14BF002533684FF0B8
:10309000000608BFE56804F11A0408BFED1A54F8E9
:1030A000123C08BF25EAE5759342C4BF9B1AED1890
:1030B000B5421AD1002008E0012352464146384665
:1030C000C847013003D14FF0FF30BDE8F08701352C
:1030D000C1E73020E11881F843005A1C94F84510EC
:1030E0002244023382F84310C2E7012322464146BC
:1030F0003846C8470130E6D00136D9E72DE9FF4709
:103100000F7E9146782F80460C469A460C9E01F120
:10311000430207D8622F0AD8002F00F0D180582F21
:1031200000F0B88004F1420684F842703AE0A7F15A
:103130006303152BF6D801A151F823F0953100084F
:10314000A931000825310008253100082531000883
:1031500025310008A9310008253100082531000873
:103160002531000825310008A7320008D3310008B6
:10317000613200082531000825310008C9320008F5
:1031800025310008D3310008253100082531000819
:103190006932000833681A1D1B68326004F1420668
:1031A00084F8423001239CE033682068191D3160A7
:1031B000060601D51D6803E04506FBD5B3F90050AE
:1031C000002D03DA2D236D4284F843300A2358483A
:1031D00011E021683368080653F8045B02D44906FD
:1031E00048BFADB26F2F336014BF0A230823504885
:1031F000002184F843106668002EA66005DB216874
:103200002E4321F0040121604BD01646B5FBF3F1AB
:1032100003FB1157C75D06F8017D2F46BB420D46E3
:10322000F4D9082B0BD12368DF0708D5236961681F
:103230009942DEBF302306F8013C06F1FF36921BAF
:1032400022614B4621464046CDF800A003AAFFF775
:10325000E3FE01304AD14FF0FF3004B0BDE8F08703
:10326000236843F0200323607827324884F84570B0
:10327000236831681F0651F8045B02D45F0648BF1B
:10328000ADB23160D90744BF43F0200323601DB1C4
:103290001023ADE72648E9E7236823F020032360E5
:1032A000F6E71646BDE733682568181D616930608A
:1032B0002E061B6801D5196002E06806FBD519804F
:1032C000002316462361BCE7336800211A1D3260D3
:1032D0001E686268304600F048FA08B1801B6060E2
:1032E00063682361002384F84330AAE732464946E5
:1032F00040462369D0470130ADD023689B0713D4E3
:10330000E068039B9842B8BF1846A6E701233246FF
:1033100049464046D04701309DD00135E3680399C6
:103320005B1AAB42F2DCEBE7002504F11906F5E786
:10333000B6530008C7530008002310B50446C0E97F
:103340000033C0E90433836081814366C2818361B5
:10335000194608225C3000F089F90D4B2462636243
:103360000C4BA3620C4BE3620C4B23630C4B9C4253
:1033700006D003F16802944202D0D0339C4205D1BA
:1033800004F15800BDE8104000F0ECB910BD00BFDA
:10339000BD340008DF340008173500083B3500084D
:1033A00088040020024A0349034800F069B800BFBE
:1033B000C4000020054E0008D400002041680C4BDA
:1033C00010B59942044601D001F01CFDA168094BDB
:1033D000994202D0204601F015FDE168064B994262
:1033E00004D02046BDE8104001F00CBD10BD00BF68
:1033F00088040020F00400205805002010B50B4B75
:103400000B4C0C4A20461A6004210022FFF794FF5F
:1034100004F1680001220921FFF78EFF04F1D000BA
:103420000222BDE810401221FFF786BFC005002030
:1034300088040020A5330008014800F094B900BFBB
:10344000C9050020014800F08FB900BFC905002060
:1034500010B50446FFF7F0FF236A1BB1BDE810402A
:10346000FFF7F0BF044B2362044B1B68002BF5D120
:10347000FFF7C4FFF2E700BFBD330008C00500201E
:103480002DE9F8430746884614460026D4E90195FD
:10349000B9F1010905D52468002CF7D13046BDE803
:1034A000F883AB89012B07D9B5F90E30013303D06E
:1034B00029463846C04706436835E9E710B50C464B
:1034C000B1F90E1000F000F90028ABBF636DA389BD
:1034D0001B1823F48053ACBF6365A38110BD2DE995
:1034E000F0411F468B890546DB050C46164605D57F
:1034F00002230022B1F90E1000F0D4F8A38932465D
:1035000023F48053A38128463B46B4F90E10BDE84E
:10351000F04100F0EBB810B50C46B1F90E1000F018
:10352000C1F8431CA38915BF606523F4805343F49D
:103530008053A38118BFA38110BDB1F90E1000F014
:10354000A1B8F8B50E461446054618B1036A0BB982
:10355000FFF77EFFA369A360A3891A0701D523693A
:1035600043B92146284600F02BF818B14FF0FF3739
:103570003846F8BD23682269F6B2981A636937465F
:10358000834205DC2146284601F03CFC0028EDD1B1
:10359000A368013BA36023685A1C22601E70626905
:1035A000431C9A4204D0A389DB07E1D50A2EDFD160
:1035B0002146284601F026FC0028D9D0D6E7000095
:1035C00038B5294B054618680C4618B1036A0BB983
:1035D000FFF73EFFB4F90C30190722D4DA0607D4FE
:1035E00009222A6043F040034FF0FF30A38133E00B
:1035F000580712D5616B41B104F14403994202D0DE
:10360000284600F007FF00236363A38923F0240307
:10361000A3810023636023692360A38943F0080327
:10362000A38123694BB9A38903F42073B3F5007F09
:1036300003D02146284601F032FCB4F90C3013F0D7
:1036400001020AD00022A26062695242A26122698C
:1036500042B913F08000C5D138BD990758BF6269DF
:10366000A260F4E70020F7E7D00000200346024400
:10367000934200D1704703F8011BF9E700487047F7
:103680001002002038B50023054D044608462B6083
:10369000FEF7AAFA431C02D12B6803B1236038BDA0
:1036A000C405002038B50446084611460022054DE1
:1036B0002A601A46FEF7A2FA431C02D12B6803B116
:1036C000236038BDC405002038B5044608461146BD
:1036D0000022054D2A601A46FEF74AFA431C02D121
:1036E0002B6803B1236038BDC405002038B50446FB
:1036F000084611460022054D2A601A46FEF748FA90
:10370000431C02D12B6803B1236038BDC4050020DF
:10371000014B1868704700BFD000002070B500262C
:103720000C4D0D4C641BA410A64209D101F022FEE1
:1037300000260A4D0A4C641BA410A64205D170BD98
:1037400055F8043B98470136EEE755F8043B984797
:103750000136F2E7245700082457000824570008D0
:1037600028570008704770477047034610B5C9B224
:1037700002449342184601D1002003E0047801334B
:103780008C42F6D110BD2DE9F74F03690C6907464D
:10379000A3427EDB013CA30000F1140501F11408F3
:1037A000009305EB8403019358F8243055F8242046
:1037B00001339A42B2FBF3F608EB84092ED34FF0A3
:1037C000000AC446AE46D3465CF8043B98B206FBFA
:1037D00000A01B0C020C06FB0323DEF8002080B2C5
:1037E00092B2121A5A44DEF800004FEA134A9BB212
:1037F000C3EB224303EB104392B242EA0342E1459A
:103800004FEA234B4EF8042BDED2009BEB582BB92A
:10381000019B043B9D421A462FD33C61384601F080
:1038200069F9002825DB2946002058F8042BD1F837
:1038300000C01FFA82FE1FFA8CF3A3EB0E030344B1
:10384000120CC2EB234202EB1C429BB243EA02433E
:10385000C1454FEA224041F8043BE6D255F8242006
:1038600005EB840322B9043B9D421A460BD33C610D
:103870000136304603B0BDE8F08F1268043B002AE1
:10388000CBD1013CC6E71268043B002AEFD1013CD2
:10389000EAE70020EEE700002DE9F04F14461D4650
:1038A000C76997B08346CDE90445239E7FB91020B0
:1038B00000F0F8FD0246CBF81C0020B9EF21A84B20
:1038C000A84801F069FBC0E901770760C760DBF831
:1038D0001C30196859B15A68012393404A608B60C3
:1038E000584600F0D5FE0022DBF81C301A602B1E73
:1038F000AFBF0023012223F000430593A8BF33602C
:10390000DDF81480984BB8BF326033EA080312D157
:1039100042F20F73229A1360C8F31303234300F09B
:103920004685249BDFF844A2002B00F048850AF16D
:10393000030300F042BDDDE90423CDE90C23DDE9FA
:103940000C0100220023FDF70FF8074658B10123B0
:10395000229A1360249B13B1854B249A1360DFF8DD
:1039600014A200F02CBD14AB019315AB0093584684
:10397000DDE90C2301F06EF9C8F30A568146002EEA
:1039800077D0DDE90C010D9BA6F2FF36C3F31303DC
:1039900043F07F5343F44013129719460022764BAD
:1039A000FCF7C2FB68A3D3E90023FCF775FD68A30D
:1039B000D3E90023FCF7BAFB044630460D46FCF77A
:1039C00001FD65A3D3E90023FCF766FD02460B4623
:1039D00020462946FCF7AAFB04460D46FDF70CF8E5
:1039E00000220746002320462946FCF7C7FF40B1C6
:1039F0003846FCF7E7FC22462B46FCF7B5FF00B93A
:103A0000013F162F53D8DDE90C015C4B03EBC703D4
:103A1000D3E90023FCF7B2FF00284AD00023013F7E
:103A20000F93149B9B1B5A1E46BFC3F10108002332
:103A30004FF00008099248BF0993002F3BDB099B18
:103A40000E973B44099300230A93209B092B63D8CC
:103A5000052BC4BF043B2093209BC8BF0024A3F1C7
:103A60000203D8BF0124032B62D8DFE803F05153CF
:103A7000362BDDE914631E4406F23243202BC1BF0E
:103A8000C3F1400308FA03F806F2124324FA03F3E1
:103A9000D6BFC3F1200348EA030004FA03F0FCF7A1
:103AA00081FC0122A1F1F873013E129275E7012316
:103AB000B6E70F90B5E77B420A930023A8EB07080F
:103AC0000E93C2E701230B93219BFB18089301334C
:103AD000012B0393B8BF012306E001230B93219B25
:103AE000002B28DD0893039300210422DBF81C003F
:103AF00002F114059D4223D94160584600F088FD2B
:103B0000824600283ED1024640F2AF111C4BD7E658
:103B10000023E3E70023D6E7012400230B9420933E
:103B20004FF0FF3300220893039312232192DBE727
:103B300001230B93F4E701231A4608930393F5E757
:103B400001315200D4E700BF61436F63A787D23FC2
:103B5000B3C8608B288AC63FFB799F501344D33F7C
:103B6000E5530008FC5300080000F07FE153000813
:103B7000B5530008B45300080000F83F5055000842
:103B800055540008DBF81C301860039B0E2B00F224
:103B9000A180002C00F09E80002F33DD9C4B07F0AD
:103BA0000F0203EBC203F805D3E90034CDE9063474
:103BB0004FEA271416D5DDE90C01964B0326D3E90D
:103BC0000823FCF793FDCDE9040104F00F04914DA7
:103BD00054B9DDE90623DDE90401FCF787FDCDE9F1
:103BE000040128E00226F2E7E10708D5DDE9060135
:103BF000D5E90023FCF750FCCDE90601013664103D
:103C00000835E5E700F0AF80DDE90C017C42804B30
:103C100004F00F0203EBC203D3E90023FCF73CFCE2
:103C200002260023CDE904017A4D2411002C40F036
:103C30008F80002BD3D1DDE904450F9B002B00F0D2
:103C40009480002220462946734BFCF797FE0028FB
:103C500000F08B80039B002B00F08780089B002BDB
:103C600034DD7B1E20460693002229466B4BFCF771
:103C700013FCCDE90401089C01363046FCF7A2FB99
:103C8000DDE90423FCF708FC0022654BFCF74EFA43
:103C90000546A1F15076002C6AD1DDE9040100222D
:103CA000604BFCF741FA02460B46CDE904232A4655
:103CB0003346FCF781FE002840F08682DDE90401EE
:103CC0002A4606F10043FCF759FE38BBDDE90C3407
:103CD000CDE90434159B002BC0F258810E2F00F360
:103CE00055814B4B03EBC703D3E90034CDE90634D0
:103CF000219B002B80F2E580039B002B00F3E180E9
:103D00000CD1DDE906010022464BFCF7C5FBDDE9DD
:103D10000423FCF747FE002800F0548200242546C7
:103D2000219B5646DB43069300272146584600F068
:103D3000AFFC002D00F0BD802FB1AF4203D039465B
:103D4000584600F0A5FC2946584600F0A1FCB0E01A
:103D5000E20705D5D5E90023FCF79EFB01230136D8
:103D60006410083562E7022665E7039C069784E73E
:103D7000274B0B9903EBC40353E902235444002956
:103D800054D000202849FCF7B1FC33462A46FCF702
:103D9000CBF95646CDE91001DDE90401FCF72CFE14
:103DA0000546FCF70FFB02460B46DDE90401FCF774
:103DB000BBF902460B463035CDE90423DDE910237B
:103DC00006F8015BFCF7DAFD002872D1DDE9042377
:103DD00000201149FCF7A8F9DDE91023FCF7CEFD1E
:103DE000002840F0B480A6423FF470AFDDE9100136
:103DF00000220A4BFCF750FB0022CDE91001DDE95F
:103E00000401064BFCF748FBCDE90401C4E700BF01
:103E100050550008285500080000F03F00002440DD
:103E200000001C40000014400000E03F31462846DE
:103E3000FCF732FB5646CDE910011394DDE904018D
:103E4000FCF7DAFD0546FCF7BDFA02460B46DDE954
:103E50000401FCF769F902460B46303506F8015BB0
:103E6000A642CDE904234FF0000224D1DDE9100180
:103E7000B14BFCF75BF902460B46DDE90401FCF7A8
:103E80009BFD002863D1DDE910230020AA49FCF73F
:103E90004BF902460B46DDE90401FCF76FFD0028F3
:103EA0003FF414AF139E731E139316F8013C302B8E
:103EB000F8D0069F3BE0A14BFCF7EEFACDE90401F8
:103EC000BCE75646DDE90445DDE9062320462946E0
:103ED000FCF70CFCFCF790FD8046FCF773FADDE97B
:103EE0000623FCF7D9FA02460B4620462946FCF782
:103EF0001BF908F13004039D06F8014BA6EB0A04F8
:103F0000A54202460B4634D1FCF710F9DDE9062341
:103F100004460D46FCF750FDC0B9DDE906232046F6
:103F20002946FCF721FD10B118F0010F0ED14946CA
:103F3000584600F0ADFB00233370229B01371F6011
:103F4000249B002B00F03B821E6038E2069733462C
:103F50001E4613F8012D392A07D19A45F8D1069A41
:103F60000132069230228AF800201A7801321A7043
:103F70009FE70022714BFCF78FFA002200230446D2
:103F80000D46FCF7F1FC00289ED0D0E70B9A002AE2
:103F900000F0E080209A012A00F3BF80129A002AE4
:103FA00000F0B78003F233430A9C4646099A012188
:103FB0001A4458469844099200F01EFC05465EB12A
:103FC000099B002B08DDB342A8BF3346099AA8EB32
:103FD0000308F61AD31A09930A9BF3B10B9B002B23
:103FE00000F0BC808CB129462246584600F0BCFC4B
:103FF0004A4601460546584600F014FC49460690DC
:10400000584600F045FB069B99460A9B1A1B04D0B4
:104010004946584600F0A8FC81460121584600F068
:10402000EBFB0E9B0446002B00F0CD811A460146A7
:10403000584600F099FC209B0446012B00F3948025
:10404000049B002B40F08C80059BC3F31303002BD3
:1040500040F08880059B23F000431B0D1B052BB10E
:10406000099B08F101080133099301230A930E9B70
:10407000002B00F0AE81236904EB8303186900F084
:104080006FFBC0F12000099B184410F01F0076D090
:10409000C0F12003042B6ADD099BC0F11C0003441E
:1040A000804406440993B8F1000F05DD49464246B5
:1040B000584600F0B3FC8146099B002B05DD2146E4
:1040C0001A46584600F0AAFC04460F9B002B58D015
:1040D0002146484600F00EFD002852DA7B1E494674
:1040E00006930A220023584600F0F4FA0B9B8146FF
:1040F000002B00F07081002329460A22584600F068
:10410000E9FA089B0546002B66DC209B022B40DC6D
:1041100062E0149BC3F1360346E7039B5C1E0A9BD7
:10412000A3420DDB1C1B039B002BBFF63EAF039B82
:10413000A8EB0306002339E70000E03F000024401D
:104140000A9B0E9AE31A1A440A9446460024039BDB
:104150000E922BE746460A9C0B9D30E70A9A57E7DA
:10416000002383E7049B81E700230A9383E79AD027
:10417000099A1C331A4498441E44099293E7034653
:10418000F6E7039B0697002B20DC0893209B022B6D
:104190001EDD089B002B7FF4C3AD21460522584647
:1041A00000F098FA01460446484600F0A3FC0028B7
:1041B0007FF7B6AD3123564606F8013B069B013327
:1041C0000693B1E5039C06972546F3E7039B089306
:1041D0000B9B002B00F00381002E05DD29463246A3
:1041E000584600F01BFC05460A9B002B5AD0584647
:1041F000696800F00DFA064628B9024640F2EF2140
:10420000824BFFF75DBB2A6905F10C010232920077
:104210000C3000F0B3FE01223146584600F0FEFBA0
:104220002F4605460AF101030393089B53440B9361
:10423000049B03F001030A93039B2146013B48467C
:104240000493FFF7A0FA3946089000F13008484679
:1042500000F050FC2A4609902146584600F066FCC2
:10426000C268064602BB0146484600F043FC0246CF
:10427000314658460C9200F00BFA209B0C9A039E94
:1042800042EA03010A9B194310D1B8F1390F29D032
:10429000099B002B02DD089B03F13108049B83F886
:1042A000008042E52846BBE70122E1E7099B002B9D
:1042B00004DB20990B430A990B4320D1002AEDDD42
:1042C00049460122584600F0A9FB2146814600F0EC
:1042D00011FC002803DCE1D118F0010FDED0B8F1A9
:1042E000390FD8D13923049A137033461E4616F875
:1042F000012C013B392A51D001321A7015E5002AF0
:1043000007DDB8F1390FEDD0049A08F101031370FD
:104310000BE5039B0B9A03F8018C934228D0494686
:1043200000230A22584600F0D5F9AF4281464FF0EB
:1043300000034FF00A023946584607D100F0CAF987
:1043400007460546039B0133039375E700F0C2F966
:104350002946074600230A22584600F0BBF90546C5
:10436000F0E7089B0027002BCCBF1E4601265644D1
:1043700049460122584600F051FB2146814600F093
:10438000B9FB0028B1DC02D118F0010FADD13346E2
:104390001E4613F8012D302AFAD0C6E49A45A5D15D
:1043A000069B0133069331238AF80030BDE4249B39
:1043B000DFF85CA01BB10AF10803249A1360504691
:1043C00017B0BDE8F08F209B012B7FF739AE0E9B15
:1043D0000A93012057E6089B002B7FF7D7AE56467D
:1043E00021464846FFF7CFF900F13008089B06F850
:1043F000018BA6EB0A029342B3DD494600230A2251
:10440000584600F067F98146EAE700BF55540008B6
:10441000D853000838B50546002940D051F8043C6F
:104420000C1F002BB8BFE41800F0E6F81C4A136814
:1044300033B9636014602846BDE8384000F0E2B844
:10444000A34208D9206821188B4201BF19685B6814
:1044500009182160EDE71A465B680BB1A342FAD94F
:1044600011685018A0420BD12068014450188342B3
:104470001160E0D118685B68084410605360DAE7A7
:1044800002D90C232B60D6E7206821188B4201BF8C
:1044900019685B680918216063605460CBE738BD18
:1044A000D0050020024B0146186800F025B800BF77
:1044B000D000002070B50F4E0C463168054611B98A
:1044C00000F04CFD30602146284600F047FD431CBB
:1044D00003D14FF0FF34204670BDC41C24F0030408
:1044E000A042F8D0211A284600F038FD0130F2D160
:1044F000EFE700BFCC0500202DE9F843CD1C25F0E7
:10450000030508350C2D38BF0C25002D064601DBB0
:10451000A94204D90C2333600020BDE8F883DFF8FA
:10452000D48000F069F8D8F800301C4644BB294616
:104530003046FFF7BFFF431C044658D1D8F800406F
:104540002746002F43D1002C4BD0236839463046F4
:1045500004EB030900F002FD814542D12168304699
:104560006D1A2946FFF7A6FF01303AD023682B4485
:104570002360D8F800305A6862BBC8F800700FE0BA
:104580002268521B20D40B2A17D96119A342256037
:1045900018BF5960636808BFC8F8001062514B60CB
:1045A000304600F02FF804F10B00231D20F0070027
:1045B000C21A1CBF1B1AA350AFE76268A3420CBF0C
:1045C000C8F800205A60EBE723466468AEE73C4633
:1045D0007F68B6E71A465B68A342FBD100235360AD
:1045E000DEE70C233046336000F00CF894E70560FA
:1045F000D6E700BFD00500200148FFF7B4B800BFE0
:10460000C80500200148FFF7AFB800BFC80500206B
:1046100070B5C66904460D4676B91020FFF742FF13
:104620000246E06120B96B21174B184800F0B4FC3A
:10463000C0E901660660C660E669F36883B1E369B4
:10464000DB6853F82500B8B9012101FA05F6721D9F
:104650002046920000F0BEFC60B1C0E901560EE0B9
:1046600021220421204600F0B5FCE369F060DB68FC
:10467000002BE4D1002070BD026843F82520002300
:10468000C0E90333F7E700BFE553000866540008AC
:1046900070B5C66905460C4676B91020FFF702FFD3
:1046A0000246E86120B98F21084B094800F074FCEC
:1046B000C0E901660660C6603CB1EB696268DB6810
:1046C00053F82210216043F8224070BDE5530008E2
:1046D000665400082DE9F04107460C461E460020AE
:1046E0000D6901F1140CDCF80030013099B202FBC5
:1046F00001611E0C0B0C02FB063389B201EB034176
:1047000085424FEA13464CF8041BECDC0EB3A36859
:10471000AB4219DC616838460131FFF779FF80460A
:1047200028B90246BA210C4B0C4800F035FC22692E
:1047300004F10C01023292000C3000F01FFC214603
:104740003846FFF7A5FF444604EB850301355E615B
:1047500025612046BDE8F0815554000866540008E4
:104760000346B0F5803F3ABF030410200020B3F1A8
:10477000807F3CBF1B020830B3F1805F3CBF1B0150
:104780000430B3F1804F3CBF9B000230002B05DBAF
:1047900013F0804F00F1010008BF2020704703682C
:1047A000024613F007000BD0D90721D4980749BF60
:1047B0005B089B08012013605CBF022013607047F8
:1047C00099B209B910201B0CD9B209B908301B0ADB
:1047D000190704BF1B090430990704BF9B08023066
:1047E000D90703D45B0800F1010003D013607047C0
:1047F000002070472020704710B50C460121FFF7BC
:1048000007FF024628B940F24511044B044800F066
:10481000C3FB01234461036110BD00BF5554000870
:10482000665400082DE9F04F17460A693B6989462E
:104830009A42A2BF3B460F4699463D69D9F810A05F
:10484000BB68796805EB0A06B34285B0B8BF013191
:10485000FFF7DEFE30B902464FF4B171404B4148DC
:1048600000F09AFB00F114042346002204EB860EAC
:10487000734520D307F1140809F1140108EB8505ED
:1048800001EB8A030293EB1B153B23F00303043374
:104890001537BD4238BF04230193029B03918B421D
:1048A0000CD8002E03DD5EF8043D002B55D00661C8
:1048B00005B0BDE8F08F43F8042BD9E7B1F800A0AC
:1048C000BAF1000F1FD0C446A14600275CF8042BA4
:1048D000D9F800301FFA82FB9BB20AFB0B333B4432
:1048E000D9F80070120C3F0C0AFB027202EB134263
:1048F0009BB243EA024365454FEA124749F8043B3D
:10490000E4D8019BE750039B0431B3F80290B9F15E
:10491000000F20D04746A4464FF0000A2368B7F89E
:1049200000B0BCF802209BB209FB0B22524443EAC0
:1049300002434CF8043B57F8043B4FEA134ABCF8D7
:104940000030BD4209FB0A3303EB12434FEA134A1E
:10495000E5D8019AA35004349FE7013EA1E700BFC8
:1049600055540008665400082DE9F843154612F026
:10497000030207460E4607D0254C013A002354F89F
:104980002220FFF7A7FE0646AD103DD0FC697CB99A
:104990001020FFF787FD0246F86128B940F2B311F5
:1049A0001C4B1D4800F0F8FAC0E901440460C460E3
:1049B000D7F81C80D8F808404CB940F2712138462D
:1049C000FFF71AFF00230446C8F8080003604FF001
:1049D0000009EB070AD5314622463846FFF722FF89
:1049E000804631463846FFF753FE46466D100BD0E1
:1049F000206838B9224621463846FFF713FF206069
:104A0000C0F800900446E4E73046BDE8F88300BFF4
:104A100018550008E5530008665400082DE9F047D2
:104A20000C46074691462369496803EB6218A36860
:104A30004FEA621A08F10106B3420BDB3846FFF772
:104A4000E7FD054648B902464FF4EF71274B284869
:104A500000F0A2FA01315B00EEE7002300F114013F
:104A600000F110021846534533DB20692AEAEA7A3E
:104A700004F1140319F01F0901EB8A0103EB800C08
:104A80002BD08A460022C9F1200E186800FA09F0DE
:104A900010434AF8040B53F8042B9C4522FA0EF2FB
:104AA000F3D8ACEB0403153B23F00303043304F108
:104AB0001500604588BF0423CA500AB108F10206F8
:104AC000013E384621462E61FFF7E2FD2846BDE84B
:104AD000F08742F8040F0133C5E7043953F8042B7B
:104AE0009C4541F8042FF9D8EAE700BF5554000867
:104AF0006654000803460A69006930B5801A0ED171
:104B00001433143103EB820401EB820154F8045D89
:104B100051F8042D954203D005D24FF0FF3030BD3F
:104B2000A342F3D3FBE70120F9E700002DE9F74F9B
:104B300089460646114648461446FFF7DBFF051E28
:104B400012D129463046FFF763FD024628B940F2EC
:104B500037213E4B3E4800F01FFA0123C0E90435DF
:104B6000104603B0BDE8F08FBCBF4B46A1463046AF
:104B7000D9F80410BABF1C4601250025FFF748FDEF
:104B8000024618B940F24521304BE3E700F1140B1F
:104B9000D9F8107009F11003C5604FF0000C09F14D
:104BA0001405D946266904F1140E05EB87080EEBAF
:104BB00086060193019B5EF8040B53F804AF81B2A3
:104BC00001931FFA8AF35B1A000C6344C0EB1A408E
:104BD00000EB23409BB243EA004376454FEA204C6A
:104BE00049F8043BE6D8331B153B23F00303153487
:104BF0000433A64238BF04231D445B441E462C46A2
:104C000044450ED308F10301491B21F00301033D84
:104C1000A84538BF00210B4453F8041D99B1176112
:104C20009EE7E64654F8041B1FFA81FCF444080C86
:104C3000714400EB2C4089B241EA00414FEA204C1C
:104C400046F8041BDCE7013FE6E700BF55540008C7
:104C5000665400082DE97343012190469946089E49
:104C6000FFF7D6FC044630B9024640F20F31234B21
:104C7000234800F091F9C9F30A55C9F313030DB1A4
:104C800043F480130193B8F1000324D068460093E5
:104C9000FFF785FDDDE90012D8B1C0F1200302FA6B
:104CA00003F30B43C24063610192019B002B0CBFD5
:104CB00001220222A3612261ADB1A5F23345054470
:104CC0003560C0F13500099B1860204602B0BDE890
:104CD00070836161E9E701A8FFF761FD019B012293
:104CE00063612030E7E7A0F2324004EB82033060DA
:104CF0001869FFF735FDC0EB4210E4E75554000892
:104D000066540008B1F90C20F8B5160705460C46A4
:104D100054D44B68002B02DC0B6C002B48DDE66A98
:104D2000002E45D0002312F480522F68216A2B6098
:104D300030D0626DA389590705D56368D21A636BB9
:104D40000BB1236CD21A00232846E66A216AB047C9
:104D5000431CA38906D129681D292BD8284ACA409B
:104D6000D60727D5002262602269D904226004D5C3
:104D7000421C01D12B6803B96065616B2F60B9B12A
:104D800004F14403994202D02846FFF743FB002375
:104D900063630DE001232846B0470246501CC9D189
:104DA0002B68002BC6D01D2B01D0162B1DD12F60D8
:104DB000002021E043F040031BB21AE00F69002FEE
:104DC000F6D0930718BF00230E6808BF4B69F61B87
:104DD0000F608B60002EEBDD33463A462846216A91
:104DE000D4F828C0E047002807DCB4F90C3043F0C1
:104DF00040034FF0FF30A381F8BD0744361AE9E7BE
:104E00000100402038B50B6905460C4613B9002552
:104E1000284638BD18B1036A0BB9FEF719FBB4F97F
:104E20000C30002BF3D0626ED00704D4990502D465
:104E3000A06DFEF798FC28462146FFF763FF636EDE
:104E40000546DA07E4D4A3899B05E1D4A06DFEF7FB
:104E50008BFCDDE770B50C46B1F90E101546002944
:104E60001E4696B00CDAA389002113F0800F14BF00
:104E700040234FF48063002031602B6016B070BD7A
:104E80006A4600F049F80028EDDB019901F4704111
:104E9000A1F50053594259414FF48063EBE78B89E8
:104EA000F7B59D0706460C4607D504F14703236076
:104EB00023610123636103B0F0BD6A4601ABFFF7D4
:104EC000C9FF009F054639463046FFF715FB48B934
:104ED000B4F90C309A05EED423F0030343F0020337
:104EE000A381E2E7A389C4E9040743F08003A38117
:104EF000019B20605BB13046B4F90E1000F01EF843
:104F000028B1A38923F0030343F00103A381A389FC
:104F10001D43A581CFE7000038B50023064D0446A8
:104F2000084611462B60FCF762FE431C02D12B6839
:104F300003B1236038BD00BFC405002038B500238D
:104F4000054D044608462B60FCF756FE431C02D173
:104F50002B6803B1236038BDC405002038B5002399
:104F6000054D044608462B60FCF720FE431C02D189
:104F70002B6803B1236038BDC40500200A44914268
:104F800000F1FF3300D1704710B511F8014B914289
:104F900003F8014FF9D110BD1FB514461A46094B4D
:104FA00005461B68D8684CB1074BCDE90134009128
:104FB0002B46064900F042F800F052F8044B1C461C
:104FC000F3E700BFD0000020CA540008D7540008FF
:104FD0000555000870B5A1FB025434B92946FFF706
:104FE0008BFA064628B9304670BD0C2200260260B6
:104FF000F9E72A462146FEF739FBF4E782B001B90A
:1050000001A942B14BB113780B601278101E18BF82
:10501000012002B070471046FBE76FF00100F8E78F
:105020000346084641B1FF2A04D98A224FF0FF30D7
:105030001A60704701200A70704700000EB403B573
:10504000014603AB054853F8042B0068019300F0B8
:1050500035F802B05DF804EB03B07047D0000020D3
:10506000062008B500F06AF90120FCF77BFD936883
:1050700010B4013B002B936007DA9469A34201DB73
:105080000A2902D110BCFEF75CBA1368581C1060E4
:105090001970084610BC7047F8B506460F4614460E
:1050A000D518AC4201D1002007E03A46304614F84A
:1050B000011BFFF7DCFF431CF3D1F8BD2DE9F04FD6
:1050C0000D461446984606469DB018B1036A0BB9C2
:1050D000FEF7BEF96B6ED90705D4AB899A0502D4E9
:1050E000A86DFEF740FBAB891B0701D52B699BB967
:1050F00029463046FEF764FA70B16B6EDC0704D5C2
:105100004FF0FF301DB0BDE8F08FAB899805F7D4A4
:10511000A86DFEF729FBF3E70023099320238DF800
:10512000293030234FF00109CDF80C80DFF8A88139
:105130008DF82A3023469A4613F8012B0AB1252A06
:10514000F9D1BAEB040B0BD05B4622462946304618
:10515000FFF7A2FF013000F0A780099A5A44099294
:105160009AF80030002B00F09F8000234FF0FF32B0
:10517000CDE905230AF1010A049307938DF8533012
:105180001A935446052214F8011B5348FEF7EDFA12
:10519000049AD8B9D10644BF20238DF853301307A1
:1051A00044BF2B238DF853309AF800302A2B15D0AA
:1051B000544600204FF00A0C079A214611F8013B93
:1051C000303B092B4BD9B0B1079214E0A0EB080398
:1051D00009FA03F31343A2460493D2E7039B191D74
:1051E0001B680391002BBBBF5B4242F00202079396
:1051F0000793B8BF049223782E2B0AD163782A2B09
:1052000032D1039B02341A1D1B68039243EAE373F5
:105210000593DFF8C8A0032250462178FEF7A5FACF
:1052200038B14022049BA0EB0A00824013430134B2
:10523000049314F8011B062229488DF82810FEF764
:1052400094FA00283FD0274B1BBB039B073323F066
:10525000070308330393099B3B4409936AE70C4611
:1052600001200CFB0232A8E700234FF00A0C19467C
:1052700001340593204610F8012B303A092A03D94E
:10528000002BC6D00591C4E7044601230CFB012185
:10529000F0E703AB00932A463046134B04A9FDF711
:1052A0008FFC0746781CD6D16B6ED90705D4AB8925
:1052B0009A0502D4A86DFEF757FAAB895B063FF555
:1052C0001FAF09981EE703AB00932A463046064BF2
:1052D00004A9FDF713FFE4E7065500080C55000884
:1052E00010550008C12B0008995000081F2938B537
:1052F00005460C4604D9162303604FF0FF3038BD35
:10530000C26B12B152F821304BB9284600F030F888
:10531000224601462846BDE8384000F017B8012B68
:105320000AD0591C03D1162303600120E7E70021AE
:10533000204642F8241098470020E0E7024B01463F
:105340001868FFF7D3BF00BFD000002038B5002396
:10535000064D0446084611462B60FCF7FBFB431C38
:1053600002D12B6803B1236038BD00BFC405002003
:10537000FCF7EEBBF8B500BFF8BC08BC9E46704712
:0C538000F8B500BFF8BC08BC9E467047A2
:1053900002040608000000000102030401020304E5
:1053A00006070809494E4600696E66004E414E00E8
:1053B0006E616E0030003031323334353637383973
:1053C0004142434445460030313233343536373874
:1053D0003961626364656600496E66696E697479F5
:1053E000004E614E005245454E54206D616C6C6F0D
:1053F0006320737563636565646564002F6461741D
:10540000612F6A656E6B696E732F776F726B737045
:105410006163652F474E552D746F6F6C63686169CA
:105420006E2F61726D2D31332F7372632F6E65771E
:105430006C69622D63796777696E2F6E65776C6929
:10544000622F6C6962632F7374646C69622F647479
:105450006F612E630042616C6C6F632073756363D0
:105460006565646564002F646174612F6A656E6BA5
:10547000696E732F776F726B73706163652F474E20
:10548000552D746F6F6C636861696E2F61726D2D3D
:1054900031332F7372632F6E65776C69622D637978
:1054A0006777696E2F6E65776C69622F6C696263CE
:1054B0002F7374646C69622F6D707265632E630064
:1054C0004300504F534958002E002C2066756E63E0
:1054D00074696F6E3A2000617373657274696F6EE0
:1054E0002022257322206661696C65643A20666912
:1054F0006C6520222573222C206C696E6520256442
:10550000257325730A00232D302B2000686C4C0076
:105510006566674546470000050000001900000069
:105520007D000000000000000080E03779C34143A7
:10553000176E05B5B5B89346F5F93FE9034F384DF9
:10554000321D30F94877825A3CBF737FDD4F1575A5
:10555000000000000000F03F0000000000002440B8
:1055600000000000000059400000000000408F4093
:10557000000000000088C34000000000006AF840FE
:105580000000000080842E4100000000D012634122
:105590000000000084D797410000000065CDCD4198
:1055A000000000205FA00242000000E87648374279
:1055B000000000A2941A6D42000040E59C30A24217
:1055C0000000901EC4BCD64200003426F56B0C438C
:1055D0000080E03779C3414300A0D8855734764333
:1055E00000C84E676DC1AB43003D9160E458E14394
:1055F000408CB5781DAF154450EFE2D6E41A4B4409
:1056000092D54D06CFF08044F64AE1C7022DB5444D
:10561000B49DD9794378EA4400202020202020201E
:105620002020282828282820202020202020202052
:105630002020202020202020208810101010101062
:1056400010101010101010101004040404040404AE
:105650000404041010101010101041414141414148
:10566000010101010101010101010101010101012A
:10567000010101011010101010104242424242423A
:1056800002020202020202020202020202020202FA
:1056900002020202101010102000000000000000A2
:1056A00000000000000000000000000000000000FA
:1056B00000000000000000000000000000000000EA
:1056C00000000000000000000000000000000000DA
:1056D00000000000000000000000000000000000CA
:1056E00000000000000000000000000000000000BA
:1056F00000000000000000000000000000000000AA
:105700000000000000000000000000000000000099
:0C5710000000000000000000000000008D
:08571C00F4A9FF7F0100000069
:04572400B10A0008BE
:04572800890A0008E2
:10572C0058029D026301B8024801000000A24A041D
:10573C00000000000000000000000000000000005D
:10574C000000000000000000040000000000000049
:10575C00000000000000000000000000000000003D
:10576C00000000000000000000000000000000002D
:10577C00000000000000000000000000E803000032
:10578C0018000000000000000000000000000000F5
:10579C00000000000000000000000000007D000080
:1057AC0000000000000000000000000000000000ED
:1057BC0000000000000000000000000000000000DD
:1057CC00000000000000000000000000007D000050
:1057DC0000000000000000000000000000000000BD
:1057EC0000000000000000000300000088040020FE
:1057FC00D40000200000000088040020F0040020E9
:10580C00580500200000000000000000000000000F
:10581C00000000000000000000000000000000007C
:10582C00000000000000000000000000000000006C
:10583C00000000000000000000000000000000005C
:10584C004300000000000000000000000000000009
:10585C00000000000000000000000000000000003C
:10586C0043000000000000000000000000000000E9
:10587C00000000000000000000000000000000001C
:10588C0043000000000000000000000000000000C9
:10589C0000000000000000000000000000000000FC
:1058AC0043000000000000000000000000000000A9
:1058BC0000000000000000000000000000000000DC
:1058CC004300000000000000000000000000000089
:1058DC0000000000000000000000000000000000BC
:1058EC004300000000000000000000000000000069
:1058FC00000000000000000000000000000000009C
:10590C004300000000000000000000000000000048
:10591C00000000000000000000000000000000007B
:10592C0021500008FD4F0008000000001856000828
:10593C00C854000805550008055500080555000811
:10594C0005550008055500080555000805550008C3
:10595C000555000805550008FFFFFFFFFFFFFFFF7F
:10596C00FFFFFFFFFFFF00000100415343494900C7
:10597C00000000000000000000000000000000001B
:10598C0000000000000000000000415343494900A2
:10599C0000000000000000000000000000000000FB
:0C59AC00000000000000000000000000EF
:0400000508002A398C
:00000001FF
