:020000040800F2
:10000000E8060020E1020008E9020008EB0200080F
:10001000ED020008EF020008F102000800000000F5
:10002000000000000000000000000000F3020008D3
:10003000F502000800000000F70200087124000823
:10004000FB020008FB020008FB020008FB0200089C
:10005000FB020008FB020008FB020008FB0200088C
:10006000FB020008FB020008FB020008FB0200087C
:10007000FB020008FB020008FB020008FB0200086C
:10008000FB020008FB020008FB020008FB0200085C
:10009000FB020008FB020008FB020008FB0200084C
:1000A00079240008552F0008FB020008FB02000815
:1000B000A9370008FB020008FB020008FB02000849
:1000C000FB020008FB020008FB020008FB0200081C
:1000D000FB020008FB020008FB020008FB0200080C
:1000E000FB020008FB020008FB020008DFF80CD04E
:1000F00003F084FD00480047C9230008E8060020FB
:100100000CB50020019000906C48006840F48030ED
:100110006A49086000BF6948006800F40030009038
:100120000198401C0190009818B90198B0F5A06F93
:10013000F1D16248006800F4003010B10120009055
:1001400001E0002000900098012843D15C4800683D
:1001500040F010005A4908600846006820F003008B
:1001600008600846006840F0020008605348406894
:10017000524948600846406848600846406840F474
:10018000806048600846406820F47C10486008465B
:10019000406840F4E81048600846006840F080700D
:1001A000086000BF4548006800F000700028F9D0E2
:1001B0004248406820F003004049486008464068D3
:1001C00040F00200486000BF3C48406800F00C006E
:1001D0000828F9D10CBD10B5FFF792FF10BD10B57E
:1001E0003648006840F0010034490860084640681D
:1001F000344908403149486008460068324908409F
:100200002E4908600846006820F4802008600846EF
:10021000406820F4FE0048604FF41F008860FFF73C
:10022000DAFF4FF000602949086010BD10B50021C9
:1002300000200022214B5B6803F00C0121B104294E
:1002400006D0082928D107E0214B224C236027E063
:100250001F4B204C236023E0184B5B6803F47010A5
:10026000164B5B6803F48032022303EB904022B903
:10027000194B4343174C23600DE0104B5B6803F4AC
:10028000003323B1144B4343124C236003E0104B63
:100290004343104C236003E00D4B0E4C236000BF22
:1002A00000BF064B5B68C3F303130C4CE15C094BC6
:1002B0001B68CB40074C236010BD000000100240BB
:1002C000002002400000FFF8FFFFF6FE08ED00E00E
:1002D00000127A000000002000093D000400002008
:1002E0000648804706480047FEE7FEE7FEE7FEE7D0
:1002F000FEE7FEE7FEE7FEE7FEE7FEE7DF010008B8
:10030000ED00000831490143314A1160704770B572
:10031000002100230F22C47804B32D4C246804F478
:10032000E064C4F5E064210AC1F10403CA404478E2
:1003300004FA03F18478144021430901254C06781E
:10034000A155047804F01F050124AC4005786D1117
:10035000AD0005F1E025C5F8004109E0047804F09E
:100360001F050124AC401C4D0678761145F8264047
:1003700070BD1A4A0A400243154B1B1F1A60704792
:1003800039B1134A121D12680243114B1B1D1A602A
:1003900006E00F4A121D126882430D4B1B1D1A60A6
:1003A0007047042808D14FF0E021096941F00401A9
:1003B0004FF0E022116107E04FF0E021096921F0E0
:1003C00004014FF0E0221161704700000000FA05BF
:1003D0000CED00E000E400E080E100E080FFFF1FA2
:1003E00010B50446FA48844208D10121401500F0B6
:1003F0007FFE0021601500F07BFE17E0F548844287
:1004000008D10121001500F073FE0021201500F035
:100410006FFE0BE0F048844208D10121C80300F0D0
:1004200067FE00214FF4004000F062FE10BD30B5C1
:100430000246002000235068E84C20400D790C68EB
:1004400044EA0524204350609068E54C2040D1E9FF
:1004500002542C434D7944EA450420439060D06A0D
:1004600020F470000C7C641EE4B2234340EA035085
:10047000D06230BD00210160017141718160C160B5
:1004800001210174704721B1826842F0010282604B
:1004900003E0826822F001028260704721B1826825
:1004A00042F48072826003E0826822F4807282608B
:1004B000704710B50023CBB21AB144681C434460A6
:1004C00002E044689C43446010BD816841F008012B
:1004D00081607047014600208A6802F008020AB174
:1004E000012000E000207047816841F00401816034
:1004F0007047014600208A6802F004020AB1012018
:1005000000E00020704721B1826842F4A0028260BE
:1005100003E0826822F4A002826070470146002056
:100520008A6802F480020AB1012000E000207047CE
:1005300010B50A4600210023416821F46041531E92
:1005400041EA4331416010BD21B1426842F400628A
:10055000426003E0426822F4006242607047F0B5F6
:1005600004460D4600200021092D11DDE068A5F1AB
:100570000A0606EB4607072606FA07F18843A5F1A7
:100580000A0606EB460603FA06F10843E0600CE0B3
:10059000206905EB4507072606FA07F1884305EBB6
:1005A000450603FA06F108432061072A0FDA606B5B
:1005B000561E06EB86071F2606FA07F18843561ECD
:1005C00006EB860605FA06F10843606322E00D2A71
:1005D0000FDA206BD61F06EB86071F2606FA07F1F7
:1005E0008843D61F06EB860605FA06F1084320630A
:1005F00010E0E06AA2F10D0606EB86071F2606FA58
:1006000007F18843A2F10D0606EB860605FA06F10E
:100610000843E062F0BD21B1826842F4801282603A
:1006200003E0826822F48012826070470146C86C41
:1006300080B2704766484C300068704721B142680C
:1006400042F48062426003E0426822F480624260C9
:10065000704721B1426842F48052426003E0426830
:1006600022F48052426070470A460021816821F4DA
:10067000E04111438160704721B1826842F4004239
:10068000826003E0826822F400428260704721B1F8
:10069000826842F40212826003E0826822F402124D
:1006A00082607047014600208A6802F400120AB195
:1006B000012000E000207047F0B5044615460020F8
:1006C00000220026092911DDE068A1F10A0707EBE5
:1006D000470C072707FA0CF29043A1F10A0707EB32
:1006E000470703FA07F21043E0600CE0206901EBD2
:1006F000410C072707FA0CF2904301EB410703FA7C
:1007000007F210432061A06BC0F30156EF1C06F105
:10071000010CA7EB0C0707EB870C1F2707FA0CF25D
:100720009043EF1C06F1010CA7EB0C0707EB8707C2
:1007300001FA07F21043A063F0BD10B50A4600218C
:100740000023816B21F44011531E41EA0351816360
:1007500010BD08B5002300930090009B0B4400934C
:10076000009B1A6008BD08B5024600200090009268
:1007700001F12800009B184400900098006880B2A6
:1007800008BD0A4600214168164B194011434160DB
:1007900070474162826270470A460021416821F039
:1007A0001F0111434160704740B109490831096890
:1007B00041F40001064A0832116007E0044908319B
:1007C000096821F40001024A0832116070470000F4
:1007D0000024014000280140003C0140FFFEF0FFE2
:1007E000FDF7F1FFFFFD3FFF0246002013680B40BD
:1007F0000BB1012000E000207047CA43026070473F
:1008000070B502460020002300240B125568CEB2BA
:1008100005EA060415681D4015B10CB1012000E081
:10082000002070BD00220A12D3430360704700000D
:1008300001684FF6FE7211400160002101604160C5
:100840008160C1608D49884208D18C490839496866
:1008500041F00F01894A083A51608AE08749143112
:10086000884208D185490839496841F0F001834A36
:10087000083A51607DE081492831884208D17F499A
:100880000839496841F470617C4A083A516070E067
:100890007A493C31884208D178490839496841F49D
:1008A0007041764A083A516063E074495031884299
:1008B00008D172490839496841F470216F4A083AF1
:1008C000516056E06D496431884208D16B4908395E
:1008D000496841F47001694A083A516049E0674942
:1008E0007831884208D165490839496841F070611A
:1008F000624A083A51603CE06149884206D1011FD2
:10090000096841F00F01021F116032E05C491431A7
:10091000884208D15A49091F096841F0F001584A34
:10092000121F116025E056492831884208D15449E8
:10093000091F096841F47061514A121F116018E0E3
:100940004F493C31884208D14D49091F096841F49B
:1009500070414B4A121F11600BE0494950318842E7
:1009600007D14749091F096841F47021444A121F01
:100970001160704710B50022026847F6F0739A4381
:100980000C6A8B6823430C6923434C6923438C69AD
:100990002343CC6923434C6A23438C6A23431A4381
:1009A0000260CB6843600B6883604B68C36010BD16
:1009B0000021016041608160C1600161416181612C
:1009C000C161016241628162704721B1026842F0F7
:1009D0000102026004E002684FF6FE731A400260F2
:1009E00070471AB103680B43036002E003688B434E
:1009F00003607047416070470146486880B27047A5
:100A000001460020002201F080531BB11C4B083B23
:100A10001A6802E0194B083B1A6802EA01030BB19D
:100A2000012000E00020704700F0805119B1144906
:100A3000091F086002E01149083948607047014603
:100A40000020002201F080531BB10D4B083B1A68B7
:100A500002E00A4B083B1A6802EA01030BB10120CD
:100A600000E00020704700F0805119B10449091FCF
:100A7000086002E0014908394860704708000240F8
:100A80000804024010B50446CC48844208D1012134
:100A9000042000F02DFB0021042000F029FB46E09B
:100AA000C748844208D10121082000F021FB002121
:100AB000082000F01DFB3AE0C248844208D1012121
:100AC000102000F015FB0021102000F011FB2EE09B
:100AD000BD48844208D10121202000F009FB0021FB
:100AE000202000F005FB22E0B848844208D1012113
:100AF000402000F0FDFA0021402000F0F9FA16E055
:100B0000B348844208D10121802000F0F1FA00218D
:100B1000802000F0EDFA0AE0AE48844207D10121BE
:100B2000801500F0E5FA0021A01500F0E1FA10BDF3
:100B300010B50121084600F0DBFA0021012000F089
:100B4000D7FA10BD2DE9F04102460025002600200D
:100B500000230024002791F803C00CF00F0591F842
:100B600003C00CF0100CBCF1000F03D091F802C0D0
:100B70004CEA050591F800C0BCF1000F31D01468B3
:100B800000202BE04FF0010C0CFA00F3B1F800C08C
:100B90000CEA03069E4220D183004FF00F0C0CFAA2
:100BA00003F7BC4305FA03FC4CEA040491F803C0C4
:100BB000BCF1280F06D14FF0010C0CFA00FCC2F872
:100BC00014C00AE091F803C0BCF1480F05D14FF002
:100BD000010C0CFA00FCC2F810C0401C0828D1D34C
:100BE0001460B1F800C0BCF1FF0F34DD5468002080
:100BF0002EE000F1080C4FF0010808FA0CF3B1F8F0
:100C000000C00CEA03069E4221D183004FF00F0C76
:100C10000CFA03F7BC4305FA03FC4CEA040491F810
:100C200003C0BCF1280F05D100F1080C08FA0CF83C
:100C3000C2F8148091F803C0BCF1480F07D100F14D
:100C4000080C4FF0010808FA0CF8C2F81080401C9C
:100C50000828CED35460BDE8F0814FF6FF710180C3
:100C6000022181700421C170704702460020936800
:100C70000B400BB1012000E000207047014688685E
:100C800080B2704702460020D3680B400BB10120B0
:100C900000E0002070470146C86880B270470161DB
:100CA0007047416170470AB1016100E041617047DE
:100CB000C16070474FF480320A4382618161826172
:100CC00082698269704702460020434B18684FF6DC
:100CD0008073184040EA021008433F4B1860704789
:100CE0003E49C8617047F0B50A4600230024002140
:100CF000002500F00046B6F1004F02D1364EF169F2
:100D000001E0354E7168C0F3034583B200F440162C
:100D1000B6F5401F08D121F070612F4E766826F09D
:100D200070662D4F7E6012E000F48016B6F5801FCD
:100D300006D1032606FA05F4A14341F0706106E0EE
:100D4000460D360103FA06F6B14341F0706122B157
:100D5000460D360103FA06F6314300F00046B6F1BF
:100D6000004F02D11C4EF16101E01B4E7160F0BDDD
:100D700030B500228B071C0F0F2303FA04F2164B29
:100D800008338C1053F824309343134C08348D10DF
:100D900044F8253023468C1053F824308C07240F58
:100DA00000FA04F423430C4C08348D1044F8253029
:100DB00030BD0A49DC31086070470000000801407E
:100DC000000C0140001001400014014000180140D7
:100DD000001C0140002001400000014000002042B2
:100DE000DF48006840F00100DD49086008464068BF
:100DF000DC490840DA49486008460068DA4908409A
:100E0000D74908600846006820F48020086008463A
:100E1000406820F4FE0048604FF41F00886070476F
:100E2000CF49096821F48031CD4A11601146096823
:100E300021F480211160B0F5803F03D0B0F5802F00
:100E40000ED106E0C649096841F48031C44A1160F8
:100E500007E0C349096841F4A021C14A116000E0DC
:100E600000BF00BF704710B50146002200230020DC
:100E70004A11012A02D1BA4C236806E0022A02D1A3
:100E8000B74C236A01E0B64C636A01F01F020124EB
:100E900094401C400CB1012000E0002010BD38B58A
:100EA000002000900024002500BF3120FFF7DBFF69
:100EB00005460098401C00900098B0F5A06F01D046
:100EC000002DF2D03120FFF7CEFF08B1012400E061
:100ED0000024204638BD01460020A14A106820F0B9
:100EE000F80040EAC10010607047A04908607047F0
:100EF000024600209A4B586820F47C1042EA010315
:100F00001843974B586070479849086670470146E8
:100F10000020934A506820F0030008435060704757
:100F20008F48406800F00C007047014600208C4A52
:100F3000506820F0F00008435060704701460020E0
:100F4000874A506820F4E0600843506070470146CB
:100F50000020834A506820F4605040EAC10050608D
:100F6000704729B17E4A527A02437D4B5A7204E09F
:100F70007B4A527A82437A4B5A7270477B49D83106
:100F80000860704701460020754A506820F44040D0
:100F90000843506070470021714A20321170704A36
:100FA00082F82010012802D004280AD104E001218F
:100FB0006B4A2032117005E00521694A2032117018
:100FC00000E000BF00BF704769490860704764498E
:100FD000096A0143624A11627047654944390860F1
:100FE000704730B500210022002400235C4D6D685D
:100FF00005F00C0121B1042905D0082923D105E011
:101000005C4D056022E05B4D05601FE0544D6D684E
:1010100005F47012524D6D6805F48034022505EB1D
:1010200092421CB9544D554305600BE04C4D6D6820
:1010300005F400351DB1504D5543056002E04D4D9E
:101040005543056002E04B4D056000BF00BF444DB5
:101050006D6805F0F0010909484D6B5C0568DD40DD
:1010600045603F4D6D6805F4E061090A434D6B5CD6
:101070004568DD4085603A4D6D6805F46051C90AE8
:101080003E4D6B5C4568DD40C560354D6D6805F4CF
:101090004041890B3A4D6B5CC568B5FBF3F50561C2
:1010A00030BD29B12E4A526902432D4B5A6104E0EA
:1010B0002B4A526982432A4B5A61704729B1284A08
:1010C00092690243264B9A6104E0254A9269824361
:1010D000234B9A61704729B1214AD2690243204BC0
:1010E000DA6104E01E4AD26982431D4BDA6170471F
:1010F00029B11B4AD2680243194BDA6004E0184A4E
:10110000D2688243164BDA60704729B1144A1269DB
:101110000243134B1A6104E0114A12698243104BD7
:101120001A61704712494039086070470F49C86416
:1011300070470B49C87170470948406A40F0807099
:1011400007494862704701460020054A92680A40F4
:101150000AB1012000E00020704701498872704701
:10116000001002400000FFF8FFFFF6FE00004242C0
:101170008004424200127A0000093D001400002061
:101180002400002010B50446FE48844208D1012105
:10119000C014FFF7ADFF0021E014FFF7A9FFC4E082
:1011A000B4F1804F08D101210846FFF7AEFF0021BE
:1011B0000120FFF7AAFFB8E0F348844208D10121DB
:1011C0000220FFF7A2FF00210220FFF79EFFACE004
:1011D000EE48844208D101210420FFF796FF002148
:1011E0000420FFF792FFA0E0E948844208D10121E2
:1011F0000820FFF78AFF00210820FFF786FF94E010
:10120000E448844208D101211020FFF77EFF00212D
:101210001020FFF77AFF88E0DF48844208D10121DF
:101220002020FFF772FF00212020FFF76EFF7CE0F7
:10123000DA48844208D101214014FFF759FF002108
:101240006014FFF755FF70E0D548844209D10121B1
:10125000C804FFF74DFF00214FF40020FFF748FFBF
:1012600063E0D048844209D101210805FFF740FF1F
:1012700000214FF48010FFF73BFF56E0CA4884423C
:1012800009D101214805FFF733FF00214FF4001079
:10129000FFF72EFF49E0C548844208D101214020D4
:1012A000FFF733FF00214020FFF72FFF3DE0C0484C
:1012B000844208D101218020FFF727FF00218020F0
:1012C000FFF723FF31E0BB48844208D1012180159C
:1012D000FFF71BFF0021A015FFF717FF25E0B64819
:1012E000844209D101210804FFF702FF00214FF4D5
:1012F0008030FFF7FDFE18E0B048844209D101219B
:101300004804FFF7F5FE00214FF40030FFF7F0FE30
:101310000BE0AB48844208D101218804FFF7E8FEC6
:1013200000214FF48020FFF7E3FE10BD0022028869
:10133000944B98420ED0994B98420BD0B0F1804F0D
:1013400008D0914B984205D0904B984202D0904BD8
:10135000984204D14FF68F731A404B881A438D4B35
:10136000984207D08C4B984204D04FF6FF431A4066
:10137000CB881A4302808B8883850B880385814B39
:1013800098420BD0854B984208D08B4B984205D0A1
:101390008A4B984202D08A4B984201D10B7A03863D
:1013A00001238382704770B5002400220023058C3E
:1013B0004FF6FE7635400584028C8388048B4FF609
:1013C0008F752C40B51E2C400D882C43751E2A406D
:1013D0000D892A434D882A436A4DA8420BD06F4D90
:1013E000A84208D0744DA84205D0744DA84202D03E
:1013F000734DA84213D14FF6F7752A404D892A4301
:101400004FF6FB752A408D882A434FF6FF652B4027
:101410004FF6FF552B408D892B43CD892B4383807D
:101420000483CD888586028470BD70B500240022B7
:101430000023058C4FF6EF7635400584028C8388B7
:10144000048B48F6FF752C404FF6FF452C400D8865
:101450004FF6FF7606EA05252C434FF6DF752A4046
:101460000D8906EA05152A434D8806EA05152A4323
:10147000444DA84202D0494DA8421DD14FF67F7578
:101480002A404D894FF6FF7606EA05152A434FF6A6
:10149000BF752A408D8806EA05152A434FF6FF35A9
:1014A0002B404FF2FF752B408D8906EA85052B43B3
:1014B000CD8906EA85052B4383800483CD88058783
:1014C000028470BD70B5002400220023058C4FF605
:1014D000FF6635400584028C8388848B4FF68F75B8
:1014E0002C404FF6FC752C400D882C434FF6FF55D1
:1014F0002A400D894FF6FF7606EA05252A434D88D6
:1015000006EA05252A431F4DA84202D0234DA842D2
:101510001DD14FF2FF752A404D894FF6FF7606EA3E
:1015200005252A434FF6FF352A408D8806EA052512
:101530002A434EF6FF752B404DF6FF752B408D89E3
:1015400006EA05152B43CD8906EA05152B43838052
:101550008483CD888587028470BD70B50022002306
:101560000024058C4EF6FF7635400584038C848874
:10157000828B48F6FF752A404FF6FF452A400D88BA
:1015800020E00000002C0140000400400008004062
:10159000000C0040001000400014004000340140E6
:1015A000004C014000500140005401400018004030
:1015B000001C004000200040004001400044014069
:1015C000004801404FF6FF7606EA05252A434DF60E
:1015D000FF752B400D8906EA05352B434D8806EA39
:1015E00005352B43FA4DA84202D0FA4DA84208D146
:1015F0004BF6FF752C408D894FF6FF7606EA851570
:101600002C4384808283CD88A0F84050038470BD31
:10161000828B4FF2FF331A408283828B4FF6FF7327
:1016200003EA01231A4382837047F0B50C4615463E
:10163000002200210026078C4EF6FF7C07EA0C07EB
:101640000784828B018C4FF6FF7707EA043640F659
:10165000FF473A404FF6FF7707EA05273A434FF630
:10166000FF7707EA03373A43D94FB8420ED0D94F34
:10167000B8420BD0B0F1804F08D0D74FB84205D058
:10168000D64FB84202D0D64FB84206D14DF6FF77BA
:10169000394046F48057394305E047F6FF57394053
:1016A00044F48057394382830184F0BD828B4FF626
:1016B000F3731A408283828B0A4382837047F0B5AA
:1016C0000C461546002200210026078C4FF6FF6CC1
:1016D00007EA0C070784828B018C4FF6FF7707EA35
:1016E00004264FF60C773A404FF6FF7707EA0317C8
:1016F0002F433A43B64FB8420ED0B64FB8420BD044
:10170000B0F1804F08D0B44FB84205D0B34FB842C3
:1017100002D0B34FB84206D14FF6FF57394046F4D6
:101720008077394305E04FF2FF57394044F4807722
:10173000394382830184F0BD028B4FF2FF331A409C
:101740000283028B4FF6FF7303EA01231A430283DD
:101750007047F0B50C461546002200210026078C84
:101760004FF6EF7C07EA0C070784028B018C4FF6DB
:10177000FF7707EA041640F6FF473A404FF6FF7737
:1017800007EA03373A434FF6FF7707EA05273A435C
:101790008F4FB8420ED08F4FB8420BD0B0F1804F70
:1017A00008D08D4FB84205D08C4FB84202D08C4F34
:1017B000B84206D14FF6DF77394046F0100739437B
:1017C00005E04FF65F77394044F010073943028354
:1017D0000184F0BD028B4FF6F3731A400283028B33
:1017E0000A4302837047F0B50C46154600220021DB
:1017F000068C4FF6FE773E400684028B018C4FF636
:101800000C7632407E1C06EA03162E433243704E9D
:10181000B0420ED06F4EB0420BD0B0F1804F08D026
:101820006D4EB04205D06D4EB04202D06C4EB0420B
:1018300006D14FF6FD76314044F00106314305E014
:101840004FF6F576314044F00106314302830184BE
:10185000F0BD70B505460C465D4885420ED05D482A
:1018600085420BD0B5F1804F08D05B48854205D04A
:101870005A48854202D05A48854200D100E000BF54
:10188000208850B92389A28861882846FFF7ABFFDA
:10189000E1882846FFF79EFF25E0208804280AD12A
:1018A0002389A28861882846FFF753FFE1882846EC
:1018B000FFF742FF17E0208808280AD12389A28871
:1018C00061882846FFF7FBFEE1882846FFF7EEFE19
:1018D00009E02389A28861882846FFF7A6FEE188EF
:1018E0002846FFF795FE70BD2DE9F04105460C46F0
:1018F00000260127608808B9022600E00026A0889B
:10190000012801D1022700E001272088A0B92389FE
:10191000A28861882846FFF766FFE1882846FFF71E
:1019200059FF23893A4631462846FFF712FFE188DE
:101930002846FFF701FF13E02389A2886188284623
:10194000FFF707FFE1882846FFF7F6FE23893A46AE
:1019500031462846FFF747FFE1882846FFF73AFF60
:10196000BDE8F0810A884B881A438B881A43CB88DC
:101970001A430B891A434B891A438B891A43A0F8DF
:10198000442070474FF6FF71818000210180C180A3
:101990004180017270470021018041808180C180B7
:1019A000018141818181C181704700210180418095
:1019B000012181800021C1800181704700210180C7
:1019C00041808180C1800181418181817047000017
:1019D000002C014000340140000400400008004099
:1019E000000C004021B1028842F00102028004E0B4
:1019F00002884FF6FE731A400280704731B1B0F88A
:101A0000442042F40042A0F8442005E0B0F844200D
:101A1000C2F30E02A0F8442070471AB183890B4329
:101A2000838102E083898B43838170478182704781
:101A300041EA0203A0F8483070471AB183890B438A
:101A4000838102E083898B438381704701894FF64C
:101A5000F8721140018170470A46002101894FF652
:101A60008F73194011430181704730B504460D460C
:101A700029462046FFF7F0FF208940F0070020812B
:101A800030BD2DE9F04104460D4616461F46602D37
:101A900006D13B46012231462046FFF75AFE05E0BB
:101AA0003B46012231462046FFF79DFE294620464F
:101AB000FFF7D2FF208940F007002081BDE8F081C8
:101AC00030B50C4600210189C9B24FF6FF7505EA11
:101AD0000325154325432943018130BD2DE9F041FC
:101AE00005460E4617469846002443463A46314678
:101AF0002846FFF7E5FF2C894FF6F870044044F0C4
:101B000007044FF68F70044044F070042C81BDE848
:101B1000F081F0B504460D4616461F463B46324658
:101B200029462046FFF7CCFF208940F480402081E1
:101B3000F0BD0185828270470A46002101884FF678
:101B40008F731940114301807047F0B50C4615465C
:101B50001E460021002200230189028B038C4FF6D0
:101B6000F877394021434FF6FC473A4040F20117DD
:101B70003A434FF6DD773B404FF6FF7707EA06170B
:101B80002F433B43018102830384F0BD0A460021B9
:101B9000018B4FF68F7319401143018370470A463A
:101BA0000021018B48F6FF7319404FF6FF7303EADB
:101BB00002231943018370470A460021818B4FF6A7
:101BC0008F7319401143818370470A460021818B2E
:101BD00048F6FF7319404FF6FF7303EA02231943D7
:101BE0008183704721B1028842F08002028004E0C4
:101BF00002884FF67F731A400280704721B18288B5
:101C000042F00402828004E082884FF6FB731A409F
:101C10008280704721B1828842F00802828004E00D
:101C200082884FF6F7731A408280704721B182880C
:101C300042F00102828004E082884FF6FE731A406F
:101C4000828070470A460021018B4FF6F7731940D6
:101C50001143018370470A460021018B4FF2FF7345
:101C600019404FF6FF7303EA0223194301837047BB
:101C70000A460021818B4FF6F77319401143818387
:101C800070470A460021818B4FF2FF7319404FF6CF
:101C9000FF7303EA02231943818370470A46002138
:101CA000018B4FF6FB7319401143018370470A46BD
:101CB0000021018B4FF6FF3319404FF6FF7303EA03
:101CC00002231943018370470A460021818B4FF696
:101CD000FB7319401143818370470A460021818BB1
:101CE0004FF6FF3319404FF6FF7303EA02231943FF
:101CF000818370470A460021018B4FF67F7319409C
:101D00001143018370470A460021018BC1F30E0184
:101D10004FF6FF7303EA02231943018370470A4613
:101D20000021818B4FF67F731940114381837047E7
:101D30000A460021818BC1F30E014FF6FF7303EABF
:101D400002231943818370470A460021018C4FF614
:101D5000FD7319401143018470470A460021018C2C
:101D60004FF6F77319401143018470470A4600216A
:101D7000018C4FF6DF7319404FF6FF7303EA02132D
:101D80001943018470470A460021018C4FF67F7386
:101D900019404FF6FF7303EA021319430184704799
:101DA0000A460021018C4FF6FF5319404FF6FF738E
:101DB00003EA02231943018470470A460021018C7B
:101DC0004FF2FF7319404FF6FF7303EA02231943E2
:101DD000018470470A460021018C4DF6FF731940BB
:101DE0004FF6FF7303EA023319430184704730B59D
:101DF000002301248C40A3B2048C9C430484048CF3
:101E000002FA01F5ADB22C43048430BD30B5002395
:101E100004248C40A3B2048C9C430484048C02FAF6
:101E200001F5ADB22C43048430BD70B503460020EB
:101E300000241846183001258D40ACB21D8CA543F6
:101E40001D8409B1082909D100EB6100056825F05E
:101E5000700505600568154305600EE00D1FC5F3AC
:101E60004E052844056825F4E045056005684FF6F1
:101E7000FF7606EA02263543056070BD21B102886F
:101E800042F00202028004E002884FF6FD731A401D
:101E90000280704721B1028842F00402028004E00F
:101EA00002884FF6FB731A400280704721B1828886
:101EB00042F08002828004E082884FF67F731A40ED
:101EC0008280704702884FF6F7731A4002800288BA
:101ED0000A430280704782884FF68F731A408280CF
:101EE00082880A438280704702894FF6F8731A404D
:101EF000028102890A430281704702894FF67F738B
:101F00001A40028102890A43028170478184704726
:101F10008185704781867047018770478187704748
:101F2000A0F84010704702884FF6FF431A40028025
:101F300002880A43028070470146888E7047014636
:101F4000088F70470146888F70470146B1F84000FE
:101F500070470146888C70470146088D70470246DD
:101F60000020138A0B400BB1012000E000207047D5
:101F7000CA430282704730B5024600200023002485
:101F8000158A05EA0103958905EA010413B10CB12C
:101F9000012000E0002030BDCA43028270470000EB
:101FA00010B50446FB48844209D101218803FFF79C
:101FB0009FF800214FF48040FFF79AF832E0F6488E
:101FC000844209D101214804FFF79FF800214FF412
:101FD0000030FFF79AF825E0F048844209D101214A
:101FE0008804FFF792F800214FF48020FFF78DF866
:101FF00018E0EB48844209D10121C804FFF785F8B5
:1020000000214FF40020FFF780F80BE0E548844200
:1020100008D101210805FFF778F800214FF480105E
:10202000FFF773F810BD2DE9F04786B005460E4660
:102030000024A24600BFA1460027B08900B100BF1E
:102040002F462C8A4CF6FF700440F08804432C8203
:10205000AC894EF6F3100440B08831890843718989
:1020600008430443AC81AC8A4FF6FF400440B0897A
:102070000443AC8201A8FEF7B4FFC648874202D1F0
:10208000DDF810A001E0DDF80CA0A88900F4004004
:1020900040B10AEBCA0000EB0A1031684900B0FBFE
:1020A000F1F807E00AEBCA0000EB0A10316889007A
:1020B000B0FBF1F86420B8FBF0F0040120096421C2
:1020C00001FB1089A88900F4004040B1322000EBE8
:1020D000C900B0FBF1F000F00700044308E0322033
:1020E00000EB09106421B0FBF1F000F00F00044395
:1020F0002C8106B0BDE8F0874FF416510160002135
:102100008180C18001810C21418100218181704742
:1021100010B502460020108A4FF2FF0318400B88CA
:102120004C8823438C882343CC8823431843108254
:1021300010BD0021018041808180C180704721B1A4
:10214000828942F40052828104E082894DF6FF7355
:102150001A4082817047F0B503460024002600250E
:10216000002040F66A17B94200D100BF1846C1F3FB
:10217000421401F01F06012707FA06F5012C01D1D0
:102180000C3004E0022C01D1103000E014301AB100
:1021900007682F43076002E00768AF430760F0BDA0
:1021A0001AB1838A0B43838202E0838A8B43838242
:1021B0007047028A4FF6F0731A400282028A0A437D
:1021C0000282704782894FF2FF731A4082818289AE
:1021D0000A438281704721B1828942F002028281E2
:1021E00004E082894FF6FD731A4082817047028AAB
:1021F0004FF6DF731A400282028A0A430282704756
:1022000021B1028A42F48042028204E0028A4BF643
:10221000FF731A4002827047C1F308028280704740
:1022200001468888C0F308007047818941F00101A8
:1022300081817047028BD2B20283028B42EA012273
:1022400002837047028B02F47F420283028B0A43AF
:102250000283704721B1828A42F02002828204E028
:10226000828A4FF6DF731A408282704721B1828AD8
:1022700042F01002828204E0828A4FF6EF731A4025
:102280008282704721B1828A42F00802828204E091
:10229000828A4FF6F7731A408282704721B1828991
:1022A00042F40042828103E08289C2F30E028281FD
:1022B000704721B1828A42F40062828204E0828AFD
:1022C0004FF2FF731A4082827047828A4FF6FB7387
:1022D0001A408282828A0A438282704721B1828AAE
:1022E00042F00202828204E0828A4FF6FD731A40B5
:1022F0008282704702460020B1F5007F00D100BF06
:1023000013880B400BB1012000E00020704701F45E
:102310000072B2F5007F00D100BFCA43028070474F
:1023200070B50246002400230025002040F66A16FE
:10233000B14200D100BFC1F3421501F01F030126D5
:1023400006FA03F3012D02D19689334006E0022DEF
:1023500002D1168A334001E0968A33400C120126DE
:1023600006FA04F41688344013B10CB1012000E0E1
:10237000002070BD10B50022002340F66A14A1426F
:1023800000D100BF0A1201249440A3B2DC430480B0
:1023900010BD0000003801400044004000480040EB
:1023A000004C00400050004070B504460D46E1B2BC
:1023B0002A48FFF731FF00BF40212848FFF79AFF66
:1023C0000028F9D0204670BD42F2107000F080F96C
:1023D00001F0BCF9022022490870487100F084F92C
:1023E00000F014FA00F0C1F900F03DFA00F08FF9A6
:1023F00000F022FA00F050FC01F0ECF900F0A8F82F
:1024000042F2107000F064F900F042F842F21070ED
:1024100000F05EF900F04CFE42F2107000F058F946
:1024200001F046F842F2107000F052F900F0BAF8EC
:1024300042F2107000F04CF900F081FB4FF4E130F3
:1024400001F02AFB054801F01BFB06E001F0CDF886
:1024500001F03CF903A001F0E3FBF7E7004800407E
:102460005001002048656C6C6F330D0A00000000BD
:10247000012005494870704710B500F0BDFE80216D
:102480000248FFF789FD10BD38010020002C0140F3
:1024900000B585B001214802FEF710FE8248FDF725
:1024A0009FFF6846FDF7E6FF0020009001208DF8B1
:1024B00004008DF805004FF4602002900020039086
:1024C00005208DF8100069467748FDF7B0FF002021
:1024D000FEF758FD01231A4600217348FEF73FF826
:1024E0000123022219467048FEF739F8012303221E
:1024F00002216D48FEF733F80123042203216A48C4
:10250000FEF72DF80123052208216748FEF727F87A
:1025100001216548FDF7B7FF01216348FDF7BEFFC4
:102520006148FDF7D2FF00BF5F48FDF7D3FF0028E9
:10253000FAD15D48FDF7D8FF00BF5B48FDF7D9FF32
:102540000028FAD101215848FDF7DDFF05B000BD94
:1025500000B58BB001210846FEF7A3FD5348FEF7F6
:1025600067F951484C30009051480190002002908A
:1025700005200390002004908020059040000690E4
:1025800080000790202008900002099000200A9007
:1025900069464648FEF7EEF901214448FEF715FA70
:1025A0000BB000BD30B5424880884249424A12789B
:1025B00021F812003E48418840483F4A127820F8EE
:1025C00012103B4800883E493B4A127821F812001D
:1025D00039480078401C384908700846007840287F
:1025E00001DB0020087037488078E0B90021002224
:1025F000002300200DE02F4C34F8104021442F4CD4
:1026000034F8104022442E4C34F810402344441C2B
:10261000E0B24028EFDB8C092B4DEC6194092C6271
:102620009C09AC6100BF30BD2148008826498969FA
:10263000401A1930244948600846006A1C494988F4
:10264000401A2149C8600846C06919498988401A5A
:102650001D4988601648C08848611548008908618E
:102660000846406A0968484381121748806A164A3A
:102670005268504301EBA02013490860704710B521
:1026800011480068002802DB0F48006802E00E488D
:10269000006840420D490988884204DD00F0ACFD25
:1026A00000200849087210BD0024014008000240C3
:1026B0005A01002064010020F0000020E401002005
:1026C000640200205001002094000020EE00002051
:1026D00042F2107105E001E04A1E91B20029FBD1DF
:1026E000401E0028F7D1704708B501211C20FEF7D5
:1026F000E5FC0420ADF8000010208DF80300032055
:102700008DF8020069467648FEF71CFA08BD08B548
:102710004FF46040ADF8000004208DF80300032062
:102720008DF8020069466F48FEF70CFA08BD08B53F
:102730004FF48050ADF8000018208DF803000320FE
:102740008DF8020069466848FEF7FCF94FF4006016
:10275000ADF8000048208DF8030003208DF802003A
:1027600069466148FEF7EEF908BD08B54FF4806090
:10277000ADF8000018208DF8030003208DF802004A
:1027800069465748FEF7DEF94FF40060ADF80000E7
:1027900004208DF8030003208DF80200694650489C
:1027A000FEF7D0F908BD08B54FF40040ADF80000C1
:1027B00004208DF8030003208DF8020069464A4882
:1027C000FEF7C0F93020ADF8000004208DF80300BA
:1027D00003208DF8020069464148FEF7B3F908BDB1
:1027E00008B56846FEF739FA01210803FEF77BFABF
:1027F000E020ADF8000004208DF8030003208DF8E0
:10280000020069463648FEF79DF908BD08B50F205D
:10281000ADF8000000208DF8030069463248FEF74D
:1028200091F90120ADF8000000208DF80300694601
:102830002B48FEF787F908BD08B56846FEF70DFA84
:1028400001210803FEF74FFA4FF44070ADF8000085
:1028500018208DF8030003208DF8020069462048F7
:10286000FEF770F908BD08B501212048FEF73BFAD4
:102870004FF4E060ADF8000018208DF8030003204D
:102880008DF8020069461848FEF75CF94FF4604085
:10289000ADF8000018208DF8030003208DF8020029
:1028A00069460F48FEF74EF94FF48050ADF800002E
:1028B00048208DF8030069460948FEF743F908BD32
:1028C00007480C30006800F0040008B9002100E05F
:1028D0001021042088400249103108607047000030
:1028E000000C01400010014000080140C00016002B
:1028F00001460A8890B2801100F440724AB1B2F5E4
:10290000807F12D0B2F5007F1CD0B2F5407F34D169
:1029100026E0C2B2764B33F912204A60C2B2C2F14D
:10292000FF0233F912208A6028E0C2B2C2F1FF022E
:102930006F4B33F912204A60C2B233F9122052426F
:102940008A601BE0C2B26A4B33F9122052424A60DD
:10295000C2B2C2F1FF0233F9122052428A600DE086
:10296000C2B2C2F1FF02624B33F9122052424A60F6
:10297000C2B233F912208A6000E000BF00BF704786
:102980000346934201DC104604E08B4201DB08461B
:1029900000E0184670470021026822B9426802B977
:1029A00065E0FF2163E04268002A01DB426801E044
:1029B00042685242D3030268002A01DB026801E048
:1029C0000268524293FBF2F282604A4B01F18002AC
:1029D00053F8222083689A4202DC01F1800211B28E
:1029E000444B01F1400253F8222083689A4202DCF2
:1029F00001F1400211B23F4B01F1200253F82220B5
:102A000083689A4202DC01F1200211B2394B01F1D4
:102A1000100253F8222083689A4202DC01F110026E
:102A200011B2344B01F1080253F8222083689A4214
:102A300002DC01F1080211B22E4B0A1D53F82220CC
:102A400083689A4201DC0A1D11B22A4B8A1C53F892
:102A5000222083689A4201DC8A1C11B2254B4A1C51
:102A600053F8222083689A4201DC4A1C11B2426862
:102A7000002A08DD0268002A01DDC1600DE0C1F511
:102A80000072C26009E00268002A03DDC1F58062BD
:102A9000C26002E001F50072C260C268002A03DA77
:102AA000C26802F58062C260C2689201C26070476B
:102AB00030B503460BB9002030BD00219A0F9B00B2
:102AC000012A01D9491C521A0F240DE04900920035
:102AD00002EB93720D46012000EB45059B00AA42D4
:102AE00001D3521B491C641E002CEFD10846E3E7BA
:102AF000703C0008703E000810B50446D4E900019F
:102B0000401A2062A16AA068884206D1216A6069E1
:102B10004843E16A01EBE03000E0E06A6062606A2D
:102B2000E062216A20694843616A01EBE030A062FB
:102B3000D4E90612A06AFFF723FFA06010BD42F699
:102B4000E0600B49086140F22440486141F23E7068
:102B500088610020C86142F22830064908614FF4BC
:102B60005C70486141F23E7088610020C861704726
:102B7000340000206400002010B54448007802288A
:102B800041D143484069B0F5AF7F0EDC00203F499A
:102B900088700872C8803F494860086008624862CF
:102BA0008862C8628860C86011E001203749887077
:102BB00037484069A0F596703649086008460068B5
:102BC00040F6C411884202DB0846324908602F48AB
:102BD000C07830B92D488078012802D12B4908727D
:102BE0000CE02A48C078012803D1284880780128C1
:102BF00004D000F001FB00202449087223488078AB
:102C00002249C87040E022484069B0F5AF7F0EDC31
:102C100000201E4988700872C8801E4948600860FC
:102C2000086248628862C8628860C86011E001205A
:102C30001649887016484069A0F5967015490860D5
:102C40000846006840F6C411884202DB0846114974
:102C500008600E48C07830B90C488078012802D14D
:102C60000A4908720CE00948C078012803D10748D6
:102C70008078012804D000F0BFFA002003490872D0
:102C8000024880780149C87010BD00005001002042
:102C900094000020340000200420A84981F820007E
:102CA000084690F82000A64991FBF0F0A349C861BE
:102CB000704710B54FF40051A248FDF7D6FF012828
:102CC00002D19E49087002E000209C4908704FF430
:102CD00080419C48FDF7C9FF012802D197494870FF
:102CE00002E00020954948704FF400419548FDF7F7
:102CF000BCFF012802D19149887002E000208F4971
:102D000088708E4800788D49497800EB41008B49E6
:102D1000897800EB81008949C8708B48007A0128C6
:102D20007ED10846C078097988427AD08348C07835
:102D3000072853D2DFE800F0522B4538111E04005B
:102D400081484079012801D100F076FA7E48407927
:102D5000022801D100F00CFB46E07B4840790128B5
:102D600001D100F09DFA78484079022801D100F0A5
:102D700033FB39E074484079012801D100F0C4FAEE
:102D800071484079022801D100F05AFB2CE06E48CE
:102D90004079012801D100F0EBFA6B484079022814
:102DA00001D100F049FA1FE067484079012801D1BC
:102DB00000F012FB64484079022801D100F070FA5B
:102DC00012E061484079012801D100F039FB5E48EA
:102DD0004079022801D100F097FA05E000F00CFAE2
:102DE00000205649488400BF00BF5448C08A574954
:102DF0000988484381125148808A554A12885043B5
:102E000001EBA0204D49C8820846C069C98AB0FBC1
:102E1000F1F04A4948840846808C4C49098801E011
:102E200087E00DE0484381124448408C484A1288AC
:102E3000504301EBA020414988840020888278E03B
:102E40003E48C0783D490979884272D13B48808A22
:102E5000401C3A4988820846808AB0F5FA5F68DBF0
:102E600000208882888400F0C7F900203349086177
:102E700081F821000846C078072853D2DFE800F027
:102E8000522B4538111E04002F484079012801D1EA
:102E900000F0D2F92C484079022801D100F068FAFC
:102EA00046E029484079012801D100F0F9F9264887
:102EB0004079022801D100F08FFA39E022484079A8
:102EC000012801D100F020FA1F484079022801D1E1
:102ED00000F0B6FA2CE01C484079012801D100F03E
:102EE00047FA19484079022801D100F0A5F91FE0FE
:102EF00015484079012801D100F06EFA1248407956
:102F0000022801D100F0CCF912E00F4840790128E5
:102F100001D100F095FA0C484079022801D100F067
:102F2000F3F905E000F068F900200449488400BF87
:102F300000BF0248C0780149087110BDC0000020E0
:102F4000C0D401000010014050010020F400002016
:102F5000F200002010B5FFF767FBFFF7AAFE484814
:102F6000807808B9FFF71EFB46480078401C4549A9
:102F7000087008460078182870DD00200870FFF7F8
:102F8000FBFD4148008A414948823F480088088249
:102F90003F48808808843E480088C8833D48808C2C
:102FA0003B4948600846FFF7A7FD3948C0683A49E1
:102FB00009884843811236488068384A128850434D
:102FC00001EBA0203249C8602F484069142190FBD2
:102FD000F1F000F59670324908602B4800684860AF
:102FE0000846FFF789FD2E48C0682B4909884843E9
:102FF00081122B488068294A1288504301EBA02097
:103000002749C8601E480078012806D1204800885A
:103010004004000C2349088020E019480078022869
:103020001CD11F48C0681A49C96888420BDD18487E
:1030300080891C4908801648C068194948621448AC
:10304000C068C8620AE0164880891649088014489A
:10305000C0680F4948621248C068C862FFF70FFB9A
:103060000C48818C1048FEF759FF0E4801880E4825
:10307000FEF756FF01210D48FEF77AFF10BD000054
:103080005001002038010020940000201001002091
:1030900034000020C0000020F6000020F8000020CE
:1030A00064000020FA00002000080040002C0140CD
:1030B00000B58DB00121C802FEF700F80020ADF880
:1030C0002800ADF82A0041F26F70ADF82C00002006
:1030D000ADF82E008DF830000AA9F348FEF726F966
:1030E0000020ADF818000120ADF81A000420ADF85A
:1030F0001C000020ADF81E00ADF82000ADF8220045
:103100004FF48070ADF824004000ADF8260006A909
:10311000E548FEF748F906A9E348FEF786F906A94F
:10312000E148FEF7CFF90821DF48FEF78BFD0821C3
:10313000DD48FEF790FD0821DB48FEF799FD4FF4CE
:103140000060ADF808004010ADF80A000020ADF8AE
:103150000C006A20ADF80E004FF48050ADF810005E
:103160000020ADF812004FF48040ADF8140002A921
:10317000CD48FEF7F7FB8021CB48FEF70DFF01227B
:103180008021C948FEF749FC0121C748FEF7F0FE3F
:103190000121C548FEF700FF01221146C248FEF793
:1031A0003CFC0121C048FEF71DFC0121BE48FEF792
:1031B00025FC4FF4A060FDF7A5F818208DF8040059
:1031C00000208DF805008DF8060001208DF807001D
:1031D00001A8FDF79CF819208DF8040001208DF856
:1031E000050000208DF8060001208DF8070001A8D9
:1031F000FDF78DF80DB000BD10B500221146AA48AC
:10320000FEF7F5FD00221146A748FEF7FFFD00225C
:103210000421A548FEF7EBFD00220421A248FEF799
:10322000F5FD00220821A048FEF7E1FD002208215B
:103230009D48FEF7EBFD10BD10B5602200219A48B5
:10324000FEF7F3FD012200219748FEF7D0FD04228E
:1032500000219548FEF7DAFD602204219248FEF72E
:10326000E4FD012204219048FEF7C1FD042211462D
:103270008D48FEF7CBFD002208218B48FEF7B7FDF5
:10328000002208218848FEF7C1FD8848008881B2E5
:103290008548FEF73FFE00218348FEF73DFE10BD46
:1032A00010B5602200218048FEF7BFFD01220021F9
:1032B0007D48FEF79CFD042200217B48FEF7A6FD19
:1032C000002204217848FEF792FD0022042176486E
:1032D000FEF79CFD602208217348FEF7A6FD01223F
:1032E00008217148FEF783FD042208216E48FEF78D
:1032F0008DFD6E48008881B26B48FEF70BFE002101
:103300006948FEF70BFE10BD10B500221146664855
:10331000FEF76DFD002211466348FEF777FD60223F
:1033200004216148FEF781FD012204215E48FEF779
:103330005EFD042211465C48FEF768FD602208210C
:103340005948FEF772FD012208215748FEF74FFD4C
:10335000042208215448FEF759FD5448008881B2E0
:103360005148FEF7D9FD00214F48FEF7D7FD10BDAB
:1033700010B5602200214C48FEF757FD01220021C4
:103380004948FEF734FD042200214748FEF73EFD80
:10339000602204214448FEF748FD012204214248EE
:1033A000FEF725FD042211463F48FEF72FFD0022BF
:1033B00008213D48FEF71BFD002208213A48FEF790
:1033C00025FD00213848FEF7A5FD3848008881B268
:1033D0003548FEF7A1FD10BD10B56022002132482E
:1033E000FEF723FD012200212F48FEF700FD0422F5
:1033F00000212D48FEF70AFD002204212A48FEF78D
:10340000F6FC002204212848FEF700FD6022082176
:103410002548FEF70AFD012208212348FEF7E7FCB4
:10342000042208212048FEF7F1FC00211E48FEF787
:1034300071FD1E48008881B21B48FEF76FFD10BD6C
:1034400010B5002211461848FEF7D1FC00221146A3
:103450001548FEF7DBFC602204211348FEF7E5FC6B
:10346000012204211048FEF7C2FC042211460E4836
:10347000FEF7CCFC602208210B48FEF7D6FC0122A7
:1034800008210948FEF7B3FC042208210648FEF78C
:10349000BDFC00210448FEF73FFD0448008881B2CE
:1034A0000148FEF73BFD10BD002C0140FA00002052
:1034B00000B587B001210420FDF70DFE2E480068FD
:1034C00044F25061B0FBF1F0401E80B2ADF8140040
:1034D0000020ADF81000ADF81600ADF8120004A9F8
:1034E0002648FDF723FF6020ADF800000120ADF86D
:1034F00002006420ADF806000020ADF8080069461F
:103500001E48FDF750FF08211C48FEF79BFB0120D9
:10351000ADF802006420ADF8060069461748FDF7D3
:1035200084FF08211548FEF796FB0120ADF8020044
:103530006420ADF8060069461048FDF7C3FF082176
:103540000E48FEF795FB0120ADF802006420ADF8AF
:10355000060069460948FEF700F808210748FEF70B
:1035600090FB01210548FEF73DFB01210348FEF7D2
:1035700039FA07B000BD000000000020000800403C
:1035800010B5002807DA0A07140E8E4A00F00F0360
:103590001B1FD45403E00A07130E8B4A135410BDAB
:1035A00010B58A4800686421B0FBF1F4B4F1807F63
:1035B00001D3012011E024F07F40401E4FF0E021B4
:1035C00048610F214FF0FF30FFF7DAFF00204FF086
:1035D000E021886107200861002008B100BFFEE7F4
:1035E0000021481EFFF7CCFF10BD10B57848407889
:1035F00001286AD100207649487001208870084669
:10360000C078401CC0B2C8700A2803DB0020C87014
:10361000012008716E484079401CC0B26C49487165
:10362000142803DB00204871012088716848C079A4
:10363000401CC0B26649C8711E2803DB0020C87157
:10364000012008726248407A401CC0B2604948724A
:10365000282803DB00204872012088725C48C07A69
:10366000401CC0B25A49C872322803DB0020C8721D
:10367000012008735648407B401CC0B2544948732F
:10368000642806DBFFF71CF900205149487301202C
:1036900088734F48008A401C80B24D490882B0F5BB
:1036A0007A7F03DB00200882012088744848808AE2
:1036B000401C80B24649888241F27071884204DB26
:1036C0000020434988820120887510BD40488078D9
:1036D000012802D100203E4988703D480079012828
:1036E00002D100203A49087139488079012802D175
:1036F0000020374988713648007A012802D100201D
:10370000334908723248807A012802D100203049BA
:1037100088722F48007B012802D100202C490873B1
:103720002B48807B012802D1002029498873284832
:10373000807C012802D10020254988742448807D9E
:10374000012802D100202249887570471FB5012148
:103750000846FDF7C0FC6320ADF8080041F61F40A5
:10376000ADF804000020ADF80A00ADF8060001A98C
:103770004FF08040FDF7DAFD1C208DF8000000209E
:103780008DF801008DF8020001208DF803006846D5
:10379000FCF7BDFD012211469007FEF73EF901211D
:1037A0008807FEF71FF91FBD10B501218807FEF736
:1037B000E2FB30B101218807FEF7EEFB012004494E
:1037C000487010BD18ED00E000E400E000000020AB
:1037D0003801002000B585B001218804FDF77BFC8D
:1037E00027208DF8000003208DF801008DF80200DD
:1037F00001208DF803006846FCF789FD9A48FEF722
:10380000CFFB4FF4E13001900020ADF80800ADF897
:103810000A00ADF80C00ADF810000C20ADF80E0059
:1038200001A99148FEF7FFFB012240F225518E4885
:10383000FEF791FC01218C48FEF781FC05B000BD2C
:1038400070B504460D468848008800BF2178864838
:10385000FEF7E2FC00BF8448008800F0400000282A
:10386000F9D0641C681EC5B2002DEFD170BD7F4930
:10387000097B012920D1AA217D4A11701146498A6C
:10388000091251701146897C91701146C98B091239
:10389000D1701146897F1171764949795171754905
:1038A000097A9171CC21D17172494979012901D1EB
:1038B000012001E04FF0FF30704700206C4991F883
:1038C000221001290DD10021694A82F8221000BF7F
:1038D00005E0674908310A5C0A54411CC8B208284F
:1038E000F7DB70470146A1F13002112A54D2DFE81C
:1038F00002F00910171E252C333A414853535353F5
:1039000053534F0000205C4A1268521C5A4B1A60F5
:1039100042E00120584A1268521C574B1A603BE0A3
:103920000220554A1268521C534B1A6034E003209F
:10393000514A1268521C504B1A602DE004204E4A26
:103940001268521C4C4B1A6026E005204A4A126845
:10395000521C494B1A601FE00620474A1268521C4D
:10396000454B1A6018E00720434A1268521C424B2C
:103970001A6011E00820404A1268521C3E4B1A603F
:103980000AE009203C4A1268521C3B4B1A6003E0D3
:103990000022394B1A6000BF00BF704730B50246A5
:1039A000002007295DD2DFE801F05C04060F1B2C24
:1039B0004200107855E0137803EB83035B005478E2
:1039C000012505FB04304CE01378642463435478EC
:1039D0000A2505FB04339478012505FB043040E0FB
:1039E00013784FF47A7463435478642505FB0433E9
:1039F00094780A2505FB0433D478012505FB0430AF
:103A00002FE0137842F21074634354784FF47A75C0
:103A100005FB04339478642505FB0433D4780A2528
:103A200005FB04331479012505FB043019E01378F4
:103A3000124C6343547842F2107505FB04339478BA
:103A40004FF47A7505FB0433D478642505FB043301
:103A500014790A2505FB04335479012505FB04304C
:103A600000BF00BF30BD000000480040380100200A
:103A7000100100205001002000010020A08601005C
:103A800010B504465848046000234FF4806219467C
:103A900056484FF0FF3010BD10B586B004460121E6
:103AA0008804FDF718FB01210820FDF707FB4FF400
:103AB0008060ADF8140018208DF8170003208DF8F1
:103AC000160005A94A48FDF73DF84FF40060ADF82F
:103AD000140004208DF8170003208DF8160005A9A6
:103AE0004348FDF72FF827208DF8000003208DF8BC
:103AF00001008DF8020001208DF803006846FCF7F4
:103B000006FC01940020ADF80800ADF80A00ADF8FD
:103B10000C00ADF810000C20ADF80E0001A93548DE
:103B2000FEF781FA012240F225513248FEF713FBDD
:103B300001213048FEF703FB06B010BD0146002905
:103B400003DB022901DC012070470020FCE72DE99E
:103B5000F04104460F461546012C01D0022C1CD121
:103B600000260DE0B95D20480068FEF755FB00BF58
:103B700080211D480068FEF7BDFB0028F8D0761CA8
:103B8000AE42EFD300BF402117480068FEF7B2FBFA
:103B90000028F8D02846BDE8F0814FF0FF30FAE762
:103BA0000146002903DB022901DC002070474FF0A9
:103BB000FF30FBE703464FF0FF30704770B5044617
:103BC0000D46164664B900BF20210B48FEF792FB54
:103BD0000028F9D00848FEF723FB2870012070BDAB
:103BE0004FF0FF30FBE70000080100200C0100202F
:103BF000000C01400048004000440040064C074DC6
:103C000006E0E06840F0010394E8070098471034AC
:103C1000AC42F6D3FCF76EFA7042000890420008FE
:103C2000014A024900F013B8A92300080C01002042
:103C300002E008C8121F08C1002AFAD17047704775
:103C4000002001E001C1121F002AFBD170472DE9BD
:103C5000F04116460F460446002503E03946B047BA
:103C6000641C6D1C20780028F8D12846BDE8F0813E
:103C70000000C90092015B022403ED03B6047F0536
:103C800048061107D907A2086A09330AFB0AC40BC0
:103C90008C0C540D1C0EE30EAB0F72103A11011276
:103CA000C8128F1355141C15E215A8166E17331879
:103CB000F918BE19821A471B0B1CCF1C931D571EE7
:103CC0001A1FDD1F9F2061212322E522A6236724DE
:103CD0002825E825A82667272628E528A329612A7C
:103CE0001F2BDC2B992C552D112ECC2E872F4130DC
:103CF000FB30B5316E322633DF3396344D35043622
:103D0000BA366F372438D9388C39403AF23AA53B65
:103D1000563C073DB83D683E173FC53F73402141C3
:103D2000CE417A422543D0437A442445CD45754659
:103D30001C47C34769480F49B449584AFB4A9D4B41
:103D40003F4CE04C814D204EBF4E5D4FFB4F975096
:103D50003351CE51685202539B533254C95460556B
:103D6000F5558A561D57B0574258D3586459F359E0
:103D7000825A0F5B9C5B285CB35C3E5DC75D4F5E07
:103D8000D75E5D5FE35F6860EB606E61F0617162FA
:103D9000F1627063EE636C64E8646365DD655666CA
:103DA000CF664667BC673268A66819698B69FD698A
:103DB0006D6ADC6A4A6BB76B236C8E6CF86C616D54
:103DC000C96D306E966EFB6E5E6FC16F2270837030
:103DD000E27040719D71F9715472AE7207735E7337
:103DE000B5730A745F74B27404755575A575F3756F
:103DF00041768D76D87622776B77B377FA773F78EE
:103E00008478C77809794A798979C879057A417AB5
:103E10007C7AB67AEE7A267B5C7B917BC57BF87BDD
:103E2000297C597C887CB67CE37C0E7D397D627D63
:103E3000897DB07DD57DFA7D1D7E3E7E5F7E7E7E56
:103E40009C7EB97ED57EEF7E097F217F377F4D7FB7
:103E5000617F747F867F977FA67FB47FC17FCD7F90
:103E6000D87FE17FE97FF07FF57FF97FFD7FFE7FDF
:103E700000000000C9000000920100005B02000089
:103E800024030000ED030000B604000080050000DC
:103E90004906000012070000A70800007109000091
:103EA0003B0A0000050B0000D00B00009B0C00003B
:103EB000660D0000310E0000FD0E0000C90F00006D
:103EC0009510000062110000181200002F1200006F
:103ED000FC120000CA1300009814000066150000D0
:103EE0003516000005170000D4170000A5180000C3
:103EF00075190000471A0000191B0000EB1B000099
:103F0000BE1C0000911D0000651E00003A1F00004D
:103F10000F200000E5200000BC21000094220000DA
:103F20006C230000442400001E250000F82500003A
:103F3000D4260000B02700008C2800006A29000069
:103F4000492A0000282B0000082C0000EA2C000061
:103F5000CC2D0000AF2E0000942F0000793000001F
:103F60006031000047320000303300001934000097
:103F70000935000071350000DE360000CD37000045
:103F8000BD380000AE390000A03A0000943B0000AC
:103F90008A3C0000803D0000793E0000723F000036
:103FA0006E4000006A410000694200006943000061
:103FB0006A4400006E450000734600007A47000026
:103FC000824800008D490000994A0000A84B00007B
:103FD000B84C0000CA4D0000DF4E0000F54F000055
:103FE0000E510000285200004553000065540000A7
:103FF00086550000AA560000D1570000FA5800006C
:10400000255A0000535B0000845C0000B85D00008E
:10401000EE5E00002760000063610000A262000005
:10402000E46300002965000071660000BD670000C0
:104030000C6900005E6A0000B36B00000D6D0000AB
:10404000696E0000CA6F00002E71000096720000B9
:104050000374000073750000E776000060780000CC
:10406000DD7900005F7B0000E57C0000707E0000D1
:1040700000800000948100002E830000CD840000A9
:10408000718600001A880000CA8900007F8B00003A
:10409000398D0000FA8E0000C19000008F92000060
:1040A000639400003D9600001F980000089A0000ED
:1040B000F79B0000EF9D0000EE9F0000F5A10000BF
:1040C00004A400001BA600003BA8000064AA000096
:1040D00096AC0000D1AE000016B1000065B3000040
:1040E000BEB5000022B8000091BA00000BBD000070
:1040F00090BF000022C20000C0C400006AC70000D8
:1041000022CA0000E7CC000088CF00009DD200004A
:104110008ED500008ED800009FDB0000C0DE0000BE
:10412000F3E1000038E500008FE80000FAEB000042
:1041300078EF00000BF30000B4F6000074FA000002
:104140004AFE00003902010041060100640A010034
:10415000A20E0100FC120100741701000B1C0100EB
:10416000032C01009C250100992A0100BC2F0100AD
:1041700004350100763A010012400100DB450100E0
:10418000D34B0100FD5101005A580100EE5E0100C1
:10419000BC650100C66C0100117401009F7B010029
:1041A00076830100988B01000A940100D29C0100E3
:1041B000F5A5010078AF010063B90100BBC30100A0
:1041C00088CE0100D2D90100A3E5010005F201006B
:1041D00001FF0100A40C0200FB1A0200152A0200D4
:1041E000023A0200D44A02009F5C02007B6F020088
:1041F0007F830200CA9802007CAF0200BAC70200A7
:10420000AEE102008AFD0200841B0300DF3B0300D5
:10421000E75E0300F584030073AE0300DDDB0300FB
:10422000CB0D0400F444040036820400A6C604004A
:104230009B130500C96A050063CE050044410600D2
:1042400040C706008D65070074230800810B090034
:104250007F2D0A0046A20B0038930D00D74A1000AC
:10426000245E1400CC281B00DABD28007E7C51009F
:10427000904200080000002010010000303C0008BF
:10428000A043000810010020D8050000403C0008B1
:1042900000A24A0400000000000000000102030424
:1042A00006070809000000000102030401020304DC
:1042B00006070809020406080000000000000000CC
:1042C00000000000000000000000000000000000EE
:1042D000000000000000000000000000007D000061
:1042E00000000000000000000000000000000000CE
:1042F00000000000000000000000000000000000BE
:10430000000000000000000000000000007D000030
:10431000000000000000000000000000000000009D
:10432000000000000000000000000000000000008D
:10433000000000000000000000000000000000007D
:104340000000000000000000E8030000180000006A
:10435000000000000000000000000000000000005D
:104360000000000000000000040000000000000049
:1043700000000000000000000000000000005802E3
:10438000000063019D024801B802000030000000F7
:10439000000000000000000000000000000000001D
:04000005080000ED02
:00000001FF
